{
  "contractName": "AntiFraud",
  "abi": [
    {
      "inputs": [],
      "stateMutability": "nonpayable",
      "type": "constructor"
    },
    {
      "inputs": [
        {
          "internalType": "address",
          "name": "_userAdd",
          "type": "address"
        }
      ],
      "name": "getBalanceOf",
      "outputs": [
        {
          "internalType": "uint256",
          "name": "",
          "type": "uint256"
        }
      ],
      "stateMutability": "view",
      "type": "function",
      "constant": true
    },
    {
      "inputs": [
        {
          "internalType": "address",
          "name": "_from",
          "type": "address"
        },
        {
          "internalType": "address",
          "name": "_to",
          "type": "address"
        },
        {
          "internalType": "uint256",
          "name": "_val",
          "type": "uint256"
        }
      ],
      "name": "transfer",
      "outputs": [
        {
          "internalType": "bool",
          "name": "",
          "type": "bool"
        }
      ],
      "stateMutability": "nonpayable",
      "type": "function"
    },
    {
      "inputs": [
        {
          "internalType": "address",
          "name": "_policeUserAddress",
          "type": "address"
        }
      ],
      "name": "getPoliceUser",
      "outputs": [
        {
          "internalType": "uint256",
          "name": "",
          "type": "uint256"
        },
        {
          "internalType": "string",
          "name": "",
          "type": "string"
        },
        {
          "internalType": "string",
          "name": "",
          "type": "string"
        }
      ],
      "stateMutability": "view",
      "type": "function",
      "constant": true
    },
    {
      "inputs": [
        {
          "internalType": "string",
          "name": "_name",
          "type": "string"
        },
        {
          "internalType": "string",
          "name": "_avatarLink",
          "type": "string"
        }
      ],
      "name": "createPoliceUser",
      "outputs": [],
      "stateMutability": "nonpayable",
      "type": "function"
    },
    {
      "inputs": [
        {
          "internalType": "address",
          "name": "_civilUserAddress",
          "type": "address"
        }
      ],
      "name": "getCivilUser",
      "outputs": [
        {
          "internalType": "uint256",
          "name": "",
          "type": "uint256"
        },
        {
          "internalType": "string",
          "name": "",
          "type": "string"
        },
        {
          "internalType": "string",
          "name": "",
          "type": "string"
        }
      ],
      "stateMutability": "view",
      "type": "function",
      "constant": true
    },
    {
      "inputs": [
        {
          "internalType": "string",
          "name": "_name",
          "type": "string"
        },
        {
          "internalType": "string",
          "name": "_avatarLink",
          "type": "string"
        }
      ],
      "name": "createCivilUser",
      "outputs": [],
      "stateMutability": "nonpayable",
      "type": "function"
    },
    {
      "inputs": [
        {
          "internalType": "string",
          "name": "_screenshotLink",
          "type": "string"
        }
      ],
      "name": "postScreenshot",
      "outputs": [],
      "stateMutability": "nonpayable",
      "type": "function"
    },
    {
      "inputs": [],
      "name": "getScreenshotList",
      "outputs": [
        {
          "components": [
            {
              "internalType": "uint256",
              "name": "id",
              "type": "uint256"
            },
            {
              "internalType": "address",
              "name": "auditPoliceUser",
              "type": "address"
            },
            {
              "internalType": "string",
              "name": "screenshotLink",
              "type": "string"
            },
            {
              "internalType": "bool",
              "name": "isValid",
              "type": "bool"
            },
            {
              "internalType": "uint256",
              "name": "postTime",
              "type": "uint256"
            }
          ],
          "internalType": "struct AntiFraud.FraudScreenshot[]",
          "name": "",
          "type": "tuple[]"
        }
      ],
      "stateMutability": "view",
      "type": "function",
      "constant": true
    },
    {
      "inputs": [
        {
          "internalType": "uint256",
          "name": "_screenshotIndex",
          "type": "uint256"
        },
        {
          "internalType": "bool",
          "name": "_isVaild",
          "type": "bool"
        }
      ],
      "name": "auditScreenshot",
      "outputs": [],
      "stateMutability": "nonpayable",
      "type": "function"
    },
    {
      "inputs": [
        {
          "internalType": "string",
          "name": "_title",
          "type": "string"
        },
        {
          "internalType": "string",
          "name": "_description",
          "type": "string"
        },
        {
          "internalType": "string",
          "name": "_caseImageLink",
          "type": "string"
        }
      ],
      "name": "postCase",
      "outputs": [],
      "stateMutability": "nonpayable",
      "type": "function"
    },
    {
      "inputs": [],
      "name": "getCase",
      "outputs": [
        {
          "components": [
            {
              "internalType": "uint256",
              "name": "id",
              "type": "uint256"
            },
            {
              "internalType": "string",
              "name": "title",
              "type": "string"
            },
            {
              "internalType": "string",
              "name": "description",
              "type": "string"
            },
            {
              "internalType": "uint256",
              "name": "postTime",
              "type": "uint256"
            },
            {
              "internalType": "string",
              "name": "caseImageLink",
              "type": "string"
            }
          ],
          "internalType": "struct AntiFraud.FraudCase[]",
          "name": "",
          "type": "tuple[]"
        }
      ],
      "stateMutability": "view",
      "type": "function",
      "constant": true
    },
    {
      "inputs": [
        {
          "internalType": "string",
          "name": "_title",
          "type": "string"
        },
        {
          "internalType": "string",
          "name": "_description",
          "type": "string"
        },
        {
          "internalType": "string",
          "name": "_taskImageLink",
          "type": "string"
        },
        {
          "internalType": "bool",
          "name": "_isAnswerInRush",
          "type": "bool"
        }
      ],
      "name": "postTask",
      "outputs": [],
      "stateMutability": "nonpayable",
      "type": "function"
    },
    {
      "inputs": [],
      "name": "getTask",
      "outputs": [
        {
          "components": [
            {
              "internalType": "uint256",
              "name": "id",
              "type": "uint256"
            },
            {
              "internalType": "string",
              "name": "title",
              "type": "string"
            },
            {
              "internalType": "string",
              "name": "description",
              "type": "string"
            },
            {
              "internalType": "uint256",
              "name": "postTime",
              "type": "uint256"
            },
            {
              "internalType": "bool",
              "name": "isSolved",
              "type": "bool"
            },
            {
              "internalType": "string",
              "name": "taskImageLink",
              "type": "string"
            },
            {
              "internalType": "bool",
              "name": "isAnswerInRush",
              "type": "bool"
            },
            {
              "internalType": "bool",
              "name": "isAccept",
              "type": "bool"
            }
          ],
          "internalType": "struct AntiFraud.Task[]",
          "name": "",
          "type": "tuple[]"
        }
      ],
      "stateMutability": "view",
      "type": "function",
      "constant": true
    },
    {
      "inputs": [
        {
          "internalType": "uint256",
          "name": "_taskIndex",
          "type": "uint256"
        }
      ],
      "name": "acceptTask",
      "outputs": [],
      "stateMutability": "nonpayable",
      "type": "function"
    },
    {
      "inputs": [
        {
          "internalType": "uint256",
          "name": "_taskIndex",
          "type": "uint256"
        },
        {
          "internalType": "string",
          "name": "_detail",
          "type": "string"
        }
      ],
      "name": "postTaskAnswer",
      "outputs": [],
      "stateMutability": "nonpayable",
      "type": "function"
    },
    {
      "inputs": [
        {
          "internalType": "uint256",
          "name": "_taskIndex",
          "type": "uint256"
        }
      ],
      "name": "getThisTaskAnswer",
      "outputs": [
        {
          "components": [
            {
              "internalType": "uint256",
              "name": "id",
              "type": "uint256"
            },
            {
              "internalType": "string",
              "name": "detail",
              "type": "string"
            },
            {
              "internalType": "uint256",
              "name": "postTime",
              "type": "uint256"
            },
            {
              "internalType": "address",
              "name": "answerAddress",
              "type": "address"
            }
          ],
          "internalType": "struct AntiFraud.TaskAnswer[]",
          "name": "",
          "type": "tuple[]"
        }
      ],
      "stateMutability": "view",
      "type": "function",
      "constant": true
    },
    {
      "inputs": [
        {
          "internalType": "uint256",
          "name": "_taskIndex",
          "type": "uint256"
        }
      ],
      "name": "taskFailed",
      "outputs": [],
      "stateMutability": "nonpayable",
      "type": "function"
    },
    {
      "inputs": [
        {
          "internalType": "uint256",
          "name": "_taskIndex",
          "type": "uint256"
        },
        {
          "internalType": "uint256",
          "name": "_answerIndex",
          "type": "uint256"
        },
        {
          "internalType": "bool",
          "name": "_isAdopt",
          "type": "bool"
        }
      ],
      "name": "taskCompelte",
      "outputs": [],
      "stateMutability": "nonpayable",
      "type": "function"
    }
  ],
  "bytecode": "0x608060405234801561001057600080fd5b50606460008190555033600160006101000a81548173ffffffffffffffffffffffffffffffffffffffff021916908373ffffffffffffffffffffffffffffffffffffffff160217905550600054600260003373ffffffffffffffffffffffffffffffffffffffff1673ffffffffffffffffffffffffffffffffffffffff16815260200190815260200160002081905550600060038190555060006004819055506000600581905550600060068190555060006007819055506000600881905550613069806100df6000396000f3fe608060405234801561001057600080fd5b50600436106101165760003560e01c80639b96eece116100a2578063ce2cafb011610071578063ce2cafb0146102dd578063d2e3ada5146102f9578063e6ba4be914610315578063ec32dbcc14610347578063f4b75ffb1461036557610116565b80639b96eece14610243578063a31662d214610273578063be9293c614610291578063beabacc8146102ad57610116565b8063480daedd116100e9578063480daedd146101a15780635da131f7146101bf5780635e4e6e88146101db5780636e1d80d7146101f7578063978b3e271461022757610116565b80630421cc331461011b5780631bca04351461014d5780631bf6912d1461016957806321cc9b9e14610185575b600080fd5b610135600480360381019061013091906122e1565b610381565b60405161014493929190612c0a565b60405180910390f35b6101676004803603810190610162919061249d565b61051f565b005b610183600480360381019061017e9190612548565b61082f565b005b61019f600480360381019061019a9190612406565b6108e2565b005b6101a9610aff565b6040516101b69190612b4c565b60405180910390f35b6101d960048036038101906101d49190612548565b610dd5565b005b6101f560048036038101906101f0919061239a565b610de1565b005b610211600480360381019061020c9190612548565b610e7e565b60405161021e9190612b90565b60405180910390f35b610241600480360381019061023c919061239a565b6110e2565b005b61025d600480360381019061025891906122e1565b61117f565b60405161026a9190612bef565b60405180910390f35b61027b611191565b6040516102889190612bb2565b60405180910390f35b6102ab60048036038101906102a69190612571565b6114b9565b005b6102c760048036038101906102c2919061230a565b6115d8565b6040516102d49190612bd4565b60405180910390f35b6102f760048036038101906102f29190612359565b6115ee565b005b610313600480360381019061030e9190612601565b61189b565b005b61032f600480360381019061032a91906122e1565b611a20565b60405161033e93929190612c0a565b60405180910390f35b61034f611bbe565b60405161035c9190612b6e565b60405180910390f35b61037f600480360381019061037a91906125ad565b611de1565b005b60006060806000600960008673ffffffffffffffffffffffffffffffffffffffff1673ffffffffffffffffffffffffffffffffffffffff168152602001908152602001600020604051806060016040529081600082015481526020016001820180546103ec90612ed5565b80601f016020809104026020016040519081016040528092919081815260200182805461041890612ed5565b80156104655780601f1061043a57610100808354040283529160200191610465565b820191906000526020600020905b81548152906001019060200180831161044857829003601f168201915b5050505050815260200160028201805461047e90612ed5565b80601f01602080910402602001604051908101604052809291908181526020018280546104aa90612ed5565b80156104f75780601f106104cc576101008083540402835291602001916104f7565b820191906000526020600020905b8154815290600101906020018083116104da57829003601f168201915b5050505050815250509050806000015181602001518260400151935093509350509193909250565b6007600081548092919061053290612f07565b919050555061053f612098565b60075481600001818152505042816060018181525050848160200181905250838160400181905250828160a001819052506000816080019015159081151581525050818160c001901515908115158152505060008160e0019015159081151581525050336011600060016007546105b69190612e17565b815260200190815260200160002060006101000a81548173ffffffffffffffffffffffffffffffffffffffff021916908373ffffffffffffffffffffffffffffffffffffffff160217905550601260003373ffffffffffffffffffffffffffffffffffffffff1673ffffffffffffffffffffffffffffffffffffffff1681526020019081526020016000208190806001815401808255809150506001900390600052602060002090600702016000909190919091506000820151816000015560208201518160010190805190602001906106919291906120e3565b5060408201518160020190805190602001906106ae9291906120e3565b506060820151816003015560808201518160040160006101000a81548160ff02191690831515021790555060a08201518160050190805190602001906106f59291906120e3565b5060c08201518160060160006101000a81548160ff02191690831515021790555060e08201518160060160016101000a81548160ff02191690831515021790555050508060136000600160075461074c9190612e17565b81526020019081526020016000206000820151816000015560208201518160010190805190602001906107809291906120e3565b50604082015181600201908051906020019061079d9291906120e3565b506060820151816003015560808201518160040160006101000a81548160ff02191690831515021790555060a08201518160050190805190602001906107e49291906120e3565b5060c08201518160060160006101000a81548160ff02191690831515021790555060e08201518160060160016101000a81548160ff0219169083151502179055509050505050505050565b60016013600083815260200190815260200160002060060160016101000a81548160ff021916908315150217905550336014600083815260200190815260200160002060006101000a81548173ffffffffffffffffffffffffffffffffffffffff021916908373ffffffffffffffffffffffffffffffffffffffff1602179055506108de33600160009054906101000a900473ffffffffffffffffffffffffffffffffffffffff166001611f14565b5050565b600660008154809291906108f590612f07565b9190505550610902612169565b6006548160000181815250504281606001818152505083816020018190525082816040018190525081816080018190525033600e600060016006546109479190612e17565b815260200190815260200160002060006101000a81548173ffffffffffffffffffffffffffffffffffffffff021916908373ffffffffffffffffffffffffffffffffffffffff160217905550600f60003373ffffffffffffffffffffffffffffffffffffffff1673ffffffffffffffffffffffffffffffffffffffff168152602001908152602001600020819080600181540180825580915050600190039060005260206000209060050201600090919091909150600082015181600001556020820151816001019080519060200190610a229291906120e3565b506040820151816002019080519060200190610a3f9291906120e3565b50606082015181600301556080820151816004019080519060200190610a669291906120e3565b50505080601060006001600654610a7d9190612e17565b8152602001908152602001600020600082015181600001556020820151816001019080519060200190610ab19291906120e3565b506040820151816002019080519060200190610ace9291906120e3565b50606082015181600301556080820151816004019080519060200190610af59291906120e3565b5090505050505050565b6060600060065467ffffffffffffffff811115610b45577f4e487b7100000000000000000000000000000000000000000000000000000000600052604160045260246000fd5b604051908082528060200260200182016040528015610b7e57816020015b610b6b612169565b815260200190600190039081610b635790505b50905060005b600654811015610dcd57601060008281526020019081526020016000206040518060a001604052908160008201548152602001600182018054610bc690612ed5565b80601f0160208091040260200160405190810160405280929190818152602001828054610bf290612ed5565b8015610c3f5780601f10610c1457610100808354040283529160200191610c3f565b820191906000526020600020905b815481529060010190602001808311610c2257829003601f168201915b50505050508152602001600282018054610c5890612ed5565b80601f0160208091040260200160405190810160405280929190818152602001828054610c8490612ed5565b8015610cd15780601f10610ca657610100808354040283529160200191610cd1565b820191906000526020600020905b815481529060010190602001808311610cb457829003601f168201915b5050505050815260200160038201548152602001600482018054610cf490612ed5565b80601f0160208091040260200160405190810160405280929190818152602001828054610d2090612ed5565b8015610d6d5780601f10610d4257610100808354040283529160200191610d6d565b820191906000526020600020905b815481529060010190602001808311610d5057829003601f168201915b505050505081525050828281518110610daf577f4e487b7100000000000000000000000000000000000000000000000000000000600052603260045260246000fd5b60200260200101819052508080610dc590612f07565b915050610b84565b508091505090565b610dde8161201d565b50565b60036000815480929190610df490612f07565b91905055506000600960003373ffffffffffffffffffffffffffffffffffffffff1673ffffffffffffffffffffffffffffffffffffffff1681526020019081526020016000209050600354816000018190555082816001019080519060200190610e5f9291906120e3565b5081816002019080519060200190610e789291906120e3565b50505050565b6060600060085467ffffffffffffffff811115610ec4577f4e487b7100000000000000000000000000000000000000000000000000000000600052604160045260246000fd5b604051908082528060200260200182016040528015610efd57816020015b610eea612198565b815260200190600190039081610ee25790505b50905060005b60156000858152602001908152602001600020805490508110156110d857601560008581526020019081526020016000208181548110610f6c577f4e487b7100000000000000000000000000000000000000000000000000000000600052603260045260246000fd5b906000526020600020906004020160405180608001604052908160008201548152602001600182018054610f9f90612ed5565b80601f0160208091040260200160405190810160405280929190818152602001828054610fcb90612ed5565b80156110185780601f10610fed57610100808354040283529160200191611018565b820191906000526020600020905b815481529060010190602001808311610ffb57829003601f168201915b50505050508152602001600282015481526020016003820160009054906101000a900473ffffffffffffffffffffffffffffffffffffffff1673ffffffffffffffffffffffffffffffffffffffff1673ffffffffffffffffffffffffffffffffffffffff16815250508282815181106110ba577f4e487b7100000000000000000000000000000000000000000000000000000000600052603260045260246000fd5b602002602001018190525080806110d090612f07565b915050610f03565b5080915050919050565b600460008154809291906110f590612f07565b91905055506000600a60003373ffffffffffffffffffffffffffffffffffffffff1673ffffffffffffffffffffffffffffffffffffffff16815260200190815260200160002090506004548160000181905550828160010190805190602001906111609291906120e3565b50818160020190805190602001906111799291906120e3565b50505050565b600061118a8261204f565b9050919050565b6060600060075467ffffffffffffffff8111156111d7577f4e487b7100000000000000000000000000000000000000000000000000000000600052604160045260246000fd5b60405190808252806020026020018201604052801561121057816020015b6111fd612098565b8152602001906001900390816111f55790505b50905060005b6007548110156114b15760136000828152602001908152602001600020604051806101000160405290816000820154815260200160018201805461125990612ed5565b80601f016020809104026020016040519081016040528092919081815260200182805461128590612ed5565b80156112d25780601f106112a7576101008083540402835291602001916112d2565b820191906000526020600020905b8154815290600101906020018083116112b557829003601f168201915b505050505081526020016002820180546112eb90612ed5565b80601f016020809104026020016040519081016040528092919081815260200182805461131790612ed5565b80156113645780601f1061133957610100808354040283529160200191611364565b820191906000526020600020905b81548152906001019060200180831161134757829003601f168201915b50505050508152602001600382015481526020016004820160009054906101000a900460ff161515151581526020016005820180546113a290612ed5565b80601f01602080910402602001604051908101604052809291908181526020018280546113ce90612ed5565b801561141b5780601f106113f05761010080835404028352916020019161141b565b820191906000526020600020905b8154815290600101906020018083116113fe57829003601f168201915b505050505081526020016006820160009054906101000a900460ff161515151581526020016006820160019054906101000a900460ff161515151581525050828281518110611493577f4e487b7100000000000000000000000000000000000000000000000000000000600052603260045260246000fd5b602002602001018190525080806114a990612f07565b915050611216565b508091505090565b80600d600084815260200190815260200160002060030160006101000a81548160ff02191690831515021790555033600d600084815260200190815260200160002060010160006101000a81548173ffffffffffffffffffffffffffffffffffffffff021916908373ffffffffffffffffffffffffffffffffffffffff16021790555061156a600160009054906101000a900473ffffffffffffffffffffffffffffffffffffffff16336001611f14565b5080156115d4576115d2600160009054906101000a900473ffffffffffffffffffffffffffffffffffffffff16600b600085815260200190815260200160002060009054906101000a900473ffffffffffffffffffffffffffffffffffffffff166001611f14565b505b5050565b60006115e5848484611f14565b90509392505050565b6005600081548092919061160190612f07565b919050555033600b6000600160055461161a9190612e17565b815260200190815260200160002060006101000a81548173ffffffffffffffffffffffffffffffffffffffff021916908373ffffffffffffffffffffffffffffffffffffffff16021790555061166e6121d6565b6005548160000181815250506000816020019073ffffffffffffffffffffffffffffffffffffffff16908173ffffffffffffffffffffffffffffffffffffffff1681525050428160800181815250508181604001819052506000816060019015159081151581525050600c60003373ffffffffffffffffffffffffffffffffffffffff1673ffffffffffffffffffffffffffffffffffffffff1681526020019081526020016000208190806001815401808255809150506001900390600052602060002090600502016000909190919091506000820151816000015560208201518160010160006101000a81548173ffffffffffffffffffffffffffffffffffffffff021916908373ffffffffffffffffffffffffffffffffffffffff16021790555060408201518160020190805190602001906117ad9291906120e3565b5060608201518160030160006101000a81548160ff02191690831515021790555060808201518160040155505080600d600060016005546117ee9190612e17565b81526020019081526020016000206000820151816000015560208201518160010160006101000a81548173ffffffffffffffffffffffffffffffffffffffff021916908373ffffffffffffffffffffffffffffffffffffffff16021790555060408201518160020190805190602001906118699291906120e3565b5060608201518160030160006101000a81548160ff021916908315150217905550608082015181600401559050505050565b8015611a115760016013600085815260200190815260200160002060040160006101000a81548160ff0219169083151502179055506013600084815260200190815260200160002060060160009054906101000a900460ff16156119605761195a600160009054906101000a900473ffffffffffffffffffffffffffffffffffffffff166014600086815260200190815260200160002060009054906101000a900473ffffffffffffffffffffffffffffffffffffffff166002611f14565b50611a0c565b611a0a600160009054906101000a900473ffffffffffffffffffffffffffffffffffffffff166015600086815260200190815260200160002084815481106119d1577f4e487b7100000000000000000000000000000000000000000000000000000000600052603260045260246000fd5b906000526020600020906004020160030160009054906101000a900473ffffffffffffffffffffffffffffffffffffffff166001611f14565b505b611a1b565b611a1a8361201d565b5b505050565b60006060806000600a60008673ffffffffffffffffffffffffffffffffffffffff1673ffffffffffffffffffffffffffffffffffffffff16815260200190815260200160002060405180606001604052908160008201548152602001600182018054611a8b90612ed5565b80601f0160208091040260200160405190810160405280929190818152602001828054611ab790612ed5565b8015611b045780601f10611ad957610100808354040283529160200191611b04565b820191906000526020600020905b815481529060010190602001808311611ae757829003601f168201915b50505050508152602001600282018054611b1d90612ed5565b80601f0160208091040260200160405190810160405280929190818152602001828054611b4990612ed5565b8015611b965780601f10611b6b57610100808354040283529160200191611b96565b820191906000526020600020905b815481529060010190602001808311611b7957829003601f168201915b5050505050815250509050806000015181602001518260400151935093509350509193909250565b6060600060055467ffffffffffffffff811115611c04577f4e487b7100000000000000000000000000000000000000000000000000000000600052604160045260246000fd5b604051908082528060200260200182016040528015611c3d57816020015b611c2a6121d6565b815260200190600190039081611c225790505b50905060005b600554811015611dd957600d60008281526020019081526020016000206040518060a0016040529081600082015481526020016001820160009054906101000a900473ffffffffffffffffffffffffffffffffffffffff1673ffffffffffffffffffffffffffffffffffffffff1673ffffffffffffffffffffffffffffffffffffffff168152602001600282018054611cdb90612ed5565b80601f0160208091040260200160405190810160405280929190818152602001828054611d0790612ed5565b8015611d545780601f10611d2957610100808354040283529160200191611d54565b820191906000526020600020905b815481529060010190602001808311611d3757829003601f168201915b505050505081526020016003820160009054906101000a900460ff16151515158152602001600482015481525050828281518110611dbb577f4e487b7100000000000000000000000000000000000000000000000000000000600052603260045260246000fd5b60200260200101819052508080611dd190612f07565b915050611c43565b508091505090565b60086000815480929190611df490612f07565b9190505550611e01612198565b6008548160000181815250508181602001819052504281604001818152505033816060019073ffffffffffffffffffffffffffffffffffffffff16908173ffffffffffffffffffffffffffffffffffffffff168152505060156000848152602001908152602001600020819080600181540180825580915050600190039060005260206000209060040201600090919091909150600082015181600001556020820151816001019080519060200190611ebb9291906120e3565b506040820151816002015560608201518160030160006101000a81548173ffffffffffffffffffffffffffffffffffffffff021916908373ffffffffffffffffffffffffffffffffffffffff1602179055505050505050565b6000806000905082600260008773ffffffffffffffffffffffffffffffffffffffff1673ffffffffffffffffffffffffffffffffffffffff16815260200190815260200160002054106120125782600260008773ffffffffffffffffffffffffffffffffffffffff1673ffffffffffffffffffffffffffffffffffffffff1681526020019081526020016000206000828254611fb09190612e17565b9250508190555082600260008673ffffffffffffffffffffffffffffffffffffffff1673ffffffffffffffffffffffffffffffffffffffff16815260200190815260200160002060008282546120069190612dc1565b92505081905550600190505b809150509392505050565b60006013600083815260200190815260200160002060060160016101000a81548160ff02191690831515021790555050565b6000600260008373ffffffffffffffffffffffffffffffffffffffff1673ffffffffffffffffffffffffffffffffffffffff168152602001908152602001600020549050919050565b60405180610100016040528060008152602001606081526020016060815260200160008152602001600015158152602001606081526020016000151581526020016000151581525090565b8280546120ef90612ed5565b90600052602060002090601f0160209004810192826121115760008555612158565b82601f1061212a57805160ff1916838001178555612158565b82800160010185558215612158579182015b8281111561215757825182559160200191906001019061213c565b5b509050612165919061221d565b5090565b6040518060a0016040528060008152602001606081526020016060815260200160008152602001606081525090565b6040518060800160405280600081526020016060815260200160008152602001600073ffffffffffffffffffffffffffffffffffffffff1681525090565b6040518060a0016040528060008152602001600073ffffffffffffffffffffffffffffffffffffffff16815260200160608152602001600015158152602001600081525090565b5b8082111561223657600081600090555060010161221e565b5090565b600061224d61224884612c80565b612c4f565b90508281526020810184848401111561226557600080fd5b612270848285612e93565b509392505050565b60008135905061228781612fee565b92915050565b60008135905061229c81613005565b92915050565b600082601f8301126122b357600080fd5b81356122c384826020860161223a565b91505092915050565b6000813590506122db8161301c565b92915050565b6000602082840312156122f357600080fd5b600061230184828501612278565b91505092915050565b60008060006060848603121561231f57600080fd5b600061232d86828701612278565b935050602061233e86828701612278565b925050604061234f868287016122cc565b9150509250925092565b60006020828403121561236b57600080fd5b600082013567ffffffffffffffff81111561238557600080fd5b612391848285016122a2565b91505092915050565b600080604083850312156123ad57600080fd5b600083013567ffffffffffffffff8111156123c757600080fd5b6123d3858286016122a2565b925050602083013567ffffffffffffffff8111156123f057600080fd5b6123fc858286016122a2565b9150509250929050565b60008060006060848603121561241b57600080fd5b600084013567ffffffffffffffff81111561243557600080fd5b612441868287016122a2565b935050602084013567ffffffffffffffff81111561245e57600080fd5b61246a868287016122a2565b925050604084013567ffffffffffffffff81111561248757600080fd5b612493868287016122a2565b9150509250925092565b600080600080608085870312156124b357600080fd5b600085013567ffffffffffffffff8111156124cd57600080fd5b6124d9878288016122a2565b945050602085013567ffffffffffffffff8111156124f657600080fd5b612502878288016122a2565b935050604085013567ffffffffffffffff81111561251f57600080fd5b61252b878288016122a2565b925050606061253c8782880161228d565b91505092959194509250565b60006020828403121561255a57600080fd5b6000612568848285016122cc565b91505092915050565b6000806040838503121561258457600080fd5b6000612592858286016122cc565b92505060206125a38582860161228d565b9150509250929050565b600080604083850312156125c057600080fd5b60006125ce858286016122cc565b925050602083013567ffffffffffffffff8111156125eb57600080fd5b6125f7858286016122a2565b9150509250929050565b60008060006060848603121561261657600080fd5b6000612624868287016122cc565b9350506020612635868287016122cc565b92505060406126468682870161228d565b9150509250925092565b600061265c8383612913565b905092915050565b60006126708383612997565b905092915050565b60006126848383612a0d565b905092915050565b60006126988383612a70565b905092915050565b6126a981612e4b565b82525050565b60006126ba82612cf0565b6126c48185612d5b565b9350836020820285016126d685612cb0565b8060005b8581101561271257848403895281516126f38582612650565b94506126fe83612d27565b925060208a019950506001810190506126da565b50829750879550505050505092915050565b600061272f82612cfb565b6127398185612d6c565b93508360208202850161274b85612cc0565b8060005b8581101561278757848403895281516127688582612664565b945061277383612d34565b925060208a0199505060018101905061274f565b50829750879550505050505092915050565b60006127a482612d06565b6127ae8185612d7d565b9350836020820285016127c085612cd0565b8060005b858110156127fc57848403895281516127dd8582612678565b94506127e883612d41565b925060208a019950506001810190506127c4565b50829750879550505050505092915050565b600061281982612d11565b6128238185612d8e565b93508360208202850161283585612ce0565b8060005b858110156128715784840389528151612852858261268c565b945061285d83612d4e565b925060208a01995050600181019050612839565b50829750879550505050505092915050565b61288c81612e5d565b82525050565b61289b81612e5d565b82525050565b60006128ac82612d1c565b6128b68185612d9f565b93506128c6818560208601612ea2565b6128cf81612fdd565b840191505092915050565b60006128e582612d1c565b6128ef8185612db0565b93506128ff818560208601612ea2565b61290881612fdd565b840191505092915050565b600060a08301600083015161292b6000860182612b2e565b506020830151848203602086015261294382826128a1565b9150506040830151848203604086015261295d82826128a1565b91505060608301516129726060860182612b2e565b506080830151848203608086015261298a82826128a1565b9150508091505092915050565b600060a0830160008301516129af6000860182612b2e565b5060208301516129c260208601826126a0565b50604083015184820360408601526129da82826128a1565b91505060608301516129ef6060860182612883565b506080830151612a026080860182612b2e565b508091505092915050565b6000608083016000830151612a256000860182612b2e565b5060208301518482036020860152612a3d82826128a1565b9150506040830151612a526040860182612b2e565b506060830151612a6560608601826126a0565b508091505092915050565b600061010083016000830151612a896000860182612b2e565b5060208301518482036020860152612aa182826128a1565b91505060408301518482036040860152612abb82826128a1565b9150506060830151612ad06060860182612b2e565b506080830151612ae36080860182612883565b5060a083015184820360a0860152612afb82826128a1565b91505060c0830151612b1060c0860182612883565b5060e0830151612b2360e0860182612883565b508091505092915050565b612b3781612e89565b82525050565b612b4681612e89565b82525050565b60006020820190508181036000830152612b6681846126af565b905092915050565b60006020820190508181036000830152612b888184612724565b905092915050565b60006020820190508181036000830152612baa8184612799565b905092915050565b60006020820190508181036000830152612bcc818461280e565b905092915050565b6000602082019050612be96000830184612892565b92915050565b6000602082019050612c046000830184612b3d565b92915050565b6000606082019050612c1f6000830186612b3d565b8181036020830152612c3181856128da565b90508181036040830152612c4581846128da565b9050949350505050565b6000604051905081810181811067ffffffffffffffff82111715612c7657612c75612fae565b5b8060405250919050565b600067ffffffffffffffff821115612c9b57612c9a612fae565b5b601f19601f8301169050602081019050919050565b6000819050602082019050919050565b6000819050602082019050919050565b6000819050602082019050919050565b6000819050602082019050919050565b600081519050919050565b600081519050919050565b600081519050919050565b600081519050919050565b600081519050919050565b6000602082019050919050565b6000602082019050919050565b6000602082019050919050565b6000602082019050919050565b600082825260208201905092915050565b600082825260208201905092915050565b600082825260208201905092915050565b600082825260208201905092915050565b600082825260208201905092915050565b600082825260208201905092915050565b6000612dcc82612e89565b9150612dd783612e89565b9250827fffffffffffffffffffffffffffffffffffffffffffffffffffffffffffffffff03821115612e0c57612e0b612f50565b5b828201905092915050565b6000612e2282612e89565b9150612e2d83612e89565b925082821015612e4057612e3f612f50565b5b828203905092915050565b6000612e5682612e69565b9050919050565b60008115159050919050565b600073ffffffffffffffffffffffffffffffffffffffff82169050919050565b6000819050919050565b82818337600083830152505050565b60005b83811015612ec0578082015181840152602081019050612ea5565b83811115612ecf576000848401525b50505050565b60006002820490506001821680612eed57607f821691505b60208210811415612f0157612f00612f7f565b5b50919050565b6000612f1282612e89565b91507fffffffffffffffffffffffffffffffffffffffffffffffffffffffffffffffff821415612f4557612f44612f50565b5b600182019050919050565b7f4e487b7100000000000000000000000000000000000000000000000000000000600052601160045260246000fd5b7f4e487b7100000000000000000000000000000000000000000000000000000000600052602260045260246000fd5b7f4e487b7100000000000000000000000000000000000000000000000000000000600052604160045260246000fd5b6000601f19601f8301169050919050565b612ff781612e4b565b811461300257600080fd5b50565b61300e81612e5d565b811461301957600080fd5b50565b61302581612e89565b811461303057600080fd5b5056fea264697066735822122076c54604e1ea69d7a2ee919230434b065f5fe641d967f5d361e3007881e1e3db64736f6c63430008000033",
  "immutableReferences": {},
  "source": "//  \n// \n\n// SPDX-License-Identifier: MIT\npragma solidity >=0.4.21 <0.9.0;\n\nimport \"./erc20.sol\";\n// interface \ncontract AntiFraud {\n    // ERC20\n    // \n    //  -> \n    // \n    uint256 totalCredit;\n    // \n    address administrator;\n    // \n    mapping(address => uint) balanceOf;\n    //  -> id\n    uint policeIndex;\n    //  -> id\n    uint civilIndex;\n    //  -> id\n    uint screenshotIndex;\n    //  -> id\n    uint caseIndex;\n    //  -> id\n    uint taskIndex;\n    //  -> id\n    uint taskAnswerIndex;\n\n    constructor() {\n        totalCredit = 100;\n        // Soliditymsg.sender\n        administrator = msg.sender;\n        // \n        balanceOf[msg.sender] = totalCredit;\n        // 0\n        policeIndex = 0;\n        civilIndex = 0;\n        screenshotIndex = 0;\n        caseIndex = 0;\n        taskIndex = 0;\n        taskAnswerIndex= 0;\n    }\n    // get\n    function _getBalanceOf(address _userAdd) internal view returns (uint) {\n        return (balanceOf[_userAdd]);\n    }\n    function getBalanceOf(address _userAdd) external view returns (uint) {\n        return _getBalanceOf(_userAdd);\n    }\n    // \n    function _transfer(address _from, address _to, uint _val) internal returns (bool) {\n        bool success = false;\n        if (balanceOf[_from] >= _val) {\n            balanceOf[_from] -= _val;\n            balanceOf[_to] += _val;\n            success = true;\n        }\n        return success;\n    }\n    function transfer(address _from, address _to, uint _val) external returns (bool) {\n        return _transfer(_from, _to, _val);\n    }\n    // // get\n    // function getBalanceOf(address _contractAdd, address _userAdd) external view returns (uint) {\n    //     return ERC20Basic(_contractAdd).balanceOf(_userAdd);\n    // }\n    // // \n    // function creditApprove(address _contractAdd, address _approver, uint _val) external {\n    //     ERC20Basic(_contractAdd).approve(_approver, _val);\n    // }\n    // // \n    // function creditTransfer(address _contractAdd, address _reciver, uint _val) external returns (bool) {\n    //     return ERC20Basic(_contractAdd).transfer(_reciver, _val);\n    // }\n    // // call\n    // function callTransfer(address _contractAdd) external {\n    //     (bool success) = _contractAdd.call(\n    //         abi.encodeWithSignature(\n    //             \"transfer(address,uint256)\", 0xF58E5Fdda92689241C6114b9746AEE529fB7671C, 1 \n    //         )\n    //     );\n    //     require(success, \"failed\");\n    // }\n    // \n    struct Police {\n        // id\n        uint id;\n        // \n        string name;\n        // TODO \n        string avatarLink;\n    }\n    // \n    // mapping(uint => address) policeIdToAddress;\n    // \n    mapping(address => Police) policeList;\n    // get\n    function getPoliceUser(address _policeUserAddress) external view returns (uint, string memory, string memory) {\n        Police memory police = policeList[_policeUserAddress];\n        return (police.id, police.name, police.avatarLink);\n    }\n    // \n    function createPoliceUser(string memory _name, string memory _avatarLink) external {\n        // \n        policeIndex++;\n        // \n        Police storage police = policeList[msg.sender];\n        // id\n        police.id = policeIndex;\n        // \n        police.name = _name;\n        // \n        police.avatarLink = _avatarLink;\n    }\n    // \n    struct Civil {\n        // id\n        uint id;\n        // \n        string name;\n        // TODO \n        string avatarLink;\n    }\n    // \n    mapping(address => Civil) civilList;\n    // get\n    function getCivilUser(address _civilUserAddress) external view returns (uint, string memory, string memory) {\n        Civil memory civil = civilList[_civilUserAddress];\n        return (civil.id, civil.name, civil.avatarLink); \n    }\n    // \n    function createCivilUser(string memory _name, string memory _avatarLink) external {\n        // \n        civilIndex++;\n        // \n        Civil storage civil = civilList[msg.sender];\n        // id\n        civil.id = civilIndex;\n        // \n        civil.name = _name;\n        // \n        civil.avatarLink = _avatarLink;\n    }\n    // \n    //  \n    struct FraudScreenshot {\n        // id\n        uint id;\n        // \n        address auditPoliceUser;\n        // ipfs\n        string screenshotLink;\n        // \n        bool isValid;\n        // \n        uint postTime;\n    }\n    // (id)\n    mapping(uint => address) screenshotIdToPostCivilUser;\n    // \n    mapping(address => FraudScreenshot[]) screenshotList;\n    // \n    mapping(uint => FraudScreenshot) allSList;\n    // \n    function postScreenshot(string memory _screenshotLink) external {\n        // \n        screenshotIndex++;\n        // \n        screenshotIdToPostCivilUser[screenshotIndex - 1] = msg.sender;\n        \n        FraudScreenshot memory fraudScreenshot;\n        // id\n        fraudScreenshot.id = screenshotIndex;           \n        // \n        fraudScreenshot.auditPoliceUser = address(0);\n        //  \n        fraudScreenshot.postTime = block.timestamp;\n        //    \n        fraudScreenshot.screenshotLink = _screenshotLink; \n        //   \n        fraudScreenshot.isValid = false;\n        // \n        screenshotList[msg.sender].push(fraudScreenshot);\n        // \n        allSList[screenshotIndex - 1] = fraudScreenshot;\n    }\n    // get\n    function getScreenshotList() external view returns (FraudScreenshot[] memory) {\n        // \n        FraudScreenshot[] memory _List = new FraudScreenshot[](screenshotIndex);\n        // //  \n        // FraudScreenshot memory screenshot;\n        // address _address;\n        // // TODO i < address \n        // // address = 1\n        // for (uint i = 0; i < 1; i++) {\n        //     _address = screenshotIdToPostCivilUser[i];\n        //     for (uint j = 0; j < screenshotList[_address].length; j++) {\n        //         screenshot = screenshotList[_address][j];\n        //         _List[j] = screenshot;\n        //     }\n        // }\n        for (uint i = 0; i < screenshotIndex; i++) {\n            _List[i] = allSList[i];\n        }\n        return (_List);\n    }\n    // \n    function auditScreenshot(uint _screenshotIndex, bool _isVaild) external {\n        // \n        allSList[_screenshotIndex].isValid = _isVaild;\n        // \n        allSList[_screenshotIndex].auditPoliceUser = msg.sender;\n        // \n        _transfer(administrator, msg.sender, 1);\n        //  \n        if (_isVaild) {  \n            _transfer(administrator, screenshotIdToPostCivilUser[_screenshotIndex], 1);\n        }\n    }\n    // \n    //  \n    struct FraudCase {\n        // id\n        uint id;\n        // \n        string title;\n        // TODO \n        \n        // \n        string description;\n        // \n        uint postTime;\n        // ipfs\n        string caseImageLink;\n    }\n    // (id)\n    mapping(uint => address) caseIdToPostPoliceUser;\n    // \n    mapping(address => FraudCase[]) caseList;\n    // \n    mapping(uint => FraudCase) allCaseList;\n    //  -> \n    function postCase(string memory _title, string memory _description, string memory _caseImageLink) external {\n        // \n        caseIndex++;\n        // \n        FraudCase memory fraudCase;\n        // id\n        fraudCase.id = caseIndex;\n        // \n        fraudCase.postTime = block.timestamp;\n        fraudCase.title = _title;\n        fraudCase.description = _description;\n        // \n        fraudCase.caseImageLink = _caseImageLink;\n        // \n        caseIdToPostPoliceUser[caseIndex - 1] = msg.sender;\n        // \n        caseList[msg.sender].push(fraudCase);\n        // \n        allCaseList[caseIndex - 1] = fraudCase;\n        // // \n        // credit.transferFrom(administrator, msg.sender, 1);\n    } \n    // get\n    function getCase() external view returns (FraudCase[] memory) {\n            FraudCase[] memory _List = new FraudCase[](caseIndex);\n            for (uint i = 0; i < caseIndex; i++) {\n                _List[i] = allCaseList[i];\n            }\n            return (_List);\n    }\n    // \n    //  \n    struct Task {\n        // id\n        uint id;\n        // \n        string title;\n        // \n        string description;\n        // \n        uint postTime;\n        // \n        bool isSolved;\n        // ipfs\n        string taskImageLink;\n        // true false\n        bool isAnswerInRush;\n        // \n        bool isAccept;\n    }\n    // (id)\n    mapping(uint => address) taskIdToPostPoliceUser; \n    // \n    mapping(address => Task[]) taskList;\n    // \n    mapping(uint => Task) allTaskList;\n    //  -> \n    // 1.  \n    // 2.  \n    function postTask(string memory _title, string memory _description, string memory _taskImageLink, bool _isAnswerInRush) external {\n        // \n        taskIndex++;\n        // \n        Task memory task;\n        // \n        task.id = taskIndex;\n        // \n        task.postTime = block.timestamp;\n        task.title = _title;\n        task.description = _description;\n        // \n        task.taskImageLink = _taskImageLink;\n        // \n        task.isSolved = false;\n        // \n        task.isAnswerInRush = _isAnswerInRush;\n        // \n        task.isAccept = false;\n        // \n        taskIdToPostPoliceUser[taskIndex - 1] = msg.sender;\n        // \n        taskList[msg.sender].push(task);\n        // \n        allTaskList[taskIndex - 1] = task;\n    }\n    // get\n    function getTask() external view returns (Task[] memory) {\n            Task[] memory _List = new Task[](taskIndex);\n            for (uint i = 0; i < taskIndex; i++) {\n                _List[i] = allTaskList[i];\n            }\n            return (_List);\n    } \n    // id\n    mapping(uint => address) taskIdToAnswerRusher;\n    // \n    function acceptTask(uint _taskIndex) external {\n        // taskList[taskIdToPostPoliceUser[_taskIndex]].isAnswerInRush = true;\n        allTaskList[_taskIndex].isAccept = true;\n        // \n        taskIdToAnswerRusher[_taskIndex] = msg.sender;\n        // \n        _transfer(msg.sender, administrator, 1);\n    }\n    // \n    struct TaskAnswer {\n        // id\n        uint id;\n        // \n        string detail;\n        // \n        uint postTime;\n        // \n        address answerAddress;\n    }\n    // (id)\n    mapping (uint => TaskAnswer[]) answerList;\n    // \n    function postTaskAnswer(uint _taskIndex, string memory _detail) external {\n        // \n        taskAnswerIndex++;\n        // \n        TaskAnswer memory answer;\n        // id\n        answer.id = taskAnswerIndex;\n        // \n        answer.detail = _detail;\n        // \n        answer.postTime = block.timestamp;\n        // \n        answer.answerAddress = msg.sender;\n        // \n        answerList[_taskIndex].push(answer);\n    }\n    // get\n    function getThisTaskAnswer(uint _taskIndex) external view returns (TaskAnswer[] memory) {\n        TaskAnswer[] memory _List = new TaskAnswer[](taskAnswerIndex);\n        for (uint i = 0; i < answerList[_taskIndex].length; i++) {\n            _List[i] = answerList[_taskIndex][i];\n        }\n        return _List;\n    }\n    // \n    // \n    function _taskFailed(uint _taskIndex) internal {\n        // \n        // taskList[msg.sender]\n        allTaskList[_taskIndex].isAccept = false;\n    }\n    // \n    function taskFailed(uint _taskIndex) external {\n        _taskFailed(_taskIndex);\n    }\n    //  \n    function taskCompelte(uint _taskIndex, uint _answerIndex, bool _isAdopt) external {\n        if (_isAdopt) {\n            allTaskList[_taskIndex].isSolved = true;\n            if (allTaskList[_taskIndex].isAnswerInRush) {\n                // +\n                _transfer(administrator, taskIdToAnswerRusher[_taskIndex], 2);\n            } else {\n                // \n                _transfer(administrator, answerList[_taskIndex][_answerIndex].answerAddress, 1);\n            }\n        } else {\n            _taskFailed(_taskIndex);\n        }\n    }\n}\n",
  "sourcePath": "/Users/peggy_wang/Desktop/workSpace/AntiFraud/contracts/AntiFraud.sol",
  "compiler": {
    "name": "solc",
    "version": "0.8.0+commit.c7dfd78e.Emscripten.clang"
  },
  "schemaVersion": "3.4.6",
  "updatedAt": "2022-04-13T05:48:11.342Z",
  "networkType": "ethereum",
  "devdoc": {
    "kind": "dev",
    "methods": {},
    "version": 1
  },
  "userdoc": {
    "kind": "user",
    "methods": {},
    "version": 1
  }
}