{
  "contractName": "AntiFraud",
  "abi": [
    {
      "inputs": [],
      "stateMutability": "nonpayable",
      "type": "constructor"
    },
    {
      "inputs": [
        {
          "internalType": "address",
          "name": "_userAdd",
          "type": "address"
        }
      ],
      "name": "getBalanceOf",
      "outputs": [
        {
          "internalType": "uint256",
          "name": "",
          "type": "uint256"
        }
      ],
      "stateMutability": "view",
      "type": "function"
    },
    {
      "inputs": [
        {
          "internalType": "address",
          "name": "_from",
          "type": "address"
        },
        {
          "internalType": "address",
          "name": "_to",
          "type": "address"
        },
        {
          "internalType": "uint256",
          "name": "_val",
          "type": "uint256"
        }
      ],
      "name": "transfer",
      "outputs": [
        {
          "internalType": "bool",
          "name": "",
          "type": "bool"
        }
      ],
      "stateMutability": "nonpayable",
      "type": "function"
    },
    {
      "inputs": [
        {
          "internalType": "address",
          "name": "_policeUserAddress",
          "type": "address"
        }
      ],
      "name": "getPoliceUser",
      "outputs": [
        {
          "internalType": "uint256",
          "name": "",
          "type": "uint256"
        },
        {
          "internalType": "string",
          "name": "",
          "type": "string"
        },
        {
          "internalType": "string",
          "name": "",
          "type": "string"
        }
      ],
      "stateMutability": "view",
      "type": "function"
    },
    {
      "inputs": [
        {
          "internalType": "string",
          "name": "_name",
          "type": "string"
        },
        {
          "internalType": "string",
          "name": "_avatarLink",
          "type": "string"
        }
      ],
      "name": "createPoliceUser",
      "outputs": [],
      "stateMutability": "nonpayable",
      "type": "function"
    },
    {
      "inputs": [
        {
          "internalType": "address",
          "name": "_civilUserAddress",
          "type": "address"
        }
      ],
      "name": "getCivilUser",
      "outputs": [
        {
          "internalType": "uint256",
          "name": "",
          "type": "uint256"
        },
        {
          "internalType": "string",
          "name": "",
          "type": "string"
        },
        {
          "internalType": "string",
          "name": "",
          "type": "string"
        }
      ],
      "stateMutability": "view",
      "type": "function"
    },
    {
      "inputs": [
        {
          "internalType": "string",
          "name": "_name",
          "type": "string"
        },
        {
          "internalType": "string",
          "name": "_avatarLink",
          "type": "string"
        }
      ],
      "name": "createCivilUser",
      "outputs": [],
      "stateMutability": "nonpayable",
      "type": "function"
    },
    {
      "inputs": [
        {
          "internalType": "string",
          "name": "_screenshotLink",
          "type": "string"
        }
      ],
      "name": "postScreenshot",
      "outputs": [],
      "stateMutability": "nonpayable",
      "type": "function"
    },
    {
      "inputs": [],
      "name": "getScreenshotList",
      "outputs": [
        {
          "components": [
            {
              "internalType": "uint256",
              "name": "id",
              "type": "uint256"
            },
            {
              "internalType": "address",
              "name": "auditPoliceUser",
              "type": "address"
            },
            {
              "internalType": "string",
              "name": "screenshotLink",
              "type": "string"
            },
            {
              "internalType": "bool",
              "name": "isValid",
              "type": "bool"
            },
            {
              "internalType": "uint256",
              "name": "postTime",
              "type": "uint256"
            }
          ],
          "internalType": "struct AntiFraud.FraudScreenshot[]",
          "name": "",
          "type": "tuple[]"
        }
      ],
      "stateMutability": "view",
      "type": "function"
    },
    {
      "inputs": [],
      "name": "getHistoryPost",
      "outputs": [
        {
          "components": [
            {
              "internalType": "uint256",
              "name": "id",
              "type": "uint256"
            },
            {
              "internalType": "address",
              "name": "auditPoliceUser",
              "type": "address"
            },
            {
              "internalType": "string",
              "name": "screenshotLink",
              "type": "string"
            },
            {
              "internalType": "bool",
              "name": "isValid",
              "type": "bool"
            },
            {
              "internalType": "uint256",
              "name": "postTime",
              "type": "uint256"
            }
          ],
          "internalType": "struct AntiFraud.FraudScreenshot[]",
          "name": "",
          "type": "tuple[]"
        }
      ],
      "stateMutability": "view",
      "type": "function"
    },
    {
      "inputs": [],
      "name": "getHistoryAudit",
      "outputs": [
        {
          "components": [
            {
              "internalType": "uint256",
              "name": "id",
              "type": "uint256"
            },
            {
              "internalType": "address",
              "name": "auditPoliceUser",
              "type": "address"
            },
            {
              "internalType": "string",
              "name": "screenshotLink",
              "type": "string"
            },
            {
              "internalType": "bool",
              "name": "isValid",
              "type": "bool"
            },
            {
              "internalType": "uint256",
              "name": "postTime",
              "type": "uint256"
            }
          ],
          "internalType": "struct AntiFraud.FraudScreenshot[]",
          "name": "",
          "type": "tuple[]"
        }
      ],
      "stateMutability": "view",
      "type": "function"
    },
    {
      "inputs": [
        {
          "internalType": "uint256",
          "name": "_screenshotIndex",
          "type": "uint256"
        },
        {
          "internalType": "bool",
          "name": "_isVaild",
          "type": "bool"
        }
      ],
      "name": "auditScreenshot",
      "outputs": [],
      "stateMutability": "nonpayable",
      "type": "function"
    },
    {
      "inputs": [
        {
          "internalType": "string",
          "name": "_title",
          "type": "string"
        },
        {
          "internalType": "string",
          "name": "_tag",
          "type": "string"
        },
        {
          "internalType": "string",
          "name": "_description",
          "type": "string"
        },
        {
          "internalType": "string",
          "name": "_caseImageLink",
          "type": "string"
        }
      ],
      "name": "postCase",
      "outputs": [],
      "stateMutability": "nonpayable",
      "type": "function"
    },
    {
      "inputs": [],
      "name": "getCase",
      "outputs": [
        {
          "components": [
            {
              "internalType": "uint256",
              "name": "id",
              "type": "uint256"
            },
            {
              "internalType": "string",
              "name": "title",
              "type": "string"
            },
            {
              "internalType": "string",
              "name": "tag",
              "type": "string"
            },
            {
              "internalType": "string",
              "name": "description",
              "type": "string"
            },
            {
              "internalType": "uint256",
              "name": "postTime",
              "type": "uint256"
            },
            {
              "internalType": "string",
              "name": "caseImageLink",
              "type": "string"
            },
            {
              "internalType": "uint256",
              "name": "state",
              "type": "uint256"
            }
          ],
          "internalType": "struct AntiFraud.FraudCase[]",
          "name": "",
          "type": "tuple[]"
        }
      ],
      "stateMutability": "view",
      "type": "function"
    },
    {
      "inputs": [],
      "name": "getIsVoted",
      "outputs": [
        {
          "internalType": "bool",
          "name": "",
          "type": "bool"
        }
      ],
      "stateMutability": "view",
      "type": "function"
    },
    {
      "inputs": [
        {
          "internalType": "uint256",
          "name": "_caseIndex",
          "type": "uint256"
        }
      ],
      "name": "getVoteCountOf",
      "outputs": [
        {
          "internalType": "int256",
          "name": "",
          "type": "int256"
        }
      ],
      "stateMutability": "view",
      "type": "function"
    },
    {
      "inputs": [
        {
          "internalType": "uint256",
          "name": "_caseIndex",
          "type": "uint256"
        },
        {
          "internalType": "bool",
          "name": "isValid",
          "type": "bool"
        },
        {
          "internalType": "int256",
          "name": "_checkValue",
          "type": "int256"
        }
      ],
      "name": "vote",
      "outputs": [],
      "stateMutability": "nonpayable",
      "type": "function"
    },
    {
      "inputs": [
        {
          "internalType": "uint256",
          "name": "_caseIndex",
          "type": "uint256"
        },
        {
          "internalType": "bool",
          "name": "isValid",
          "type": "bool"
        }
      ],
      "name": "auditCase",
      "outputs": [],
      "stateMutability": "nonpayable",
      "type": "function"
    },
    {
      "inputs": [],
      "name": "getHistoryCaseAudit",
      "outputs": [
        {
          "components": [
            {
              "internalType": "uint256",
              "name": "id",
              "type": "uint256"
            },
            {
              "internalType": "string",
              "name": "title",
              "type": "string"
            },
            {
              "internalType": "string",
              "name": "tag",
              "type": "string"
            },
            {
              "internalType": "string",
              "name": "description",
              "type": "string"
            },
            {
              "internalType": "uint256",
              "name": "postTime",
              "type": "uint256"
            },
            {
              "internalType": "string",
              "name": "caseImageLink",
              "type": "string"
            },
            {
              "internalType": "uint256",
              "name": "state",
              "type": "uint256"
            }
          ],
          "internalType": "struct AntiFraud.FraudCase[]",
          "name": "",
          "type": "tuple[]"
        }
      ],
      "stateMutability": "view",
      "type": "function"
    },
    {
      "inputs": [
        {
          "internalType": "string",
          "name": "_title",
          "type": "string"
        },
        {
          "internalType": "string",
          "name": "_description",
          "type": "string"
        },
        {
          "internalType": "string",
          "name": "_taskImageLink",
          "type": "string"
        },
        {
          "internalType": "bool",
          "name": "_isAnswerInRush",
          "type": "bool"
        }
      ],
      "name": "postTask",
      "outputs": [],
      "stateMutability": "nonpayable",
      "type": "function"
    },
    {
      "inputs": [],
      "name": "getTask",
      "outputs": [
        {
          "components": [
            {
              "internalType": "uint256",
              "name": "id",
              "type": "uint256"
            },
            {
              "internalType": "string",
              "name": "title",
              "type": "string"
            },
            {
              "internalType": "string",
              "name": "description",
              "type": "string"
            },
            {
              "internalType": "uint256",
              "name": "postTime",
              "type": "uint256"
            },
            {
              "internalType": "uint256",
              "name": "answerCount",
              "type": "uint256"
            },
            {
              "internalType": "bool",
              "name": "isSolved",
              "type": "bool"
            },
            {
              "internalType": "string",
              "name": "taskImageLink",
              "type": "string"
            },
            {
              "internalType": "bool",
              "name": "isAnswerInRush",
              "type": "bool"
            },
            {
              "internalType": "bool",
              "name": "isAccept",
              "type": "bool"
            }
          ],
          "internalType": "struct AntiFraud.Task[]",
          "name": "",
          "type": "tuple[]"
        }
      ],
      "stateMutability": "view",
      "type": "function"
    },
    {
      "inputs": [
        {
          "internalType": "uint256",
          "name": "_taskIndex",
          "type": "uint256"
        }
      ],
      "name": "acceptTask",
      "outputs": [],
      "stateMutability": "nonpayable",
      "type": "function"
    },
    {
      "inputs": [
        {
          "internalType": "uint256",
          "name": "_taskIndex",
          "type": "uint256"
        },
        {
          "internalType": "string",
          "name": "_detail",
          "type": "string"
        }
      ],
      "name": "postTaskAnswer",
      "outputs": [],
      "stateMutability": "nonpayable",
      "type": "function"
    },
    {
      "inputs": [
        {
          "internalType": "uint256",
          "name": "_taskIndex",
          "type": "uint256"
        }
      ],
      "name": "getThisTaskAnswer",
      "outputs": [
        {
          "components": [
            {
              "internalType": "uint256",
              "name": "id",
              "type": "uint256"
            },
            {
              "internalType": "string",
              "name": "detail",
              "type": "string"
            },
            {
              "internalType": "uint256",
              "name": "postTime",
              "type": "uint256"
            },
            {
              "internalType": "address",
              "name": "answerAddress",
              "type": "address"
            }
          ],
          "internalType": "struct AntiFraud.TaskAnswer[]",
          "name": "",
          "type": "tuple[]"
        }
      ],
      "stateMutability": "view",
      "type": "function"
    },
    {
      "inputs": [
        {
          "internalType": "uint256",
          "name": "_taskIndex",
          "type": "uint256"
        }
      ],
      "name": "taskFailed",
      "outputs": [],
      "stateMutability": "nonpayable",
      "type": "function"
    },
    {
      "inputs": [
        {
          "internalType": "uint256",
          "name": "_taskIndex",
          "type": "uint256"
        },
        {
          "internalType": "uint256",
          "name": "_answerIndex",
          "type": "uint256"
        },
        {
          "internalType": "bool",
          "name": "_isAdopt",
          "type": "bool"
        }
      ],
      "name": "taskCompelte",
      "outputs": [],
      "stateMutability": "nonpayable",
      "type": "function"
    },
    {
      "inputs": [
        {
          "internalType": "string",
          "name": "_title",
          "type": "string"
        },
        {
          "internalType": "string",
          "name": "_description",
          "type": "string"
        },
        {
          "internalType": "string",
          "name": "_tag",
          "type": "string"
        },
        {
          "internalType": "string",
          "name": "_imageLink",
          "type": "string"
        },
        {
          "internalType": "uint256",
          "name": "_reward",
          "type": "uint256"
        }
      ],
      "name": "createPosts",
      "outputs": [],
      "stateMutability": "nonpayable",
      "type": "function"
    },
    {
      "inputs": [],
      "name": "getPostsList",
      "outputs": [
        {
          "components": [
            {
              "internalType": "uint256",
              "name": "id",
              "type": "uint256"
            },
            {
              "internalType": "uint256",
              "name": "postTime",
              "type": "uint256"
            },
            {
              "internalType": "uint256",
              "name": "reward",
              "type": "uint256"
            },
            {
              "internalType": "uint256",
              "name": "replyCounts",
              "type": "uint256"
            },
            {
              "internalType": "string",
              "name": "title",
              "type": "string"
            },
            {
              "internalType": "string",
              "name": "description",
              "type": "string"
            },
            {
              "internalType": "string",
              "name": "tag",
              "type": "string"
            },
            {
              "internalType": "string",
              "name": "imageLink",
              "type": "string"
            },
            {
              "internalType": "address",
              "name": "postUserAdd",
              "type": "address"
            }
          ],
          "internalType": "struct AntiFraud.Posts[]",
          "name": "",
          "type": "tuple[]"
        }
      ],
      "stateMutability": "view",
      "type": "function"
    },
    {
      "inputs": [
        {
          "internalType": "uint256",
          "name": "_postsIndex",
          "type": "uint256"
        },
        {
          "internalType": "string",
          "name": "_details",
          "type": "string"
        }
      ],
      "name": "createPostsReply",
      "outputs": [],
      "stateMutability": "nonpayable",
      "type": "function"
    },
    {
      "inputs": [
        {
          "internalType": "uint256",
          "name": "_postsIndex",
          "type": "uint256"
        }
      ],
      "name": "getThisPostsReply",
      "outputs": [
        {
          "components": [
            {
              "internalType": "uint256",
              "name": "postsId",
              "type": "uint256"
            },
            {
              "internalType": "uint256",
              "name": "floor",
              "type": "uint256"
            },
            {
              "internalType": "uint256",
              "name": "postTime",
              "type": "uint256"
            },
            {
              "internalType": "string",
              "name": "details",
              "type": "string"
            },
            {
              "internalType": "address",
              "name": "postUserAdd",
              "type": "address"
            }
          ],
          "internalType": "struct AntiFraud.PostsReply[]",
          "name": "",
          "type": "tuple[]"
        }
      ],
      "stateMutability": "view",
      "type": "function"
    }
  ],
  "bytecode": "0x608060405234801561001057600080fd5b50606460008190555033600160006101000a81548173ffffffffffffffffffffffffffffffffffffffff021916908373ffffffffffffffffffffffffffffffffffffffff160217905550600054600260003373ffffffffffffffffffffffffffffffffffffffff1673ffffffffffffffffffffffffffffffffffffffff16815260200190815260200160002081905550600060038190555060006004819055506000600581905550600060068190555060006007819055506000600881905550615085806100df6000396000f3fe608060405234801561001057600080fd5b50600436106101cf5760003560e01c8063978b3e2711610104578063c9c2981d116100a2578063e7844a0f11610071578063e7844a0f1461052c578063ec32dbcc14610548578063f4b75ffb14610566578063f8993a0414610582576101cf565b8063c9c2981d146104a6578063ce2cafb0146104c2578063d2e3ada5146104de578063e6ba4be9146104fa576101cf565b8063b69607d3116100de578063b69607d314610420578063bd2546011461043c578063be9293c61461045a578063beabacc814610476576101cf565b8063978b3e27146103b65780639b96eece146103d2578063a31662d214610402576101cf565b8063480daedd116101715780635da131f71161014b5780635da131f7146103325780635e4e6e881461034e5780636e1d80d71461036a5780638ffffebd1461039a576101cf565b8063480daedd146102c85780634924133f146102e65780635429972f14610302576101cf565b8063313b3043116101ad578063313b30431461023e57806331c89ff11461025c5780633d9536ef1461028c578063452a4cdc146102aa576101cf565b80630421cc33146101d45780631bca0435146102065780631bf6912d14610222575b600080fd5b6101ee60048036038101906101e99190613ccb565b6105a0565b6040516101fd93929190614ab8565b60405180910390f35b610220600480360381019061021b9190613df0565b61073e565b005b61023c60048036038101906102379190614035565b610a58565b005b610246610b27565b60405161025391906149e1565b60405180910390f35b61027660048036038101906102719190614035565b610efa565b6040516102839190614a62565b60405180910390f35b610294610f17565b6040516102a1919061497b565b60405180910390f35b6102b2611219565b6040516102bf919061499d565b60405180910390f35b6102d06113cc565b6040516102dd919061497b565b60405180910390f35b61030060048036038101906102fb919061409a565b61173e565b005b61031c60048036038101906103179190614035565b611896565b60405161032991906149bf565b60405180910390f35b61034c60048036038101906103479190614035565b611b18565b005b61036860048036038101906103639190613d84565b611b24565b005b610384600480360381019061037f9190614035565b611bc1565b6040516103919190614a03565b60405180910390f35b6103b460048036038101906103af9190613e9b565b611e39565b005b6103d060048036038101906103cb9190613d84565b6120a1565b005b6103ec60048036038101906103e79190613ccb565b61213e565b6040516103f99190614a9d565b60405180910390f35b61040a612150565b6040516104179190614a25565b60405180910390f35b61043a600480360381019061043591906140e9565b612482565b005b6104446125d7565b604051610451919061499d565b60405180910390f35b610474600480360381019061046f919061405e565b61278a565b005b610490600480360381019061048b9190613cf4565b6129ee565b60405161049d9190614a47565b60405180910390f35b6104c060048036038101906104bb9190613f5e565b612a04565b005b6104dc60048036038101906104d79190613d43565b612bb1565b005b6104f860048036038101906104f3919061413d565b612e46565b005b610514600480360381019061050f9190613ccb565b612fcb565b60405161052393929190614ab8565b60405180910390f35b6105466004803603810190610541919061405e565b613169565b005b61055061335d565b60405161055d919061499d565b60405180910390f35b610580600480360381019061057b91906140e9565b613580565b005b61058a6136c1565b6040516105979190614a47565b60405180910390f35b60006060806000600960008673ffffffffffffffffffffffffffffffffffffffff1673ffffffffffffffffffffffffffffffffffffffff1681526020019081526020016000206040518060600160405290816000820154815260200160018201805461060b90614e48565b80601f016020809104026020016040519081016040528092919081815260200182805461063790614e48565b80156106845780601f1061065957610100808354040283529160200191610684565b820191906000526020600020905b81548152906001019060200180831161066757829003601f168201915b5050505050815260200160028201805461069d90614e48565b80601f01602080910402602001604051908101604052809291908181526020018280546106c990614e48565b80156107165780601f106106eb57610100808354040283529160200191610716565b820191906000526020600020905b8154815290600101906020018083116106f957829003601f168201915b5050505050815250509050806000015181602001518260400151935093509350509193909250565b610746613924565b600754816000018181525050428160600181815250508481602001819052508381604001819052506000816080018181525050828160c0018190525060008160a0019015159081151581525050818160e00190151590811515815250506000816101000190151590811515815250503360156000600754815260200190815260200160002060006101000a81548173ffffffffffffffffffffffffffffffffffffffff021916908373ffffffffffffffffffffffffffffffffffffffff160217905550601660003373ffffffffffffffffffffffffffffffffffffffff1673ffffffffffffffffffffffffffffffffffffffff168152602001908152602001600020819080600181540180825580915050600190039060005260206000209060080201600090919091909150600082015181600001556020820151816001019080519060200190610898929190613976565b5060408201518160020190805190602001906108b5929190613976565b50606082015181600301556080820151816004015560a08201518160050160006101000a81548160ff02191690831515021790555060c0820151816006019080519060200190610906929190613976565b5060e08201518160070160006101000a81548160ff0219169083151502179055506101008201518160070160016101000a81548160ff021916908315150217905550505080601760006007548152602001908152602001600020600082015181600001556020820151816001019080519060200190610986929190613976565b5060408201518160020190805190602001906109a3929190613976565b50606082015181600301556080820151816004015560a08201518160050160006101000a81548160ff02191690831515021790555060c08201518160060190805190602001906109f4929190613976565b5060e08201518160070160006101000a81548160ff0219169083151502179055506101008201518160070160016101000a81548160ff02191690831515021790555090505060076000815480929190610a4c90614ec3565b91905055505050505050565b60016017600083815260200190815260200160002060070160016101000a81548160ff02191690831515021790555060016017600083815260200190815260200160002060040181905550336018600083815260200190815260200160002060006101000a81548173ffffffffffffffffffffffffffffffffffffffff021916908373ffffffffffffffffffffffffffffffffffffffff160217905550610b2333600160009054906101000a900473ffffffffffffffffffffffffffffffffffffffff166002613715565b5050565b6060600060085467ffffffffffffffff811115610b6d577f4e487b7100000000000000000000000000000000000000000000000000000000600052604160045260246000fd5b604051908082528060200260200182016040528015610ba657816020015b610b936139fc565b815260200190600190039081610b8b5790505b50905060005b600854811015610ef257601a60008281526020019081526020016000206040518061012001604052908160008201548152602001600182015481526020016002820154815260200160038201548152602001600482018054610c0d90614e48565b80601f0160208091040260200160405190810160405280929190818152602001828054610c3990614e48565b8015610c865780601f10610c5b57610100808354040283529160200191610c86565b820191906000526020600020905b815481529060010190602001808311610c6957829003601f168201915b50505050508152602001600582018054610c9f90614e48565b80601f0160208091040260200160405190810160405280929190818152602001828054610ccb90614e48565b8015610d185780601f10610ced57610100808354040283529160200191610d18565b820191906000526020600020905b815481529060010190602001808311610cfb57829003601f168201915b50505050508152602001600682018054610d3190614e48565b80601f0160208091040260200160405190810160405280929190818152602001828054610d5d90614e48565b8015610daa5780601f10610d7f57610100808354040283529160200191610daa565b820191906000526020600020905b815481529060010190602001808311610d8d57829003601f168201915b50505050508152602001600782018054610dc390614e48565b80601f0160208091040260200160405190810160405280929190818152602001828054610def90614e48565b8015610e3c5780601f10610e1157610100808354040283529160200191610e3c565b820191906000526020600020905b815481529060010190602001808311610e1f57829003601f168201915b505050505081526020016008820160009054906101000a900473ffffffffffffffffffffffffffffffffffffffff1673ffffffffffffffffffffffffffffffffffffffff1673ffffffffffffffffffffffffffffffffffffffff1681525050828281518110610ed4577f4e487b7100000000000000000000000000000000000000000000000000000000600052603260045260246000fd5b60200260200101819052508080610eea90614ec3565b915050610bac565b508091505090565b600060136000838152602001908152602001600020549050919050565b6060601160003373ffffffffffffffffffffffffffffffffffffffff1673ffffffffffffffffffffffffffffffffffffffff168152602001908152602001600020805480602002602001604051908101604052809291908181526020016000905b8282101561121057838290600052602060002090600702016040518060e001604052908160008201548152602001600182018054610fb590614e48565b80601f0160208091040260200160405190810160405280929190818152602001828054610fe190614e48565b801561102e5780601f106110035761010080835404028352916020019161102e565b820191906000526020600020905b81548152906001019060200180831161101157829003601f168201915b5050505050815260200160028201805461104790614e48565b80601f016020809104026020016040519081016040528092919081815260200182805461107390614e48565b80156110c05780601f10611095576101008083540402835291602001916110c0565b820191906000526020600020905b8154815290600101906020018083116110a357829003601f168201915b505050505081526020016003820180546110d990614e48565b80601f016020809104026020016040519081016040528092919081815260200182805461110590614e48565b80156111525780601f1061112757610100808354040283529160200191611152565b820191906000526020600020905b81548152906001019060200180831161113557829003601f168201915b505050505081526020016004820154815260200160058201805461117590614e48565b80601f01602080910402602001604051908101604052809291908181526020018280546111a190614e48565b80156111ee5780601f106111c3576101008083540402835291602001916111ee565b820191906000526020600020905b8154815290600101906020018083116111d157829003601f168201915b5050505050815260200160068201548152505081526020019060010190610f78565b50505050905090565b6060600d60003373ffffffffffffffffffffffffffffffffffffffff1673ffffffffffffffffffffffffffffffffffffffff168152602001908152602001600020805480602002602001604051908101604052809291908181526020016000905b828210156113c357838290600052602060002090600502016040518060a0016040529081600082015481526020016001820160009054906101000a900473ffffffffffffffffffffffffffffffffffffffff1673ffffffffffffffffffffffffffffffffffffffff1673ffffffffffffffffffffffffffffffffffffffff16815260200160028201805461130d90614e48565b80601f016020809104026020016040519081016040528092919081815260200182805461133990614e48565b80156113865780601f1061135b57610100808354040283529160200191611386565b820191906000526020600020905b81548152906001019060200180831161136957829003601f168201915b505050505081526020016003820160009054906101000a900460ff161515151581526020016004820154815250508152602001906001019061127a565b50505050905090565b6060600060065467ffffffffffffffff811115611412577f4e487b7100000000000000000000000000000000000000000000000000000000600052604160045260246000fd5b60405190808252806020026020018201604052801561144b57816020015b611438613a5e565b8152602001906001900390816114305790505b50905060005b60065481101561173657601260008281526020019081526020016000206040518060e00160405290816000820154815260200160018201805461149390614e48565b80601f01602080910402602001604051908101604052809291908181526020018280546114bf90614e48565b801561150c5780601f106114e15761010080835404028352916020019161150c565b820191906000526020600020905b8154815290600101906020018083116114ef57829003601f168201915b5050505050815260200160028201805461152590614e48565b80601f016020809104026020016040519081016040528092919081815260200182805461155190614e48565b801561159e5780601f106115735761010080835404028352916020019161159e565b820191906000526020600020905b81548152906001019060200180831161158157829003601f168201915b505050505081526020016003820180546115b790614e48565b80601f01602080910402602001604051908101604052809291908181526020018280546115e390614e48565b80156116305780601f1061160557610100808354040283529160200191611630565b820191906000526020600020905b81548152906001019060200180831161161357829003601f168201915b505050505081526020016004820154815260200160058201805461165390614e48565b80601f016020809104026020016040519081016040528092919081815260200182805461167f90614e48565b80156116cc5780601f106116a1576101008083540402835291602001916116cc565b820191906000526020600020905b8154815290600101906020018083116116af57829003601f168201915b50505050508152602001600682015481525050828281518110611718577f4e487b7100000000000000000000000000000000000000000000000000000000600052603260045260246000fd5b6020026020010181905250808061172e90614ec3565b915050611451565b508091505090565b60001515601460003373ffffffffffffffffffffffffffffffffffffffff1673ffffffffffffffffffffffffffffffffffffffff16815260200190815260200160002060009054906101000a900460ff161515146117d1576040517f08c379a00000000000000000000000000000000000000000000000000000000081526004016117c890614a7d565b60405180910390fd5b6001601460003373ffffffffffffffffffffffffffffffffffffffff1673ffffffffffffffffffffffffffffffffffffffff16815260200190815260200160002060006101000a81548160ff021916908315150217905550811561185d5760136000848152602001908152602001600020600081548092919061185390614e7a565b9190505550611887565b60136000848152602001908152602001600020600081548092919061188190614dff565b91905055505b611891818461381e565b505050565b60606000601a60008481526020019081526020016000206003015467ffffffffffffffff8111156118f0577f4e487b7100000000000000000000000000000000000000000000000000000000600052604160045260246000fd5b60405190808252806020026020018201604052801561192957816020015b611916613a9b565b81526020019060019003908161190e5790505b50905060005b601a600085815260200190815260200160002060030154811015611b0e57601b60008581526020019081526020016000208181548110611998577f4e487b7100000000000000000000000000000000000000000000000000000000600052603260045260246000fd5b90600052602060002090600502016040518060a00160405290816000820154815260200160018201548152602001600282015481526020016003820180546119df90614e48565b80601f0160208091040260200160405190810160405280929190818152602001828054611a0b90614e48565b8015611a585780601f10611a2d57610100808354040283529160200191611a58565b820191906000526020600020905b815481529060010190602001808311611a3b57829003601f168201915b505050505081526020016004820160009054906101000a900473ffffffffffffffffffffffffffffffffffffffff1673ffffffffffffffffffffffffffffffffffffffff1673ffffffffffffffffffffffffffffffffffffffff1681525050828281518110611af0577f4e487b7100000000000000000000000000000000000000000000000000000000600052603260045260246000fd5b60200260200101819052508080611b0690614ec3565b91505061192f565b5080915050919050565b611b21816138a9565b50565b60036000815480929190611b3790614ec3565b91905055506000600960003373ffffffffffffffffffffffffffffffffffffffff1673ffffffffffffffffffffffffffffffffffffffff1681526020019081526020016000209050600354816000018190555082816001019080519060200190611ba2929190613976565b5081816002019080519060200190611bbb929190613976565b50505050565b60606000601760008481526020019081526020016000206004015467ffffffffffffffff811115611c1b577f4e487b7100000000000000000000000000000000000000000000000000000000600052604160045260246000fd5b604051908082528060200260200182016040528015611c5457816020015b611c41613ae0565b815260200190600190039081611c395790505b50905060005b6017600085815260200190815260200160002060040154811015611e2f57601960008581526020019081526020016000208181548110611cc3577f4e487b7100000000000000000000000000000000000000000000000000000000600052603260045260246000fd5b906000526020600020906004020160405180608001604052908160008201548152602001600182018054611cf690614e48565b80601f0160208091040260200160405190810160405280929190818152602001828054611d2290614e48565b8015611d6f5780601f10611d4457610100808354040283529160200191611d6f565b820191906000526020600020905b815481529060010190602001808311611d5257829003601f168201915b50505050508152602001600282015481526020016003820160009054906101000a900473ffffffffffffffffffffffffffffffffffffffff1673ffffffffffffffffffffffffffffffffffffffff1673ffffffffffffffffffffffffffffffffffffffff1681525050828281518110611e11577f4e487b7100000000000000000000000000000000000000000000000000000000600052603260045260246000fd5b60200260200101819052508080611e2790614ec3565b915050611c5a565b5080915050919050565b611e41613a5e565b60065481600001818152505042816080018181525050848160200181905250838160400181905250828160600181905250818160a0018190525060018160c001818152505033600f6000600654815260200190815260200160002060006101000a81548173ffffffffffffffffffffffffffffffffffffffff021916908373ffffffffffffffffffffffffffffffffffffffff160217905550601060003373ffffffffffffffffffffffffffffffffffffffff1673ffffffffffffffffffffffffffffffffffffffff168152602001908152602001600020819080600181540180825580915050600190039060005260206000209060070201600090919091909150600082015181600001556020820151816001019080519060200190611f69929190613976565b506040820151816002019080519060200190611f86929190613976565b506060820151816003019080519060200190611fa3929190613976565b506080820151816004015560a0820151816005019080519060200190611fca929190613976565b5060c08201518160060155505080601260006006548152602001908152602001600020600082015181600001556020820151816001019080519060200190612013929190613976565b506040820151816002019080519060200190612030929190613976565b50606082015181600301908051906020019061204d929190613976565b506080820151816004015560a0820151816005019080519060200190612074929190613976565b5060c082015181600601559050506006600081548092919061209590614ec3565b91905055505050505050565b600460008154809291906120b490614ec3565b91905055506000600a60003373ffffffffffffffffffffffffffffffffffffffff1673ffffffffffffffffffffffffffffffffffffffff168152602001908152602001600020905060045481600001819055508281600101908051906020019061211f929190613976565b5081816002019080519060200190612138929190613976565b50505050565b6000612149826138db565b9050919050565b6060600060075467ffffffffffffffff811115612196577f4e487b7100000000000000000000000000000000000000000000000000000000600052604160045260246000fd5b6040519080825280602002602001820160405280156121cf57816020015b6121bc613924565b8152602001906001900390816121b45790505b50905060005b60075481101561247a5760176000828152602001908152602001600020604051806101200160405290816000820154815260200160018201805461221890614e48565b80601f016020809104026020016040519081016040528092919081815260200182805461224490614e48565b80156122915780601f1061226657610100808354040283529160200191612291565b820191906000526020600020905b81548152906001019060200180831161227457829003601f168201915b505050505081526020016002820180546122aa90614e48565b80601f01602080910402602001604051908101604052809291908181526020018280546122d690614e48565b80156123235780601f106122f857610100808354040283529160200191612323565b820191906000526020600020905b81548152906001019060200180831161230657829003601f168201915b5050505050815260200160038201548152602001600482015481526020016005820160009054906101000a900460ff1615151515815260200160068201805461236b90614e48565b80601f016020809104026020016040519081016040528092919081815260200182805461239790614e48565b80156123e45780601f106123b9576101008083540402835291602001916123e4565b820191906000526020600020905b8154815290600101906020018083116123c757829003601f168201915b505050505081526020016007820160009054906101000a900460ff161515151581526020016007820160019054906101000a900460ff16151515158152505082828151811061245c577f4e487b7100000000000000000000000000000000000000000000000000000000600052603260045260246000fd5b6020026020010181905250808061247290614ec3565b9150506121d5565b508091505090565b61248a613a9b565b82816000018181525050601a6000848152602001908152602001600020600301600081546124b790614ec3565b9190508190558160200181815250504281604001818152505081816060018190525033816080019073ffffffffffffffffffffffffffffffffffffffff16908173ffffffffffffffffffffffffffffffffffffffff1681525050601b60008481526020019081526020016000208190806001815401808255809150506001900390600052602060002090600502016000909190919091506000820151816000015560208201518160010155604082015181600201556060820151816003019080519060200190612588929190613976565b5060808201518160040160006101000a81548173ffffffffffffffffffffffffffffffffffffffff021916908373ffffffffffffffffffffffffffffffffffffffff1602179055505050505050565b6060600c60003373ffffffffffffffffffffffffffffffffffffffff1673ffffffffffffffffffffffffffffffffffffffff168152602001908152602001600020805480602002602001604051908101604052809291908181526020016000905b8282101561278157838290600052602060002090600502016040518060a0016040529081600082015481526020016001820160009054906101000a900473ffffffffffffffffffffffffffffffffffffffff1673ffffffffffffffffffffffffffffffffffffffff1673ffffffffffffffffffffffffffffffffffffffff1681526020016002820180546126cb90614e48565b80601f01602080910402602001604051908101604052809291908181526020018280546126f790614e48565b80156127445780601f1061271957610100808354040283529160200191612744565b820191906000526020600020905b81548152906001019060200180831161272757829003601f168201915b505050505081526020016003820160009054906101000a900460ff1615151515815260200160048201548152505081526020019060010190612638565b50505050905090565b80600e600084815260200190815260200160002060030160006101000a81548160ff02191690831515021790555033600e600084815260200190815260200160002060010160006101000a81548173ffffffffffffffffffffffffffffffffffffffff021916908373ffffffffffffffffffffffffffffffffffffffff160217905550600d60003373ffffffffffffffffffffffffffffffffffffffff1673ffffffffffffffffffffffffffffffffffffffff168152602001908152602001600020600e60008481526020019081526020016000209080600181540180825580915050600190039060005260206000209060050201600090919091909150600082015481600001556001820160009054906101000a900473ffffffffffffffffffffffffffffffffffffffff168160010160006101000a81548173ffffffffffffffffffffffffffffffffffffffff021916908373ffffffffffffffffffffffffffffffffffffffff160217905550600282018160020190805461290d90614e48565b612918929190613b1e565b506003820160009054906101000a900460ff168160030160006101000a81548160ff021916908315150217905550600482015481600401555050612980600160009054906101000a900473ffffffffffffffffffffffffffffffffffffffff16336001613715565b5080156129ea576129e8600160009054906101000a900473ffffffffffffffffffffffffffffffffffffffff16600b600085815260200190815260200160002060009054906101000a900473ffffffffffffffffffffffffffffffffffffffff166005613715565b505b5050565b60006129fb848484613715565b90509392505050565b612a0c6139fc565b60085481600001818152505042816020018181525050818160400181815250506000816060018181525050858160800181905250848160a00181905250838160c00181905250828160e001819052503381610100019073ffffffffffffffffffffffffffffffffffffffff16908173ffffffffffffffffffffffffffffffffffffffff168152505080601a60006003548152602001908152602001600020600082015181600001556020820151816001015560408201518160020155606082015181600301556080820151816004019080519060200190612aee929190613976565b5060a0820151816005019080519060200190612b0b929190613976565b5060c0820151816006019080519060200190612b28929190613976565b5060e0820151816007019080519060200190612b45929190613976565b506101008201518160080160006101000a81548173ffffffffffffffffffffffffffffffffffffffff021916908373ffffffffffffffffffffffffffffffffffffffff16021790555090505060086000815480929190612ba490614ec3565b9190505550505050505050565b33600b6000600554815260200190815260200160002060006101000a81548173ffffffffffffffffffffffffffffffffffffffff021916908373ffffffffffffffffffffffffffffffffffffffff160217905550612c0d613bab565b6005548160000181815250506000816020019073ffffffffffffffffffffffffffffffffffffffff16908173ffffffffffffffffffffffffffffffffffffffff1681525050428160800181815250508181604001819052506000816060019015159081151581525050600c60003373ffffffffffffffffffffffffffffffffffffffff1673ffffffffffffffffffffffffffffffffffffffff1681526020019081526020016000208190806001815401808255809150506001900390600052602060002090600502016000909190919091506000820151816000015560208201518160010160006101000a81548173ffffffffffffffffffffffffffffffffffffffff021916908373ffffffffffffffffffffffffffffffffffffffff1602179055506040820151816002019080519060200190612d4c929190613976565b5060608201518160030160006101000a81548160ff02191690831515021790555060808201518160040155505080600e600060055481526020019081526020016000206000820151816000015560208201518160010160006101000a81548173ffffffffffffffffffffffffffffffffffffffff021916908373ffffffffffffffffffffffffffffffffffffffff1602179055506040820151816002019080519060200190612dfc929190613976565b5060608201518160030160006101000a81548160ff0219169083151502179055506080820151816004015590505060056000815480929190612e3d90614ec3565b91905055505050565b8015612fbc5760016017600085815260200190815260200160002060050160006101000a81548160ff0219169083151502179055506017600084815260200190815260200160002060070160009054906101000a900460ff1615612f0b57612f05600160009054906101000a900473ffffffffffffffffffffffffffffffffffffffff166018600086815260200190815260200160002060009054906101000a900473ffffffffffffffffffffffffffffffffffffffff16600c613715565b50612fb7565b612fb5600160009054906101000a900473ffffffffffffffffffffffffffffffffffffffff16601960008681526020019081526020016000208481548110612f7c577f4e487b7100000000000000000000000000000000000000000000000000000000600052603260045260246000fd5b906000526020600020906004020160030160009054906101000a900473ffffffffffffffffffffffffffffffffffffffff16600a613715565b505b612fc6565b612fc5836138a9565b5b505050565b60006060806000600a60008673ffffffffffffffffffffffffffffffffffffffff1673ffffffffffffffffffffffffffffffffffffffff1681526020019081526020016000206040518060600160405290816000820154815260200160018201805461303690614e48565b80601f016020809104026020016040519081016040528092919081815260200182805461306290614e48565b80156130af5780601f10613084576101008083540402835291602001916130af565b820191906000526020600020905b81548152906001019060200180831161309257829003601f168201915b505050505081526020016002820180546130c890614e48565b80601f01602080910402602001604051908101604052809291908181526020018280546130f490614e48565b80156131415780601f1061311657610100808354040283529160200191613141565b820191906000526020600020905b81548152906001019060200180831161312457829003601f168201915b5050505050815250509050806000015181602001518260400151935093509350509193909250565b80156131f257600460126000848152602001908152602001600020600601819055506131ec600160009054906101000a900473ffffffffffffffffffffffffffffffffffffffff16600f600085815260200190815260200160002060009054906101000a900473ffffffffffffffffffffffffffffffffffffffff16600a613715565b5061320f565b600060126000848152602001908152602001600020600601819055505b601160003373ffffffffffffffffffffffffffffffffffffffff1673ffffffffffffffffffffffffffffffffffffffff1681526020019081526020016000206012600084815260200190815260200160002090806001815401808255809150506001900390600052602060002090600702016000909190919091506000820154816000015560018201816001019080546132a890614e48565b6132b3929190613b1e565b5060028201816002019080546132c890614e48565b6132d3929190613b1e565b5060038201816003019080546132e890614e48565b6132f3929190613b1e565b5060048201548160040155600582018160050190805461331290614e48565b61331d929190613b1e565b50600682015481600601555050613358600160009054906101000a900473ffffffffffffffffffffffffffffffffffffffff16336001613715565b505050565b6060600060055467ffffffffffffffff8111156133a3577f4e487b7100000000000000000000000000000000000000000000000000000000600052604160045260246000fd5b6040519080825280602002602001820160405280156133dc57816020015b6133c9613bab565b8152602001906001900390816133c15790505b50905060005b60055481101561357857600e60008281526020019081526020016000206040518060a0016040529081600082015481526020016001820160009054906101000a900473ffffffffffffffffffffffffffffffffffffffff1673ffffffffffffffffffffffffffffffffffffffff1673ffffffffffffffffffffffffffffffffffffffff16815260200160028201805461347a90614e48565b80601f01602080910402602001604051908101604052809291908181526020018280546134a690614e48565b80156134f35780601f106134c8576101008083540402835291602001916134f3565b820191906000526020600020905b8154815290600101906020018083116134d657829003601f168201915b505050505081526020016003820160009054906101000a900460ff1615151515815260200160048201548152505082828151811061355a577f4e487b7100000000000000000000000000000000000000000000000000000000600052603260045260246000fd5b6020026020010181905250808061357090614ec3565b9150506133e2565b508091505090565b613588613ae0565b60176000848152602001908152602001600020600401600081546135ab90614ec3565b9190508190558160000181815250508181602001819052504281604001818152505033816060019073ffffffffffffffffffffffffffffffffffffffff16908173ffffffffffffffffffffffffffffffffffffffff168152505060196000848152602001908152602001600020819080600181540180825580915050600190039060005260206000209060040201600090919091909150600082015181600001556020820151816001019080519060200190613668929190613976565b506040820151816002015560608201518160030160006101000a81548173ffffffffffffffffffffffffffffffffffffffff021916908373ffffffffffffffffffffffffffffffffffffffff1602179055505050505050565b6000601460003373ffffffffffffffffffffffffffffffffffffffff1673ffffffffffffffffffffffffffffffffffffffff16815260200190815260200160002060009054906101000a900460ff16905090565b6000806000905082600260008773ffffffffffffffffffffffffffffffffffffffff1673ffffffffffffffffffffffffffffffffffffffff16815260200190815260200160002054106138135782600260008773ffffffffffffffffffffffffffffffffffffffff1673ffffffffffffffffffffffffffffffffffffffff16815260200190815260200160002060008282546137b19190614d37565b9250508190555082600260008673ffffffffffffffffffffffffffffffffffffffff1673ffffffffffffffffffffffffffffffffffffffff16815260200190815260200160002060008282546138079190614ce1565b92505081905550600190505b809150509392505050565b6000601360008381526020019081526020016000205490506000838213156138495760049050613888565b8361385390614f0c565b8212156138635760009050613887565b6000821380156138735750838213155b156138815760029050613886565b600390505b5b5b80601260008581526020019081526020016000206006018190555050505050565b60006017600083815260200190815260200160002060070160016101000a81548160ff02191690831515021790555050565b6000600260008373ffffffffffffffffffffffffffffffffffffffff1673ffffffffffffffffffffffffffffffffffffffff168152602001908152602001600020549050919050565b6040518061012001604052806000815260200160608152602001606081526020016000815260200160008152602001600015158152602001606081526020016000151581526020016000151581525090565b82805461398290614e48565b90600052602060002090601f0160209004810192826139a457600085556139eb565b82601f106139bd57805160ff19168380011785556139eb565b828001600101855582156139eb579182015b828111156139ea5782518255916020019190600101906139cf565b5b5090506139f89190613bf2565b5090565b6040518061012001604052806000815260200160008152602001600081526020016000815260200160608152602001606081526020016060815260200160608152602001600073ffffffffffffffffffffffffffffffffffffffff1681525090565b6040518060e00160405280600081526020016060815260200160608152602001606081526020016000815260200160608152602001600081525090565b6040518060a0016040528060008152602001600081526020016000815260200160608152602001600073ffffffffffffffffffffffffffffffffffffffff1681525090565b6040518060800160405280600081526020016060815260200160008152602001600073ffffffffffffffffffffffffffffffffffffffff1681525090565b828054613b2a90614e48565b90600052602060002090601f016020900481019282613b4c5760008555613b9a565b82601f10613b5d5780548555613b9a565b82800160010185558215613b9a57600052602060002091601f016020900482015b82811115613b99578254825591600101919060010190613b7e565b5b509050613ba79190613bf2565b5090565b6040518060a0016040528060008152602001600073ffffffffffffffffffffffffffffffffffffffff16815260200160608152602001600015158152602001600081525090565b5b80821115613c0b576000816000905550600101613bf3565b5090565b6000613c22613c1d84614b2e565b614afd565b905082815260208101848484011115613c3a57600080fd5b613c45848285614dbd565b509392505050565b600081359050613c5c81614ff3565b92915050565b600081359050613c718161500a565b92915050565b600081359050613c8681615021565b92915050565b600082601f830112613c9d57600080fd5b8135613cad848260208601613c0f565b91505092915050565b600081359050613cc581615038565b92915050565b600060208284031215613cdd57600080fd5b6000613ceb84828501613c4d565b91505092915050565b600080600060608486031215613d0957600080fd5b6000613d1786828701613c4d565b9350506020613d2886828701613c4d565b9250506040613d3986828701613cb6565b9150509250925092565b600060208284031215613d5557600080fd5b600082013567ffffffffffffffff811115613d6f57600080fd5b613d7b84828501613c8c565b91505092915050565b60008060408385031215613d9757600080fd5b600083013567ffffffffffffffff811115613db157600080fd5b613dbd85828601613c8c565b925050602083013567ffffffffffffffff811115613dda57600080fd5b613de685828601613c8c565b9150509250929050565b60008060008060808587031215613e0657600080fd5b600085013567ffffffffffffffff811115613e2057600080fd5b613e2c87828801613c8c565b945050602085013567ffffffffffffffff811115613e4957600080fd5b613e5587828801613c8c565b935050604085013567ffffffffffffffff811115613e7257600080fd5b613e7e87828801613c8c565b9250506060613e8f87828801613c62565b91505092959194509250565b60008060008060808587031215613eb157600080fd5b600085013567ffffffffffffffff811115613ecb57600080fd5b613ed787828801613c8c565b945050602085013567ffffffffffffffff811115613ef457600080fd5b613f0087828801613c8c565b935050604085013567ffffffffffffffff811115613f1d57600080fd5b613f2987828801613c8c565b925050606085013567ffffffffffffffff811115613f4657600080fd5b613f5287828801613c8c565b91505092959194509250565b600080600080600060a08688031215613f7657600080fd5b600086013567ffffffffffffffff811115613f9057600080fd5b613f9c88828901613c8c565b955050602086013567ffffffffffffffff811115613fb957600080fd5b613fc588828901613c8c565b945050604086013567ffffffffffffffff811115613fe257600080fd5b613fee88828901613c8c565b935050606086013567ffffffffffffffff81111561400b57600080fd5b61401788828901613c8c565b925050608061402888828901613cb6565b9150509295509295909350565b60006020828403121561404757600080fd5b600061405584828501613cb6565b91505092915050565b6000806040838503121561407157600080fd5b600061407f85828601613cb6565b925050602061409085828601613c62565b9150509250929050565b6000806000606084860312156140af57600080fd5b60006140bd86828701613cb6565b93505060206140ce86828701613c62565b92505060406140df86828701613c77565b9150509250925092565b600080604083850312156140fc57600080fd5b600061410a85828601613cb6565b925050602083013567ffffffffffffffff81111561412757600080fd5b61413385828601613c8c565b9150509250929050565b60008060006060848603121561415257600080fd5b600061416086828701613cb6565b935050602061417186828701613cb6565b925050604061418286828701613c62565b9150509250925092565b600061419883836145b0565b905092915050565b60006141ac8383614661565b905092915050565b60006141c083836146d7565b905092915050565b60006141d4838361474d565b905092915050565b60006141e88383614827565b905092915050565b60006141fc838361488a565b905092915050565b61420d81614d6b565b82525050565b600061421e82614bbe565b6142288185614c59565b93508360208202850161423a85614b5e565b8060005b858110156142765784840389528151614257858261418c565b945061426283614c0b565b925060208a0199505060018101905061423e565b50829750879550505050505092915050565b600061429382614bc9565b61429d8185614c6a565b9350836020820285016142af85614b6e565b8060005b858110156142eb57848403895281516142cc85826141a0565b94506142d783614c18565b925060208a019950506001810190506142b3565b50829750879550505050505092915050565b600061430882614bd4565b6143128185614c7b565b93508360208202850161432485614b7e565b8060005b85811015614360578484038952815161434185826141b4565b945061434c83614c25565b925060208a01995050600181019050614328565b50829750879550505050505092915050565b600061437d82614bdf565b6143878185614c8c565b93508360208202850161439985614b8e565b8060005b858110156143d557848403895281516143b685826141c8565b94506143c183614c32565b925060208a0199505060018101905061439d565b50829750879550505050505092915050565b60006143f282614bea565b6143fc8185614c9d565b93508360208202850161440e85614b9e565b8060005b8581101561444a578484038952815161442b85826141dc565b945061443683614c3f565b925060208a01995050600181019050614412565b50829750879550505050505092915050565b600061446782614bf5565b6144718185614cae565b93508360208202850161448385614bae565b8060005b858110156144bf57848403895281516144a085826141f0565b94506144ab83614c4c565b925060208a01995050600181019050614487565b50829750879550505050505092915050565b6144da81614d7d565b82525050565b6144e981614d7d565b82525050565b6144f881614d89565b82525050565b600061450982614c00565b6145138185614cbf565b9350614523818560208601614dcc565b61452c81614fe2565b840191505092915050565b600061454282614c00565b61454c8185614cd0565b935061455c818560208601614dcc565b61456581614fe2565b840191505092915050565b600061457d600983614cd0565b91507f48617320766f74656400000000000000000000000000000000000000000000006000830152602082019050919050565b600060e0830160008301516145c8600086018261495d565b50602083015184820360208601526145e082826144fe565b915050604083015184820360408601526145fa82826144fe565b9150506060830151848203606086015261461482826144fe565b9150506080830151614629608086018261495d565b5060a083015184820360a086015261464182826144fe565b91505060c083015161465660c086018261495d565b508091505092915050565b600060a083016000830151614679600086018261495d565b50602083015161468c6020860182614204565b50604083015184820360408601526146a482826144fe565b91505060608301516146b960608601826144d1565b5060808301516146cc608086018261495d565b508091505092915050565b600060a0830160008301516146ef600086018261495d565b506020830151614702602086018261495d565b506040830151614715604086018261495d565b506060830151848203606086015261472d82826144fe565b91505060808301516147426080860182614204565b508091505092915050565b600061012083016000830151614766600086018261495d565b506020830151614779602086018261495d565b50604083015161478c604086018261495d565b50606083015161479f606086018261495d565b50608083015184820360808601526147b782826144fe565b91505060a083015184820360a08601526147d182826144fe565b91505060c083015184820360c08601526147eb82826144fe565b91505060e083015184820360e086015261480582826144fe565b91505061010083015161481c610100860182614204565b508091505092915050565b600060808301600083015161483f600086018261495d565b506020830151848203602086015261485782826144fe565b915050604083015161486c604086018261495d565b50606083015161487f6060860182614204565b508091505092915050565b6000610120830160008301516148a3600086018261495d565b50602083015184820360208601526148bb82826144fe565b915050604083015184820360408601526148d582826144fe565b91505060608301516148ea606086018261495d565b5060808301516148fd608086018261495d565b5060a083015161491060a08601826144d1565b5060c083015184820360c086015261492882826144fe565b91505060e083015161493d60e08601826144d1565b506101008301516149526101008601826144d1565b508091505092915050565b61496681614db3565b82525050565b61497581614db3565b82525050565b600060208201905081810360008301526149958184614213565b905092915050565b600060208201905081810360008301526149b78184614288565b905092915050565b600060208201905081810360008301526149d981846142fd565b905092915050565b600060208201905081810360008301526149fb8184614372565b905092915050565b60006020820190508181036000830152614a1d81846143e7565b905092915050565b60006020820190508181036000830152614a3f818461445c565b905092915050565b6000602082019050614a5c60008301846144e0565b92915050565b6000602082019050614a7760008301846144ef565b92915050565b60006020820190508181036000830152614a9681614570565b9050919050565b6000602082019050614ab2600083018461496c565b92915050565b6000606082019050614acd600083018661496c565b8181036020830152614adf8185614537565b90508181036040830152614af38184614537565b9050949350505050565b6000604051905081810181811067ffffffffffffffff82111715614b2457614b23614fb3565b5b8060405250919050565b600067ffffffffffffffff821115614b4957614b48614fb3565b5b601f19601f8301169050602081019050919050565b6000819050602082019050919050565b6000819050602082019050919050565b6000819050602082019050919050565b6000819050602082019050919050565b6000819050602082019050919050565b6000819050602082019050919050565b600081519050919050565b600081519050919050565b600081519050919050565b600081519050919050565b600081519050919050565b600081519050919050565b600081519050919050565b6000602082019050919050565b6000602082019050919050565b6000602082019050919050565b6000602082019050919050565b6000602082019050919050565b6000602082019050919050565b600082825260208201905092915050565b600082825260208201905092915050565b600082825260208201905092915050565b600082825260208201905092915050565b600082825260208201905092915050565b600082825260208201905092915050565b600082825260208201905092915050565b600082825260208201905092915050565b6000614cec82614db3565b9150614cf783614db3565b9250827fffffffffffffffffffffffffffffffffffffffffffffffffffffffffffffffff03821115614d2c57614d2b614f55565b5b828201905092915050565b6000614d4282614db3565b9150614d4d83614db3565b925082821015614d6057614d5f614f55565b5b828203905092915050565b6000614d7682614d93565b9050919050565b60008115159050919050565b6000819050919050565b600073ffffffffffffffffffffffffffffffffffffffff82169050919050565b6000819050919050565b82818337600083830152505050565b60005b83811015614dea578082015181840152602081019050614dcf565b83811115614df9576000848401525b50505050565b6000614e0a82614d89565b91507f8000000000000000000000000000000000000000000000000000000000000000821415614e3d57614e3c614f55565b5b600182039050919050565b60006002820490506001821680614e6057607f821691505b60208210811415614e7457614e73614f84565b5b50919050565b6000614e8582614d89565b91507f7fffffffffffffffffffffffffffffffffffffffffffffffffffffffffffffff821415614eb857614eb7614f55565b5b600182019050919050565b6000614ece82614db3565b91507fffffffffffffffffffffffffffffffffffffffffffffffffffffffffffffffff821415614f0157614f00614f55565b5b600182019050919050565b6000614f1782614d89565b91507f8000000000000000000000000000000000000000000000000000000000000000821415614f4a57614f49614f55565b5b816000039050919050565b7f4e487b7100000000000000000000000000000000000000000000000000000000600052601160045260246000fd5b7f4e487b7100000000000000000000000000000000000000000000000000000000600052602260045260246000fd5b7f4e487b7100000000000000000000000000000000000000000000000000000000600052604160045260246000fd5b6000601f19601f8301169050919050565b614ffc81614d6b565b811461500757600080fd5b50565b61501381614d7d565b811461501e57600080fd5b50565b61502a81614d89565b811461503557600080fd5b50565b61504181614db3565b811461504c57600080fd5b5056fea264697066735822122001eebb556f810dab1d7dc3132c51afdce13d7dc34fd174a716d80e03df9da7aa64736f6c63430008000033",
  "immutableReferences": {},
  "source": "//  \n// \n\n// SPDX-License-Identifier: MIT\npragma solidity >=0.4.21 <0.9.0;\n\nimport \"./erc20.sol\";\n// interface \ncontract AntiFraud {\n    // // ERC20\n    // \n    //  -> \n    // \n    uint256 totalCredit;\n    // \n    address administrator;\n    // \n    mapping(address => uint) balanceOf;\n    //  -> id\n    uint policeIndex;\n    //  -> id\n    uint civilIndex;\n    //  -> id\n    uint screenshotIndex;\n    //  -> id\n    uint caseIndex;\n    //  -> id\n    uint taskIndex;\n    //  -> id\n    uint postsIndex;\n\n    constructor() {\n        totalCredit = 100;\n        // Soliditymsg.sender\n        administrator = msg.sender;\n        // \n        balanceOf[msg.sender] = totalCredit;\n        // 0\n        policeIndex = 0;\n        civilIndex = 0;\n        screenshotIndex = 0;\n        caseIndex = 0;\n        taskIndex = 0;\n        postsIndex = 0;\n    }\n    // get\n    function _getBalanceOf(address _userAdd) internal view returns (uint) {\n        return (balanceOf[_userAdd]);\n    }\n    function getBalanceOf(address _userAdd) external view returns (uint) {\n        return _getBalanceOf(_userAdd);\n    }\n    // \n    function _transfer(address _from, address _to, uint _val) internal returns (bool) {\n        bool success = false;\n        if (balanceOf[_from] >= _val) {\n            balanceOf[_from] -= _val;\n            balanceOf[_to] += _val;\n            success = true;\n        }\n        return success;\n    }\n    function transfer(address _from, address _to, uint _val) external returns (bool) {\n        return _transfer(_from, _to, _val);\n    }\n    // // get\n    // function getBalanceOf(address _contractAdd, address _userAdd) external view returns (uint) {\n    //     return ERC20Basic(_contractAdd).balanceOf(_userAdd);\n    // }\n    // // \n    // function creditApprove(address _contractAdd, address _approver, uint _val) external {\n    //     ERC20Basic(_contractAdd).approve(_approver, _val);\n    // }\n    // // \n    // function creditTransfer(address _contractAdd, address _reciver, uint _val) external returns (bool) {\n    //     return ERC20Basic(_contractAdd).transfer(_reciver, _val);\n    // }\n    // // call\n    // function callTransfer(address _contractAdd) external {\n    //     (bool success) = _contractAdd.call(\n    //         abi.encodeWithSignature(\n    //             \"transfer(address,uint256)\", 0xF58E5Fdda92689241C6114b9746AEE529fB7671C, 1 \n    //         )\n    //     );\n    //     require(success, \"failed\");\n    // }\n    // \n    struct Police {\n        // id\n        uint id;\n        // \n        string name;\n        // \n        string avatarLink;\n    }\n    // \n    // mapping(uint => address) policeIdToAddress;\n    // \n    mapping(address => Police) policeList;\n    // get\n    function getPoliceUser(address _policeUserAddress) external view returns (uint, string memory, string memory) {\n        Police memory police = policeList[_policeUserAddress];\n        return (police.id, police.name, police.avatarLink);\n    }\n    // \n    function createPoliceUser(string memory _name, string memory _avatarLink) external {\n        // \n        policeIndex++;\n        // \n        Police storage police = policeList[msg.sender];\n        // id\n        police.id = policeIndex;\n        // \n        police.name = _name;\n        // \n        police.avatarLink = _avatarLink;\n    }\n    // \n    struct Civil {\n        // id\n        uint id;\n        // \n        string name;\n        // \n        string avatarLink;\n    }\n    // \n    mapping(address => Civil) civilList;\n    // get\n    function getCivilUser(address _civilUserAddress) external view returns (uint, string memory, string memory) {\n        Civil memory civil = civilList[_civilUserAddress];\n        return (civil.id, civil.name, civil.avatarLink); \n    }\n    // \n    function createCivilUser(string memory _name, string memory _avatarLink) external {\n        // \n        civilIndex++;\n        // \n        Civil storage civil = civilList[msg.sender];\n        // id\n        civil.id = civilIndex;\n        // \n        civil.name = _name;\n        // \n        civil.avatarLink = _avatarLink;\n    }\n    // \n    //  \n    struct FraudScreenshot {\n        // id\n        uint id;\n        // \n        address auditPoliceUser;\n        // ipfs\n        string screenshotLink;\n        // \n        bool isValid;\n        // \n        uint postTime;\n    }\n    // (id)\n    mapping(uint => address) screenshotIdToPostCivilUser;\n    // \n    mapping(address => FraudScreenshot[]) screenshotList;\n    // \n    mapping(address => FraudScreenshot[]) historyScreenshotAudit;\n    // \n    mapping(uint => FraudScreenshot) allSList;\n    // \n    function postScreenshot(string memory _screenshotLink) external {\n        // \n        screenshotIdToPostCivilUser[screenshotIndex] = msg.sender;\n        \n        FraudScreenshot memory fraudScreenshot;\n        // id\n        fraudScreenshot.id = screenshotIndex;           \n        // \n        fraudScreenshot.auditPoliceUser = address(0);\n        //  \n        fraudScreenshot.postTime = block.timestamp;\n        //    \n        fraudScreenshot.screenshotLink = _screenshotLink; \n        //   \n        fraudScreenshot.isValid = false;\n        // \n        screenshotList[msg.sender].push(fraudScreenshot);\n        // \n        allSList[screenshotIndex] = fraudScreenshot;\n        // \n        screenshotIndex++;\n    }\n    // get\n    function getScreenshotList() external view returns (FraudScreenshot[] memory) {\n        // \n        FraudScreenshot[] memory _List = new FraudScreenshot[](screenshotIndex);\n        // //  \n        // FraudScreenshot memory screenshot;\n        // address _address;\n        // // TODO i < address \n        // // address = 1\n        // for (uint i = 0; i < 1; i++) {\n        //     _address = screenshotIdToPostCivilUser[i];\n        //     for (uint j = 0; j < screenshotList[_address].length; j++) {\n        //         screenshot = screenshotList[_address][j];\n        //         _List[j] = screenshot;\n        //     }\n        // }\n        for (uint i = 0; i < screenshotIndex; i++) {\n            _List[i] = allSList[i];\n        }\n        return (_List);\n    }\n    // get\n    function getHistoryPost() external view returns (FraudScreenshot[] memory) {\n        return screenshotList[msg.sender];\n    }\n    // get\n    function getHistoryAudit() external view returns (FraudScreenshot[] memory) {\n        return historyScreenshotAudit[msg.sender];\n    }\n    // \n    function auditScreenshot(uint _screenshotIndex, bool _isVaild) external {\n        // \n        allSList[_screenshotIndex].isValid = _isVaild;\n        // \n        allSList[_screenshotIndex].auditPoliceUser = msg.sender;\n        // TODO \n\n        // \n        historyScreenshotAudit[msg.sender].push(allSList[_screenshotIndex]);\n        // +1\n        _transfer(administrator, msg.sender, 1);\n        //  +5\n        if (_isVaild) {  \n            _transfer(administrator, screenshotIdToPostCivilUser[_screenshotIndex], 5);\n        }\n    }\n    // \n    //  \n    struct FraudCase {\n        // id\n        uint id;\n        // \n        string title;\n        // \n        string tag;\n        // \n        string description;\n        // \n        uint postTime;\n        // ipfs\n        string caseImageLink;\n        // \n        // 0/\n        // 1\n        // 2\n        // 3\n        // 4 /\n        uint state;\n    }\n    // (id)\n    mapping(uint => address) caseIdToPostUser;\n    // \n    mapping(address => FraudCase[]) caseList;\n    // \n    mapping(address => FraudCase[]) historyCaseAudit;\n    // \n    mapping(uint => FraudCase) allCaseList;\n    //  -> \n    function postCase(string memory _title, string memory _tag, string memory _description, string memory _caseImageLink) external {\n        // \n        FraudCase memory fraudCase;\n        // id\n        fraudCase.id = caseIndex;\n        // \n        fraudCase.postTime = block.timestamp;\n        fraudCase.title = _title;\n        fraudCase.tag = _tag;\n        fraudCase.description = _description;\n        // \n        fraudCase.caseImageLink = _caseImageLink;\n        // \n        fraudCase.state = 1;\n        // \n        caseIdToPostUser[caseIndex] = msg.sender;\n        // \n        caseList[msg.sender].push(fraudCase);\n        // \n        allCaseList[caseIndex] = fraudCase;\n        // \n        caseIndex++;\n    } \n    // get\n    function getCase() external view returns (FraudCase[] memory) {\n        FraudCase[] memory _List = new FraudCase[](caseIndex);\n        for (uint i = 0; i < caseIndex; i++) {\n            _List[i] = allCaseList[i];\n        }\n        return (_List);\n    }\n    // \n    //   => \n    mapping(uint => int) voteCountOfCase;\n    //  \n    mapping(address => bool) isVotedThisAddress;\n    // \n    function getIsVoted() external view returns (bool) {\n        return isVotedThisAddress[msg.sender];\n    }\n    // get\n    function getVoteCountOf(uint _caseIndex) external view returns (int) {\n        return voteCountOfCase[_caseIndex];\n    }\n    // \n    // \n    function vote(uint _caseIndex, bool isValid, int _checkValue) external {\n        require(isVotedThisAddress[msg.sender] == false, \"Has voted\");\n        isVotedThisAddress[msg.sender] = true;\n        if (isValid) {\n            voteCountOfCase[_caseIndex]++;\n        } else {\n            voteCountOfCase[_caseIndex]--;\n        }\n        _countCheck(_checkValue, _caseIndex);\n    }\n    // \n    function _countCheck(int _checkValue, uint _caseIndex) internal {\n        int count = voteCountOfCase[_caseIndex];\n        // \n        uint _state;\n        if (count > _checkValue) {\n            // \n           _state = 4;\n        } else if (count < -_checkValue) {\n            // \n            _state = 0;\n        } else if (count > 0 && count <= _checkValue) {\n            // 0\n            _state = 2;\n        } else {\n            // 0-\n            _state = 3;\n        }\n        allCaseList[_caseIndex].state = _state;\n    }\n    // \n    function auditCase(uint _caseIndex, bool isValid) external {\n        // require(allCaseList[_caseIndex].state == 2 || allCaseList[_caseIndex].state == 3);\n        if (isValid) {\n            allCaseList[_caseIndex].state = 4;\n            // +10\n            _transfer(administrator, caseIdToPostUser[_caseIndex], 10);\n        } else {\n            allCaseList[_caseIndex].state = 0;\n        }\n        // \n        historyCaseAudit[msg.sender].push(allCaseList[_caseIndex]);\n        // +1\n        _transfer(administrator, msg.sender, 1);\n    }\n    // get\n    function getHistoryCaseAudit() external view returns (FraudCase[] memory) {\n        return historyCaseAudit[msg.sender];\n    }\n    // \n    //  \n    struct Task {\n        // id\n        uint id;\n        // \n        string title;\n        // \n        string description;\n        // \n        uint postTime;\n        //  1\n        uint answerCount;\n        // \n        bool isSolved;\n        // ipfs\n        string taskImageLink;\n        // true false\n        bool isAnswerInRush;\n        // \n        bool isAccept;\n    }\n    // (id)\n    mapping(uint => address) taskIdToPostPoliceUser; \n    // \n    mapping(address => Task[]) taskList;\n    // \n    mapping(uint => Task) allTaskList;\n    //  -> \n    // 1.  \n    // 2.  \n    function postTask(string memory _title, string memory _description, string memory _taskImageLink, bool _isAnswerInRush) external {\n        // \n        Task memory task;\n        // \n        task.id = taskIndex;\n        // \n        task.postTime = block.timestamp;\n        task.title = _title;\n        task.description = _description;\n        task.answerCount = 0;\n        // \n        task.taskImageLink = _taskImageLink;\n        // \n        task.isSolved = false;\n        // \n        task.isAnswerInRush = _isAnswerInRush;\n        // \n        task.isAccept = false;\n        // \n        taskIdToPostPoliceUser[taskIndex] = msg.sender;\n        // \n        taskList[msg.sender].push(task);\n        // \n        allTaskList[taskIndex] = task;\n        // \n        taskIndex++;\n    }\n    // get\n    function getTask() external view returns (Task[] memory) {\n        Task[] memory _List = new Task[](taskIndex);\n        for (uint i = 0; i < taskIndex; i++) {\n            _List[i] = allTaskList[i];\n        }\n        return (_List);\n    } \n    // id\n    mapping(uint => address) taskIdToAnswerRusher;\n    // \n    function acceptTask(uint _taskIndex) external {\n        allTaskList[_taskIndex].isAccept = true;\n        allTaskList[_taskIndex].answerCount = 1;\n        // \n        taskIdToAnswerRusher[_taskIndex] = msg.sender;\n        // -2\n        _transfer(msg.sender, administrator, 2);\n    }\n    // \n    struct TaskAnswer {\n        // id\n        uint id;\n        // \n        string detail;\n        // \n        uint postTime;\n        // \n        address answerAddress;\n    }\n    // (id)\n    mapping (uint => TaskAnswer[]) answerList;\n    // \n    function postTaskAnswer(uint _taskIndex, string memory _detail) external {\n        // \n        TaskAnswer memory answer;\n        // id\n        answer.id = ++allTaskList[_taskIndex].answerCount;\n        // \n        answer.detail = _detail;\n        // \n        answer.postTime = block.timestamp;\n        // \n        answer.answerAddress = msg.sender;\n        // \n        answerList[_taskIndex].push(answer);\n    }\n    // get\n    function getThisTaskAnswer(uint _taskIndex) external view returns (TaskAnswer[] memory) {\n        TaskAnswer[] memory _List = new TaskAnswer[](allTaskList[_taskIndex].answerCount);\n        for (uint i = 0; i < allTaskList[_taskIndex].answerCount; i++) {\n            _List[i] = answerList[_taskIndex][i];\n        }\n        return _List;\n    }\n    // \n    // \n    function _taskFailed(uint _taskIndex) internal {\n        // \n        allTaskList[_taskIndex].isAccept = false;\n    }\n    // \n    function taskFailed(uint _taskIndex) external {\n        _taskFailed(_taskIndex);\n    }\n    //  \n    function taskCompelte(uint _taskIndex, uint _answerIndex, bool _isAdopt) external {\n        if (_isAdopt) {\n            allTaskList[_taskIndex].isSolved = true;\n            if (allTaskList[_taskIndex].isAnswerInRush) {\n                // +2+10\n                _transfer(administrator, taskIdToAnswerRusher[_taskIndex], 12);\n            } else {\n                // \n                _transfer(administrator, answerList[_taskIndex][_answerIndex].answerAddress, 10);\n            }\n        } else {\n            _taskFailed(_taskIndex);\n        }\n    }\n    // \n    // \n    struct Posts {\n        uint id;\n        uint postTime;\n        // \n        uint reward;\n        // \n        uint replyCounts;\n        string title;\n        string description;\n        // \n        string tag;\n        string imageLink;\n        address postUserAdd;\n    }\n    // \n    mapping(uint => Posts) postsList;\n    // \n    function createPosts(string memory _title, string memory _description, string memory _tag, string memory _imageLink, uint _reward) external {\n        Posts memory _post;\n        _post.id = postsIndex;\n        _post.postTime = block.timestamp;\n        _post.reward = _reward;\n        _post.replyCounts = 0;\n        _post.title = _title;\n        _post.description = _description;\n        _post.tag = _tag;\n        _post.imageLink = _imageLink;\n        _post.postUserAdd = msg.sender;\n        // \n        postsList[policeIndex] = _post;\n        postsIndex++;\n    }\n    // get\n    function getPostsList() external view returns (Posts[] memory) {\n        Posts[] memory _List = new Posts[](postsIndex);\n        for (uint i = 0; i < postsIndex; i++) {\n            _List[i] = postsList[i];\n        }\n        return _List;\n    }\n    // \n    struct PostsReply {\n        // id\n        uint postsId;\n        // \n        uint floor;\n        uint postTime;\n        // \n        string details;\n        address postUserAdd;\n    }\n    //  id => \n    mapping(uint => PostsReply[]) replyListOfPosts;\n    // \n    function createPostsReply(uint _postsIndex, string memory _details) external {    \n        PostsReply memory _reply;\n        _reply.postsId = _postsIndex;\n        _reply.floor = ++postsList[_postsIndex].replyCounts;\n        _reply.postTime = block.timestamp;\n        _reply.details = _details;\n        _reply.postUserAdd = msg.sender;\n        // \n        replyListOfPosts[_postsIndex].push(_reply);\n    }\n    // get\n    function getThisPostsReply(uint _postsIndex) external view returns (PostsReply[] memory) {\n        PostsReply[] memory _List = new PostsReply[](postsList[_postsIndex].replyCounts);\n        for (uint i = 0; i < postsList[_postsIndex].replyCounts; i++) {\n            _List[i] = replyListOfPosts[_postsIndex][i];\n        }\n        return _List;\n    }\n}\n",
  "sourcePath": "/Users/peggy_wang/Desktop/workSpace/AntiFraud/contracts/AntiFraud.sol",
  "compiler": {
    "name": "solc",
    "version": "0.8.0+commit.c7dfd78e.Emscripten.clang"
  },
  "schemaVersion": "3.4.6",
  "updatedAt": "2022-04-14T03:50:35.358Z",
  "devdoc": {
    "kind": "dev",
    "methods": {},
    "version": 1
  },
  "userdoc": {
    "kind": "user",
    "methods": {},
    "version": 1
  }
}