{
  "contractName": "Main",
  "abi": [
    {
      "inputs": [],
      "stateMutability": "nonpayable",
      "type": "constructor"
    },
    {
      "inputs": [
        {
          "internalType": "address",
          "name": "_userAdd",
          "type": "address"
        }
      ],
      "name": "getBalanceOf",
      "outputs": [
        {
          "internalType": "uint256",
          "name": "",
          "type": "uint256"
        }
      ],
      "stateMutability": "view",
      "type": "function",
      "constant": true
    },
    {
      "inputs": [
        {
          "internalType": "address",
          "name": "_from",
          "type": "address"
        },
        {
          "internalType": "address",
          "name": "_to",
          "type": "address"
        },
        {
          "internalType": "uint256",
          "name": "_val",
          "type": "uint256"
        }
      ],
      "name": "transfer",
      "outputs": [
        {
          "internalType": "bool",
          "name": "",
          "type": "bool"
        }
      ],
      "stateMutability": "nonpayable",
      "type": "function"
    },
    {
      "inputs": [
        {
          "internalType": "string",
          "name": "_name",
          "type": "string"
        },
        {
          "internalType": "string",
          "name": "_avatarLink",
          "type": "string"
        }
      ],
      "name": "createPoliceUser",
      "outputs": [],
      "stateMutability": "nonpayable",
      "type": "function"
    },
    {
      "inputs": [
        {
          "internalType": "address",
          "name": "_userAdd",
          "type": "address"
        }
      ],
      "name": "getPoliceUser",
      "outputs": [
        {
          "components": [
            {
              "internalType": "uint256",
              "name": "id",
              "type": "uint256"
            },
            {
              "internalType": "string",
              "name": "name",
              "type": "string"
            },
            {
              "internalType": "string",
              "name": "avatarLink",
              "type": "string"
            },
            {
              "internalType": "address",
              "name": "userAdd",
              "type": "address"
            }
          ],
          "internalType": "struct Main.User",
          "name": "",
          "type": "tuple"
        }
      ],
      "stateMutability": "view",
      "type": "function",
      "constant": true
    },
    {
      "inputs": [
        {
          "internalType": "string",
          "name": "_name",
          "type": "string"
        },
        {
          "internalType": "string",
          "name": "_avatarLink",
          "type": "string"
        }
      ],
      "name": "createCivilUser",
      "outputs": [],
      "stateMutability": "nonpayable",
      "type": "function"
    },
    {
      "inputs": [
        {
          "internalType": "address",
          "name": "_userAdd",
          "type": "address"
        }
      ],
      "name": "getCivilUser",
      "outputs": [
        {
          "components": [
            {
              "internalType": "uint256",
              "name": "id",
              "type": "uint256"
            },
            {
              "internalType": "string",
              "name": "name",
              "type": "string"
            },
            {
              "internalType": "string",
              "name": "avatarLink",
              "type": "string"
            },
            {
              "internalType": "address",
              "name": "userAdd",
              "type": "address"
            }
          ],
          "internalType": "struct Main.User",
          "name": "",
          "type": "tuple"
        }
      ],
      "stateMutability": "view",
      "type": "function",
      "constant": true
    },
    {
      "inputs": [
        {
          "internalType": "string",
          "name": "_title",
          "type": "string"
        },
        {
          "internalType": "string",
          "name": "_tag",
          "type": "string"
        },
        {
          "internalType": "string",
          "name": "_description",
          "type": "string"
        },
        {
          "internalType": "string[]",
          "name": "_imageLinks",
          "type": "string[]"
        }
      ],
      "name": "postCase",
      "outputs": [],
      "stateMutability": "nonpayable",
      "type": "function"
    },
    {
      "inputs": [],
      "name": "getCaseList",
      "outputs": [
        {
          "components": [
            {
              "internalType": "uint256",
              "name": "id",
              "type": "uint256"
            },
            {
              "internalType": "string",
              "name": "title",
              "type": "string"
            },
            {
              "internalType": "string",
              "name": "tag",
              "type": "string"
            },
            {
              "internalType": "string",
              "name": "description",
              "type": "string"
            },
            {
              "internalType": "uint256",
              "name": "postTime",
              "type": "uint256"
            },
            {
              "internalType": "string[]",
              "name": "imageLinks",
              "type": "string[]"
            },
            {
              "internalType": "address",
              "name": "userAdd",
              "type": "address"
            },
            {
              "internalType": "address",
              "name": "validitySetUserAdd",
              "type": "address"
            },
            {
              "internalType": "bool",
              "name": "isSetValidity",
              "type": "bool"
            },
            {
              "internalType": "bool",
              "name": "isValid",
              "type": "bool"
            },
            {
              "internalType": "bool",
              "name": "isFraud",
              "type": "bool"
            }
          ],
          "internalType": "struct Main.Case[]",
          "name": "",
          "type": "tuple[]"
        }
      ],
      "stateMutability": "view",
      "type": "function",
      "constant": true
    },
    {
      "inputs": [
        {
          "internalType": "uint256[]",
          "name": "_caseIndex",
          "type": "uint256[]"
        },
        {
          "internalType": "bool[]",
          "name": "_isValid",
          "type": "bool[]"
        }
      ],
      "name": "setCaseValidity",
      "outputs": [],
      "stateMutability": "nonpayable",
      "type": "function"
    },
    {
      "inputs": [],
      "name": "getMyHistoryCaseValiditySet",
      "outputs": [
        {
          "components": [
            {
              "internalType": "uint256",
              "name": "id",
              "type": "uint256"
            },
            {
              "internalType": "string",
              "name": "title",
              "type": "string"
            },
            {
              "internalType": "string",
              "name": "tag",
              "type": "string"
            },
            {
              "internalType": "string",
              "name": "description",
              "type": "string"
            },
            {
              "internalType": "uint256",
              "name": "postTime",
              "type": "uint256"
            },
            {
              "internalType": "string[]",
              "name": "imageLinks",
              "type": "string[]"
            },
            {
              "internalType": "address",
              "name": "userAdd",
              "type": "address"
            },
            {
              "internalType": "address",
              "name": "validitySetUserAdd",
              "type": "address"
            },
            {
              "internalType": "bool",
              "name": "isSetValidity",
              "type": "bool"
            },
            {
              "internalType": "bool",
              "name": "isValid",
              "type": "bool"
            },
            {
              "internalType": "bool",
              "name": "isFraud",
              "type": "bool"
            }
          ],
          "internalType": "struct Main.Case[]",
          "name": "",
          "type": "tuple[]"
        }
      ],
      "stateMutability": "view",
      "type": "function",
      "constant": true
    },
    {
      "inputs": [
        {
          "internalType": "uint256",
          "name": "_caseIndex",
          "type": "uint256"
        },
        {
          "internalType": "bool",
          "name": "_isFraud",
          "type": "bool"
        }
      ],
      "name": "setIsFraudCase",
      "outputs": [],
      "stateMutability": "nonpayable",
      "type": "function"
    },
    {
      "inputs": [
        {
          "internalType": "uint256",
          "name": "_caseIndex",
          "type": "uint256"
        }
      ],
      "name": "getCaseState",
      "outputs": [
        {
          "internalType": "uint256",
          "name": "",
          "type": "uint256"
        }
      ],
      "stateMutability": "view",
      "type": "function",
      "constant": true
    },
    {
      "inputs": [
        {
          "internalType": "uint256",
          "name": "_caseIndex",
          "type": "uint256"
        }
      ],
      "name": "getIsVoted",
      "outputs": [
        {
          "internalType": "bool",
          "name": "",
          "type": "bool"
        }
      ],
      "stateMutability": "view",
      "type": "function",
      "constant": true
    },
    {
      "inputs": [
        {
          "internalType": "uint256",
          "name": "_caseIndex",
          "type": "uint256"
        }
      ],
      "name": "getVoteCountOf",
      "outputs": [
        {
          "internalType": "uint256",
          "name": "",
          "type": "uint256"
        },
        {
          "internalType": "uint256",
          "name": "",
          "type": "uint256"
        },
        {
          "internalType": "uint256",
          "name": "",
          "type": "uint256"
        }
      ],
      "stateMutability": "view",
      "type": "function",
      "constant": true
    },
    {
      "inputs": [
        {
          "internalType": "uint256",
          "name": "_caseIndex",
          "type": "uint256"
        },
        {
          "internalType": "bool",
          "name": "_isFraud",
          "type": "bool"
        }
      ],
      "name": "vote",
      "outputs": [],
      "stateMutability": "nonpayable",
      "type": "function"
    },
    {
      "inputs": [
        {
          "internalType": "string",
          "name": "_title",
          "type": "string"
        },
        {
          "internalType": "string",
          "name": "_tag",
          "type": "string"
        },
        {
          "internalType": "string",
          "name": "_description",
          "type": "string"
        },
        {
          "internalType": "string[]",
          "name": "_imageLinks",
          "type": "string[]"
        }
      ],
      "name": "postTask",
      "outputs": [],
      "stateMutability": "nonpayable",
      "type": "function"
    },
    {
      "inputs": [
        {
          "internalType": "uint256",
          "name": "_caseIndex",
          "type": "uint256"
        }
      ],
      "name": "postTaskFromCase",
      "outputs": [],
      "stateMutability": "nonpayable",
      "type": "function"
    },
    {
      "inputs": [],
      "name": "getTaskList",
      "outputs": [
        {
          "components": [
            {
              "internalType": "uint256",
              "name": "id",
              "type": "uint256"
            },
            {
              "internalType": "string",
              "name": "title",
              "type": "string"
            },
            {
              "internalType": "string",
              "name": "tag",
              "type": "string"
            },
            {
              "internalType": "string",
              "name": "description",
              "type": "string"
            },
            {
              "internalType": "uint256",
              "name": "postTime",
              "type": "uint256"
            },
            {
              "internalType": "uint256",
              "name": "acceptTime",
              "type": "uint256"
            },
            {
              "internalType": "string[]",
              "name": "imageLinks",
              "type": "string[]"
            },
            {
              "internalType": "address",
              "name": "userAdd",
              "type": "address"
            },
            {
              "internalType": "address",
              "name": "acceptAdd",
              "type": "address"
            },
            {
              "internalType": "bool",
              "name": "isAccept",
              "type": "bool"
            },
            {
              "internalType": "bool",
              "name": "isFraud",
              "type": "bool"
            },
            {
              "internalType": "bool",
              "name": "isFinished",
              "type": "bool"
            }
          ],
          "internalType": "struct Main.Task[]",
          "name": "",
          "type": "tuple[]"
        }
      ],
      "stateMutability": "view",
      "type": "function",
      "constant": true
    },
    {
      "inputs": [
        {
          "internalType": "uint256",
          "name": "_taskIndex",
          "type": "uint256"
        }
      ],
      "name": "setCaseAccept",
      "outputs": [],
      "stateMutability": "nonpayable",
      "type": "function"
    },
    {
      "inputs": [
        {
          "internalType": "uint256",
          "name": "_taskIndex",
          "type": "uint256"
        },
        {
          "internalType": "bool",
          "name": "_isFraud",
          "type": "bool"
        },
        {
          "internalType": "string",
          "name": "_details",
          "type": "string"
        }
      ],
      "name": "postReply2Task",
      "outputs": [],
      "stateMutability": "nonpayable",
      "type": "function"
    },
    {
      "inputs": [
        {
          "internalType": "uint256",
          "name": "_taskIndex",
          "type": "uint256"
        }
      ],
      "name": "getTaskReply",
      "outputs": [
        {
          "internalType": "bool",
          "name": "",
          "type": "bool"
        },
        {
          "components": [
            {
              "internalType": "uint256",
              "name": "repoId",
              "type": "uint256"
            },
            {
              "internalType": "uint256",
              "name": "floor",
              "type": "uint256"
            },
            {
              "internalType": "uint256",
              "name": "level",
              "type": "uint256"
            },
            {
              "internalType": "uint256",
              "name": "postTime",
              "type": "uint256"
            },
            {
              "internalType": "string",
              "name": "details",
              "type": "string"
            },
            {
              "internalType": "address",
              "name": "userAdd",
              "type": "address"
            }
          ],
          "internalType": "struct Main.Reply",
          "name": "",
          "type": "tuple"
        }
      ],
      "stateMutability": "view",
      "type": "function",
      "constant": true
    },
    {
      "inputs": [
        {
          "internalType": "uint256",
          "name": "_taskIndex",
          "type": "uint256"
        }
      ],
      "name": "setCaseFinished",
      "outputs": [],
      "stateMutability": "nonpayable",
      "type": "function"
    },
    {
      "inputs": [
        {
          "internalType": "uint256",
          "name": "_taskIndex",
          "type": "uint256"
        }
      ],
      "name": "setCaseFailed",
      "outputs": [],
      "stateMutability": "nonpayable",
      "type": "function"
    },
    {
      "inputs": [
        {
          "internalType": "string",
          "name": "_name",
          "type": "string"
        },
        {
          "internalType": "string",
          "name": "_details",
          "type": "string"
        },
        {
          "internalType": "uint256",
          "name": "_price",
          "type": "uint256"
        },
        {
          "internalType": "uint256",
          "name": "_inventory",
          "type": "uint256"
        }
      ],
      "name": "createProduct",
      "outputs": [],
      "stateMutability": "nonpayable",
      "type": "function"
    },
    {
      "inputs": [],
      "name": "getProductList",
      "outputs": [
        {
          "components": [
            {
              "internalType": "uint256",
              "name": "id",
              "type": "uint256"
            },
            {
              "internalType": "string",
              "name": "name",
              "type": "string"
            },
            {
              "internalType": "string",
              "name": "details",
              "type": "string"
            },
            {
              "internalType": "uint256",
              "name": "price",
              "type": "uint256"
            },
            {
              "internalType": "uint256",
              "name": "inventory",
              "type": "uint256"
            }
          ],
          "internalType": "struct Main.Product[]",
          "name": "",
          "type": "tuple[]"
        }
      ],
      "stateMutability": "view",
      "type": "function",
      "constant": true
    },
    {
      "inputs": [
        {
          "internalType": "uint256",
          "name": "_productIndex",
          "type": "uint256"
        }
      ],
      "name": "purchase",
      "outputs": [],
      "stateMutability": "nonpayable",
      "type": "function"
    },
    {
      "inputs": [
        {
          "internalType": "string",
          "name": "_title",
          "type": "string"
        },
        {
          "internalType": "string",
          "name": "_description",
          "type": "string"
        },
        {
          "internalType": "string",
          "name": "_tag",
          "type": "string"
        },
        {
          "internalType": "string[]",
          "name": "_imageLink",
          "type": "string[]"
        },
        {
          "internalType": "uint256",
          "name": "_price",
          "type": "uint256"
        }
      ],
      "name": "postTransactionPost",
      "outputs": [],
      "stateMutability": "nonpayable",
      "type": "function"
    },
    {
      "inputs": [],
      "name": "getTransactionPostList",
      "outputs": [
        {
          "components": [
            {
              "internalType": "uint256",
              "name": "id",
              "type": "uint256"
            },
            {
              "internalType": "uint256",
              "name": "postTime",
              "type": "uint256"
            },
            {
              "internalType": "string",
              "name": "title",
              "type": "string"
            },
            {
              "internalType": "string",
              "name": "description",
              "type": "string"
            },
            {
              "internalType": "string",
              "name": "tag",
              "type": "string"
            },
            {
              "internalType": "string[]",
              "name": "imageLink",
              "type": "string[]"
            },
            {
              "internalType": "uint256",
              "name": "price",
              "type": "uint256"
            },
            {
              "internalType": "address",
              "name": "userAdd",
              "type": "address"
            },
            {
              "internalType": "uint256",
              "name": "replyCounts",
              "type": "uint256"
            }
          ],
          "internalType": "struct Main.TransactionPost[]",
          "name": "",
          "type": "tuple[]"
        }
      ],
      "stateMutability": "view",
      "type": "function",
      "constant": true
    },
    {
      "inputs": [
        {
          "internalType": "uint256",
          "name": "_transactionPostIndex",
          "type": "uint256"
        },
        {
          "internalType": "uint256",
          "name": "_level",
          "type": "uint256"
        },
        {
          "internalType": "string",
          "name": "_details",
          "type": "string"
        }
      ],
      "name": "postReply2TransactionPost",
      "outputs": [],
      "stateMutability": "nonpayable",
      "type": "function"
    },
    {
      "inputs": [
        {
          "internalType": "uint256",
          "name": "_transactionPostIndex",
          "type": "uint256"
        }
      ],
      "name": "getTransactionPostReplyList",
      "outputs": [
        {
          "components": [
            {
              "internalType": "uint256",
              "name": "repoId",
              "type": "uint256"
            },
            {
              "internalType": "uint256",
              "name": "floor",
              "type": "uint256"
            },
            {
              "internalType": "uint256",
              "name": "level",
              "type": "uint256"
            },
            {
              "internalType": "uint256",
              "name": "postTime",
              "type": "uint256"
            },
            {
              "internalType": "string",
              "name": "details",
              "type": "string"
            },
            {
              "internalType": "address",
              "name": "userAdd",
              "type": "address"
            }
          ],
          "internalType": "struct Main.Reply[]",
          "name": "",
          "type": "tuple[]"
        }
      ],
      "stateMutability": "view",
      "type": "function",
      "constant": true
    }
  ],
  "bytecode": "0x608060405234801561001057600080fd5b506103e860008190555033600160006101000a81548173ffffffffffffffffffffffffffffffffffffffff021916908373ffffffffffffffffffffffffffffffffffffffff160217905550600054600260003373ffffffffffffffffffffffffffffffffffffffff1673ffffffffffffffffffffffffffffffffffffffff16815260200190815260200160002081905550600060038190555060006004819055506000600581905550600060068190555060006007819055506000600881905550615df880620000e16000396000f3fe608060405234801561001057600080fd5b50600436106101da5760003560e01c8063978b3e2711610104578063c9d27afe116100a2578063e6ba4be911610071578063e6ba4be914610560578063efef39a114610590578063f287c3cc146105ac578063f3d5df06146105ca576101da565b8063c9d27afe146104f0578063d0a668361461050c578063d0cbd85c14610528578063e4c28bd414610544576101da565b8063b5563a92116100de578063b5563a9214610458578063b7e21b8814610474578063beabacc814610490578063c94d0903146104c0576101da565b8063978b3e27146103f05780639b96eece1461040c5780639bbfdcbe1461043c576101da565b8063381aefa21161017c5780634affc6af1161014b5780634affc6af146103575780635e4e6e88146103885780637fd4714a146103a457806390d16cba146103d4576101da565b8063381aefa2146102cf57806338940fae146102ff57806348bdf9551461031d5780634a7ba3b21461033b576101da565b8063279d0ab6116101b8578063279d0ab6146102475780632f9fe5521461026357806331c89ff11461027f57806334d2c0ad146102b1576101da565b80630421cc33146101df5780630ab2bea31461020f578063165e2d131461022b575b600080fd5b6101f960048036038101906101f4919061481b565b6105e8565b604051610206919061584a565b60405180910390f35b61022960048036038101906102249190614893565b6107c5565b005b61024560048036038101906102409190614b98565b610c85565b005b610261600480360381019061025c9190614b98565b611068565b005b61027d6004803603810190610278919061496b565b6110ff565b005b61029960048036038101906102949190614b98565b611393565b6040516102a893929190615887565b60405180910390f35b6102b961142a565b6040516102c691906156d7565b60405180910390f35b6102e960048036038101906102e49190614b98565b611684565b6040516102f6919061575f565b60405180910390f35b610307611730565b604051610314919061571b565b60405180910390f35b610325611bf3565b604051610332919061573d565b60405180910390f35b61035560048036038101906103509190614b98565b612019565b005b610371600480360381019061036c9190614b98565b6120bd565b60405161037f92919061577a565b60405180910390f35b6103a2600480360381019061039d91906148ff565b612225565b005b6103be60048036038101906103b99190614b98565b612368565b6040516103cb919061586c565b60405180910390f35b6103ee60048036038101906103e99190614b05565b6123d7565b005b61040a600480360381019061040591906148ff565b61249b565b005b6104266004803603810190610421919061481b565b6125de565b604051610433919061586c565b60405180910390f35b61045660048036038101906104519190614bfd565b6125f0565b005b610472600480360381019061046d9190614bc1565b61273a565b005b61048e6004803603810190610489919061496b565b6127f5565b005b6104aa60048036038101906104a59190614844565b612807565b6040516104b7919061575f565b60405180910390f35b6104da60048036038101906104d59190614b98565b61281d565b6040516104e791906156f9565b60405180910390f35b61050a60048036038101906105059190614bc1565b612aa9565b005b61052660048036038101906105219190614a2e565b612be4565b005b610542600480360381019061053d9190614b98565b612d8b565b005b61055e60048036038101906105599190614c64565b612ede565b005b61057a6004803603810190610575919061481b565b613048565b604051610587919061584a565b60405180910390f35b6105aa60048036038101906105a59190614b98565b613225565b005b6105b4613387565b6040516105c191906156b5565b60405180910390f35b6105d2613949565b6040516105df91906156b5565b60405180910390f35b6105f06141ff565b600960008373ffffffffffffffffffffffffffffffffffffffff1673ffffffffffffffffffffffffffffffffffffffff1681526020019081526020016000206040518060800160405290816000820154815260200160018201805461065490615c64565b80601f016020809104026020016040519081016040528092919081815260200182805461068090615c64565b80156106cd5780601f106106a2576101008083540402835291602001916106cd565b820191906000526020600020905b8154815290600101906020018083116106b057829003601f168201915b505050505081526020016002820180546106e690615c64565b80601f016020809104026020016040519081016040528092919081815260200182805461071290615c64565b801561075f5780601f106107345761010080835404028352916020019161075f565b820191906000526020600020905b81548152906001019060200180831161074257829003601f168201915b505050505081526020016003820160009054906101000a900473ffffffffffffffffffffffffffffffffffffffff1673ffffffffffffffffffffffffffffffffffffffff1673ffffffffffffffffffffffffffffffffffffffff16815250509050919050565b60005b8251811015610c80576000600b6000858481518110610810577f4e487b7100000000000000000000000000000000000000000000000000000000600052603260045260246000fd5b6020026020010151815260200190815260200160002060000154141561086b576040517f08c379a0000000000000000000000000000000000000000000000000000000008152600401610862906157ea565b60405180910390fd5b33600b60008584815181106108a9577f4e487b7100000000000000000000000000000000000000000000000000000000600052603260045260246000fd5b6020026020010151815260200190815260200160002060070160006101000a81548173ffffffffffffffffffffffffffffffffffffffff021916908373ffffffffffffffffffffffffffffffffffffffff1602179055506001600b600085848151811061093f577f4e487b7100000000000000000000000000000000000000000000000000000000600052603260045260246000fd5b6020026020010151815260200190815260200160002060070160146101000a81548160ff0219169083151502179055508181815181106109a8577f4e487b7100000000000000000000000000000000000000000000000000000000600052603260045260246000fd5b6020026020010151600b60008584815181106109ed577f4e487b7100000000000000000000000000000000000000000000000000000000600052603260045260246000fd5b6020026020010151815260200190815260200160002060070160156101000a81548160ff021916908315150217905550610a4b600160009054906101000a900473ffffffffffffffffffffffffffffffffffffffff16336001613e02565b50818181518110610a85577f4e487b7100000000000000000000000000000000000000000000000000000000600052603260045260246000fd5b602002602001015115610b3c57610b36600160009054906101000a900473ffffffffffffffffffffffffffffffffffffffff16600b6000868581518110610af5577f4e487b7100000000000000000000000000000000000000000000000000000000600052603260045260246000fd5b6020026020010151815260200190815260200160002060060160009054906101000a900473ffffffffffffffffffffffffffffffffffffffff166005613e02565b50610c6d565b600b6000848381518110610b79577f4e487b7100000000000000000000000000000000000000000000000000000000600052603260045260246000fd5b60200260200101518152602001908152602001600020600080820160009055600182016000610ba8919061423d565b600282016000610bb8919061423d565b600382016000610bc8919061423d565b6004820160009055600582016000610be0919061427d565b6006820160006101000a81549073ffffffffffffffffffffffffffffffffffffffff02191690556007820160006101000a81549073ffffffffffffffffffffffffffffffffffffffff02191690556007820160146101000a81549060ff02191690556007820160156101000a81549060ff02191690556007820160166101000a81549060ff021916905550505b8080610c7890615c96565b9150506107c8565b505050565b6000600b60008381526020019081526020016000206040518061016001604052908160008201548152602001600182018054610cc090615c64565b80601f0160208091040260200160405190810160405280929190818152602001828054610cec90615c64565b8015610d395780601f10610d0e57610100808354040283529160200191610d39565b820191906000526020600020905b815481529060010190602001808311610d1c57829003601f168201915b50505050508152602001600282018054610d5290615c64565b80601f0160208091040260200160405190810160405280929190818152602001828054610d7e90615c64565b8015610dcb5780601f10610da057610100808354040283529160200191610dcb565b820191906000526020600020905b815481529060010190602001808311610dae57829003601f168201915b50505050508152602001600382018054610de490615c64565b80601f0160208091040260200160405190810160405280929190818152602001828054610e1090615c64565b8015610e5d5780601f10610e3257610100808354040283529160200191610e5d565b820191906000526020600020905b815481529060010190602001808311610e4057829003601f168201915b505050505081526020016004820154815260200160058201805480602002602001604051908101604052809291908181526020016000905b82821015610f41578382906000526020600020018054610eb490615c64565b80601f0160208091040260200160405190810160405280929190818152602001828054610ee090615c64565b8015610f2d5780601f10610f0257610100808354040283529160200191610f2d565b820191906000526020600020905b815481529060010190602001808311610f1057829003601f168201915b505050505081526020019060010190610e95565b5050505081526020016006820160009054906101000a900473ffffffffffffffffffffffffffffffffffffffff1673ffffffffffffffffffffffffffffffffffffffff1673ffffffffffffffffffffffffffffffffffffffff1681526020016007820160009054906101000a900473ffffffffffffffffffffffffffffffffffffffff1673ffffffffffffffffffffffffffffffffffffffff1673ffffffffffffffffffffffffffffffffffffffff1681526020016007820160149054906101000a900460ff161515151581526020016007820160159054906101000a900460ff161515151581526020016007820160169054906101000a900460ff16151515158152505090506110648160200151826040015183606001518460a00151613f0b565b5050565b6001600f600083815260200190815260200160002060080160166101000a81548160ff0219169083151502179055506110fb600160009054906101000a900473ffffffffffffffffffffffffffffffffffffffff16600f600084815260200190815260200160002060080160009054906101000a900473ffffffffffffffffffffffffffffffffffffffff166007613e02565b5050565b61110761429e565b60056000815461111690615c96565b91905081905581600001818152505084816020018190525083816040018190525082816060018190525042816080018181525050818160a00181905250338160c0019073ffffffffffffffffffffffffffffffffffffffff16908173ffffffffffffffffffffffffffffffffffffffff168152505060008160e0019073ffffffffffffffffffffffffffffffffffffffff16908173ffffffffffffffffffffffffffffffffffffffff168152505060008161010001901515908115158152505060008161012001901515908115158152505060008161014001901515908115158152505080600b6000600554815260200190815260200160002060008201518160000155602082015181600101908051906020019061123692919061432a565b50604082015181600201908051906020019061125392919061432a565b50606082015181600301908051906020019061127092919061432a565b506080820151816004015560a08201518160050190805190602001906112979291906143b0565b5060c08201518160060160006101000a81548173ffffffffffffffffffffffffffffffffffffffff021916908373ffffffffffffffffffffffffffffffffffffffff16021790555060e08201518160070160006101000a81548173ffffffffffffffffffffffffffffffffffffffff021916908373ffffffffffffffffffffffffffffffffffffffff1602179055506101008201518160070160146101000a81548160ff0219169083151502179055506101208201518160070160156101000a81548160ff0219169083151502179055506101408201518160070160166101000a81548160ff0219169083151502179055509050505050505050565b60008060006005548411156113dd576040517f08c379a00000000000000000000000000000000000000000000000000000000081526004016113d49061582a565b60405180910390fd5b6000600c60008681526020019081526020016000205490506000600d60008781526020019081526020016000205490508181828461141b9190615b26565b94509450945050509193909250565b6060600060075467ffffffffffffffff811115611470577f4e487b7100000000000000000000000000000000000000000000000000000000600052604160045260246000fd5b6040519080825280602002602001820160405280156114a957816020015b611496614410565b81526020019060019003908161148e5790505b50905060005b60075481101561167c57601160006001836114ca9190615b26565b81526020019081526020016000206040518060a0016040529081600082015481526020016001820180546114fd90615c64565b80601f016020809104026020016040519081016040528092919081815260200182805461152990615c64565b80156115765780601f1061154b57610100808354040283529160200191611576565b820191906000526020600020905b81548152906001019060200180831161155957829003601f168201915b5050505050815260200160028201805461158f90615c64565b80601f01602080910402602001604051908101604052809291908181526020018280546115bb90615c64565b80156116085780601f106115dd57610100808354040283529160200191611608565b820191906000526020600020905b8154815290600101906020018083116115eb57829003601f168201915b505050505081526020016003820154815260200160048201548152505082828151811061165e577f4e487b7100000000000000000000000000000000000000000000000000000000600052603260045260246000fd5b6020026020010181905250808061167490615c96565b9150506114af565b508091505090565b60006005548211156116cb576040517f08c379a00000000000000000000000000000000000000000000000000000000081526004016116c29061582a565b60405180910390fd5b600e600083815260200190815260200160002060003373ffffffffffffffffffffffffffffffffffffffff1673ffffffffffffffffffffffffffffffffffffffff16815260200190815260200160002060009054906101000a900460ff169050919050565b6060600060065467ffffffffffffffff811115611776577f4e487b7100000000000000000000000000000000000000000000000000000000600052604160045260246000fd5b6040519080825280602002602001820160405280156117af57816020015b61179c61443f565b8152602001906001900390816117945790505b50905060005b600654811015611beb57600f60006001836117d09190615b26565b8152602001908152602001600020604051806101800160405290816000820154815260200160018201805461180490615c64565b80601f016020809104026020016040519081016040528092919081815260200182805461183090615c64565b801561187d5780601f106118525761010080835404028352916020019161187d565b820191906000526020600020905b81548152906001019060200180831161186057829003601f168201915b5050505050815260200160028201805461189690615c64565b80601f01602080910402602001604051908101604052809291908181526020018280546118c290615c64565b801561190f5780601f106118e45761010080835404028352916020019161190f565b820191906000526020600020905b8154815290600101906020018083116118f257829003601f168201915b5050505050815260200160038201805461192890615c64565b80601f016020809104026020016040519081016040528092919081815260200182805461195490615c64565b80156119a15780601f10611976576101008083540402835291602001916119a1565b820191906000526020600020905b81548152906001019060200180831161198457829003601f168201915b50505050508152602001600482015481526020016005820154815260200160068201805480602002602001604051908101604052809291908181526020016000905b82821015611a8f578382906000526020600020018054611a0290615c64565b80601f0160208091040260200160405190810160405280929190818152602001828054611a2e90615c64565b8015611a7b5780601f10611a5057610100808354040283529160200191611a7b565b820191906000526020600020905b815481529060010190602001808311611a5e57829003601f168201915b5050505050815260200190600101906119e3565b5050505081526020016007820160009054906101000a900473ffffffffffffffffffffffffffffffffffffffff1673ffffffffffffffffffffffffffffffffffffffff1673ffffffffffffffffffffffffffffffffffffffff1681526020016008820160009054906101000a900473ffffffffffffffffffffffffffffffffffffffff1673ffffffffffffffffffffffffffffffffffffffff1673ffffffffffffffffffffffffffffffffffffffff1681526020016008820160149054906101000a900460ff161515151581526020016008820160159054906101000a900460ff161515151581526020016008820160169054906101000a900460ff161515151581525050828281518110611bcd577f4e487b7100000000000000000000000000000000000000000000000000000000600052603260045260246000fd5b60200260200101819052508080611be390615c96565b9150506117b5565b508091505090565b6060600060085467ffffffffffffffff811115611c39577f4e487b7100000000000000000000000000000000000000000000000000000000600052604160045260246000fd5b604051908082528060200260200182016040528015611c7257816020015b611c5f6144d2565b815260200190600190039081611c575790505b50905060005b6008548110156120115760126000600183611c939190615b26565b8152602001908152602001600020604051806101200160405290816000820154815260200160018201548152602001600282018054611cd190615c64565b80601f0160208091040260200160405190810160405280929190818152602001828054611cfd90615c64565b8015611d4a5780601f10611d1f57610100808354040283529160200191611d4a565b820191906000526020600020905b815481529060010190602001808311611d2d57829003601f168201915b50505050508152602001600382018054611d6390615c64565b80601f0160208091040260200160405190810160405280929190818152602001828054611d8f90615c64565b8015611ddc5780601f10611db157610100808354040283529160200191611ddc565b820191906000526020600020905b815481529060010190602001808311611dbf57829003601f168201915b50505050508152602001600482018054611df590615c64565b80601f0160208091040260200160405190810160405280929190818152602001828054611e2190615c64565b8015611e6e5780601f10611e4357610100808354040283529160200191611e6e565b820191906000526020600020905b815481529060010190602001808311611e5157829003601f168201915b5050505050815260200160058201805480602002602001604051908101604052809291908181526020016000905b82821015611f48578382906000526020600020018054611ebb90615c64565b80601f0160208091040260200160405190810160405280929190818152602001828054611ee790615c64565b8015611f345780601f10611f0957610100808354040283529160200191611f34565b820191906000526020600020905b815481529060010190602001808311611f1757829003601f168201915b505050505081526020019060010190611e9c565b505050508152602001600682015481526020016007820160009054906101000a900473ffffffffffffffffffffffffffffffffffffffff1673ffffffffffffffffffffffffffffffffffffffff1673ffffffffffffffffffffffffffffffffffffffff168152602001600882015481525050828281518110611ff3577f4e487b7100000000000000000000000000000000000000000000000000000000600052603260045260246000fd5b6020026020010181905250808061200990615c96565b915050611c78565b508091505090565b6000600f600083815260200190815260200160002060080160146101000a81548160ff0219169083151502179055506000600f600083815260200190815260200160002060080160006101000a81548173ffffffffffffffffffffffffffffffffffffffff021916908373ffffffffffffffffffffffffffffffffffffffff1602179055506000600f60008381526020019081526020016000206005018190555050565b60006120c7614534565b600f600084815260200190815260200160002060080160159054906101000a900460ff1660106000858152602001908152602001600020806040518060c00160405290816000820154815260200160018201548152602001600282015481526020016003820154815260200160048201805461214290615c64565b80601f016020809104026020016040519081016040528092919081815260200182805461216e90615c64565b80156121bb5780601f10612190576101008083540402835291602001916121bb565b820191906000526020600020905b81548152906001019060200180831161219e57829003601f168201915b505050505081526020016005820160009054906101000a900473ffffffffffffffffffffffffffffffffffffffff1673ffffffffffffffffffffffffffffffffffffffff1673ffffffffffffffffffffffffffffffffffffffff1681525050905091509150915091565b61222d6141ff565b60036000815461223c90615c96565b91905081905581600001818152505082816020018190525081816040018190525033816060019073ffffffffffffffffffffffffffffffffffffffff16908173ffffffffffffffffffffffffffffffffffffffff168152505080600960003373ffffffffffffffffffffffffffffffffffffffff1673ffffffffffffffffffffffffffffffffffffffff1681526020019081526020016000206000820151816000015560208201518160010190805190602001906122fb92919061432a565b50604082015181600201908051906020019061231892919061432a565b5060608201518160030160006101000a81548173ffffffffffffffffffffffffffffffffffffffff021916908373ffffffffffffffffffffffffffffffffffffffff160217905550905050505050565b6000600b600083815260200190815260200160002060070160149054906101000a900460ff1661239b57600190506123d2565b600b600083815260200190815260200160002060070160159054906101000a900460ff16156123cd57600290506123d2565b600390505b919050565b6123df614410565b6007600081546123ee90615c96565b91905081905581600001818152505084816020018190525083816040018190525082816060018181525050818160800181815250508060116000600754815260200190815260200160002060008201518160000155602082015181600101908051906020019061245f92919061432a565b50604082015181600201908051906020019061247c92919061432a565b5060608201518160030155608082015181600401559050505050505050565b6124a36141ff565b6004600081546124b290615c96565b91905081905581600001818152505082816020018190525081816040018190525033816060019073ffffffffffffffffffffffffffffffffffffffff16908173ffffffffffffffffffffffffffffffffffffffff168152505080600a60003373ffffffffffffffffffffffffffffffffffffffff1673ffffffffffffffffffffffffffffffffffffffff16815260200190815260200160002060008201518160000155602082015181600101908051906020019061257192919061432a565b50604082015181600201908051906020019061258e92919061432a565b5060608201518160030160006101000a81548173ffffffffffffffffffffffffffffffffffffffff021916908373ffffffffffffffffffffffffffffffffffffffff160217905550905050505050565b60006125e9826141b6565b9050919050565b81600f600085815260200190815260200160002060080160156101000a81548160ff021916908315150217905550612626614534565b838160000181815250508181608001819052504281606001818152505060018160200181815250506001816040018181525050338160a0019073ffffffffffffffffffffffffffffffffffffffff16908173ffffffffffffffffffffffffffffffffffffffff168152505080601060008681526020019081526020016000206000820151816000015560208201518160010155604082015181600201556060820151816003015560808201518160040190805190602001906126e992919061432a565b5060a08201518160050160006101000a81548173ffffffffffffffffffffffffffffffffffffffff021916908373ffffffffffffffffffffffffffffffffffffffff16021790555090505050505050565b6000600b6000848152602001908152602001600020600001541415612794576040517f08c379a000000000000000000000000000000000000000000000000000000000815260040161278b906157ea565b60405180910390fd5b80600b600084815260200190815260200160002060070160166101000a81548160ff0219169083151502179055506127f0600160009054906101000a900473ffffffffffffffffffffffffffffffffffffffff16336002613e02565b505050565b61280184848484613f0b565b50505050565b6000612814848484613e02565b90509392505050565b60606000601360008481526020019081526020016000208054905067ffffffffffffffff811115612877577f4e487b7100000000000000000000000000000000000000000000000000000000600052604160045260246000fd5b6040519080825280602002602001820160405280156128b057816020015b61289d614534565b8152602001906001900390816128955790505b50905060005b6013600085815260200190815260200160002080549050811015612a9f5760136000858152602001908152602001600020818154811061291f577f4e487b7100000000000000000000000000000000000000000000000000000000600052603260045260246000fd5b90600052602060002090600602016040518060c00160405290816000820154815260200160018201548152602001600282015481526020016003820154815260200160048201805461297090615c64565b80601f016020809104026020016040519081016040528092919081815260200182805461299c90615c64565b80156129e95780601f106129be576101008083540402835291602001916129e9565b820191906000526020600020905b8154815290600101906020018083116129cc57829003601f168201915b505050505081526020016005820160009054906101000a900473ffffffffffffffffffffffffffffffffffffffff1673ffffffffffffffffffffffffffffffffffffffff1673ffffffffffffffffffffffffffffffffffffffff1681525050828281518110612a81577f4e487b7100000000000000000000000000000000000000000000000000000000600052603260045260246000fd5b60200260200101819052508080612a9790615c96565b9150506128b6565b5080915050919050565b600554821115612aee576040517f08c379a0000000000000000000000000000000000000000000000000000000008152600401612ae59061582a565b60405180910390fd5b6001600e600084815260200190815260200160002060003373ffffffffffffffffffffffffffffffffffffffff1673ffffffffffffffffffffffffffffffffffffffff16815260200190815260200160002060006101000a81548160ff0219169083151502179055508015612b8957600c600083815260200190815260200160002060008154612b7d90615c96565b91905081905550612bb1565b600d600083815260200190815260200160002060008154612ba990615c3a565b919050819055505b612bdf600160009054906101000a900473ffffffffffffffffffffffffffffffffffffffff16336001613e02565b505050565b612bec6144d2565b600860008154612bfb90615c96565b91905081905581600001818152505042816020018181525050818160c0018181525050858160400181905250848160600181905250838160800181905250828160a00181905250338160e0019073ffffffffffffffffffffffffffffffffffffffff16908173ffffffffffffffffffffffffffffffffffffffff16815250506000816101000181815250508060126000600854815260200190815260200160002060008201518160000155602082015181600101556040820151816002019080519060200190612ccc92919061432a565b506060820151816003019080519060200190612ce992919061432a565b506080820151816004019080519060200190612d0692919061432a565b5060a0820151816005019080519060200190612d239291906143b0565b5060c0820151816006015560e08201518160070160006101000a81548173ffffffffffffffffffffffffffffffffffffffff021916908373ffffffffffffffffffffffffffffffffffffffff1602179055506101008201518160080155905050505050505050565b6001600f600083815260200190815260200160002060080160146101000a81548160ff02191690831515021790555033600f600083815260200190815260200160002060080160006101000a81548173ffffffffffffffffffffffffffffffffffffffff021916908373ffffffffffffffffffffffffffffffffffffffff16021790555042600f60008381526020019081526020016000206005018190555060028060003373ffffffffffffffffffffffffffffffffffffffff1673ffffffffffffffffffffffffffffffffffffffff168152602001908152602001600020541015612eac576040517f08c379a0000000000000000000000000000000000000000000000000000000008152600401612ea39061580a565b60405180910390fd5b612eda33600160009054906101000a900473ffffffffffffffffffffffffffffffffffffffff166002613e02565b5050565b612ee6614534565b83816000018181525050818160800181905250428160600181815250506012600085815260200190815260200160002060080160008154612f2690615c96565b91905081905581602001818152505082816040018181525050338160a0019073ffffffffffffffffffffffffffffffffffffffff16908173ffffffffffffffffffffffffffffffffffffffff168152505060136000858152602001908152602001600020819080600181540180825580915050600190039060005260206000209060060201600090919091909150600082015181600001556020820151816001015560408201518160020155606082015181600301556080820151816004019080519060200190612ff892919061432a565b5060a08201518160050160006101000a81548173ffffffffffffffffffffffffffffffffffffffff021916908373ffffffffffffffffffffffffffffffffffffffff160217905550505050505050565b6130506141ff565b600a60008373ffffffffffffffffffffffffffffffffffffffff1673ffffffffffffffffffffffffffffffffffffffff168152602001908152602001600020604051806080016040529081600082015481526020016001820180546130b490615c64565b80601f01602080910402602001604051908101604052809291908181526020018280546130e090615c64565b801561312d5780601f106131025761010080835404028352916020019161312d565b820191906000526020600020905b81548152906001019060200180831161311057829003601f168201915b5050505050815260200160028201805461314690615c64565b80601f016020809104026020016040519081016040528092919081815260200182805461317290615c64565b80156131bf5780601f10613194576101008083540402835291602001916131bf565b820191906000526020600020905b8154815290600101906020018083116131a257829003601f168201915b505050505081526020016003820160009054906101000a900473ffffffffffffffffffffffffffffffffffffffff1673ffffffffffffffffffffffffffffffffffffffff1673ffffffffffffffffffffffffffffffffffffffff16815250509050919050565b600060116000838152602001908152602001600020600401541161327e576040517f08c379a0000000000000000000000000000000000000000000000000000000008152600401613275906157ca565b60405180910390fd5b6011600082815260200190815260200160002060030154600260003373ffffffffffffffffffffffffffffffffffffffff1673ffffffffffffffffffffffffffffffffffffffff168152602001908152602001600020541015613316576040517f08c379a000000000000000000000000000000000000000000000000000000000815260040161330d906157aa565b60405180910390fd5b601160008281526020019081526020016000206004016000815461333990615c3a565b9190508190555061338333600160009054906101000a900473ffffffffffffffffffffffffffffffffffffffff166011600085815260200190815260200160002060030154613e02565b5050565b6060600080600190505b6005548111613424573373ffffffffffffffffffffffffffffffffffffffff16600b600083815260200190815260200160002060070160009054906101000a900473ffffffffffffffffffffffffffffffffffffffff1673ffffffffffffffffffffffffffffffffffffffff161415613411578161340e90615c96565b91505b808061341c90615c96565b915050613391565b5060008167ffffffffffffffff811115613467577f4e487b7100000000000000000000000000000000000000000000000000000000600052604160045260246000fd5b6040519080825280602002602001820160405280156134a057816020015b61348d61429e565b8152602001906001900390816134855790505b5090506000600190505b6005548111613940573373ffffffffffffffffffffffffffffffffffffffff16600b600083815260200190815260200160002060070160009054906101000a900473ffffffffffffffffffffffffffffffffffffffff1673ffffffffffffffffffffffffffffffffffffffff16141561392d57600b6000828152602001908152602001600020604051806101600160405290816000820154815260200160018201805461355690615c64565b80601f016020809104026020016040519081016040528092919081815260200182805461358290615c64565b80156135cf5780601f106135a4576101008083540402835291602001916135cf565b820191906000526020600020905b8154815290600101906020018083116135b257829003601f168201915b505050505081526020016002820180546135e890615c64565b80601f016020809104026020016040519081016040528092919081815260200182805461361490615c64565b80156136615780601f1061363657610100808354040283529160200191613661565b820191906000526020600020905b81548152906001019060200180831161364457829003601f168201915b5050505050815260200160038201805461367a90615c64565b80601f01602080910402602001604051908101604052809291908181526020018280546136a690615c64565b80156136f35780601f106136c8576101008083540402835291602001916136f3565b820191906000526020600020905b8154815290600101906020018083116136d657829003601f168201915b505050505081526020016004820154815260200160058201805480602002602001604051908101604052809291908181526020016000905b828210156137d757838290600052602060002001805461374a90615c64565b80601f016020809104026020016040519081016040528092919081815260200182805461377690615c64565b80156137c35780601f10613798576101008083540402835291602001916137c3565b820191906000526020600020905b8154815290600101906020018083116137a657829003601f168201915b50505050508152602001906001019061372b565b5050505081526020016006820160009054906101000a900473ffffffffffffffffffffffffffffffffffffffff1673ffffffffffffffffffffffffffffffffffffffff1673ffffffffffffffffffffffffffffffffffffffff1681526020016007820160009054906101000a900473ffffffffffffffffffffffffffffffffffffffff1673ffffffffffffffffffffffffffffffffffffffff1673ffffffffffffffffffffffffffffffffffffffff1681526020016007820160149054906101000a900460ff161515151581526020016007820160159054906101000a900460ff161515151581526020016007820160169054906101000a900460ff161515151581525050826001836138ea9190615b7c565b81518110613921577f4e487b7100000000000000000000000000000000000000000000000000000000600052603260045260246000fd5b60200260200101819052505b808061393890615c96565b9150506134aa565b50809250505090565b6060600060055467ffffffffffffffff81111561398f577f4e487b7100000000000000000000000000000000000000000000000000000000600052604160045260246000fd5b6040519080825280602002602001820160405280156139c857816020015b6139b561429e565b8152602001906001900390816139ad5790505b50905060005b600554811015613dfa57600b60006001836139e99190615b26565b81526020019081526020016000206040518061016001604052908160008201548152602001600182018054613a1d90615c64565b80601f0160208091040260200160405190810160405280929190818152602001828054613a4990615c64565b8015613a965780601f10613a6b57610100808354040283529160200191613a96565b820191906000526020600020905b815481529060010190602001808311613a7957829003601f168201915b50505050508152602001600282018054613aaf90615c64565b80601f0160208091040260200160405190810160405280929190818152602001828054613adb90615c64565b8015613b285780601f10613afd57610100808354040283529160200191613b28565b820191906000526020600020905b815481529060010190602001808311613b0b57829003601f168201915b50505050508152602001600382018054613b4190615c64565b80601f0160208091040260200160405190810160405280929190818152602001828054613b6d90615c64565b8015613bba5780601f10613b8f57610100808354040283529160200191613bba565b820191906000526020600020905b815481529060010190602001808311613b9d57829003601f168201915b505050505081526020016004820154815260200160058201805480602002602001604051908101604052809291908181526020016000905b82821015613c9e578382906000526020600020018054613c1190615c64565b80601f0160208091040260200160405190810160405280929190818152602001828054613c3d90615c64565b8015613c8a5780601f10613c5f57610100808354040283529160200191613c8a565b820191906000526020600020905b815481529060010190602001808311613c6d57829003601f168201915b505050505081526020019060010190613bf2565b5050505081526020016006820160009054906101000a900473ffffffffffffffffffffffffffffffffffffffff1673ffffffffffffffffffffffffffffffffffffffff1673ffffffffffffffffffffffffffffffffffffffff1681526020016007820160009054906101000a900473ffffffffffffffffffffffffffffffffffffffff1673ffffffffffffffffffffffffffffffffffffffff1673ffffffffffffffffffffffffffffffffffffffff1681526020016007820160149054906101000a900460ff161515151581526020016007820160159054906101000a900460ff161515151581526020016007820160169054906101000a900460ff161515151581525050828281518110613ddc577f4e487b7100000000000000000000000000000000000000000000000000000000600052603260045260246000fd5b60200260200101819052508080613df290615c96565b9150506139ce565b508091505090565b6000806000905082600260008773ffffffffffffffffffffffffffffffffffffffff1673ffffffffffffffffffffffffffffffffffffffff1681526020019081526020016000205410613f005782600260008773ffffffffffffffffffffffffffffffffffffffff1673ffffffffffffffffffffffffffffffffffffffff1681526020019081526020016000206000828254613e9e9190615b7c565b9250508190555082600260008673ffffffffffffffffffffffffffffffffffffffff1673ffffffffffffffffffffffffffffffffffffffff1681526020019081526020016000206000828254613ef49190615b26565b92505081905550600190505b809150509392505050565b613f1361443f565b600660008154613f2290615c96565b9190508190558160000181815250508481602001819052508381604001819052508281606001819052504281608001818152505060008160a0018181525050818160c00181905250338160e0019073ffffffffffffffffffffffffffffffffffffffff16908173ffffffffffffffffffffffffffffffffffffffff1681525050600081610100019073ffffffffffffffffffffffffffffffffffffffff16908173ffffffffffffffffffffffffffffffffffffffff168152505060008161012001901515908115158152505060008161014001901515908115158152505060008161016001901515908115158152505080600f6000600654815260200190815260200160002060008201518160000155602082015181600101908051906020019061404e92919061432a565b50604082015181600201908051906020019061406b92919061432a565b50606082015181600301908051906020019061408892919061432a565b506080820151816004015560a0820151816005015560c08201518160060190805190602001906140b99291906143b0565b5060e08201518160070160006101000a81548173ffffffffffffffffffffffffffffffffffffffff021916908373ffffffffffffffffffffffffffffffffffffffff1602179055506101008201518160080160006101000a81548173ffffffffffffffffffffffffffffffffffffffff021916908373ffffffffffffffffffffffffffffffffffffffff1602179055506101208201518160080160146101000a81548160ff0219169083151502179055506101408201518160080160156101000a81548160ff0219169083151502179055506101608201518160080160166101000a81548160ff0219169083151502179055509050505050505050565b6000600260008373ffffffffffffffffffffffffffffffffffffffff1673ffffffffffffffffffffffffffffffffffffffff168152602001908152602001600020549050919050565b6040518060800160405280600081526020016060815260200160608152602001600073ffffffffffffffffffffffffffffffffffffffff1681525090565b50805461424990615c64565b6000825580601f1061425b575061427a565b601f0160209004906000526020600020908101906142799190614580565b5b50565b508054600082559060005260206000209081019061429b919061459d565b50565b604051806101600160405280600081526020016060815260200160608152602001606081526020016000815260200160608152602001600073ffffffffffffffffffffffffffffffffffffffff168152602001600073ffffffffffffffffffffffffffffffffffffffff1681526020016000151581526020016000151581526020016000151581525090565b82805461433690615c64565b90600052602060002090601f016020900481019282614358576000855561439f565b82601f1061437157805160ff191683800117855561439f565b8280016001018555821561439f579182015b8281111561439e578251825591602001919060010190614383565b5b5090506143ac9190614580565b5090565b8280548282559060005260206000209081019282156143ff579160200282015b828111156143fe5782518290805190602001906143ee92919061432a565b50916020019190600101906143d0565b5b50905061440c919061459d565b5090565b6040518060a0016040528060008152602001606081526020016060815260200160008152602001600081525090565b60405180610180016040528060008152602001606081526020016060815260200160608152602001600081526020016000815260200160608152602001600073ffffffffffffffffffffffffffffffffffffffff168152602001600073ffffffffffffffffffffffffffffffffffffffff1681526020016000151581526020016000151581526020016000151581525090565b60405180610120016040528060008152602001600081526020016060815260200160608152602001606081526020016060815260200160008152602001600073ffffffffffffffffffffffffffffffffffffffff168152602001600081525090565b6040518060c001604052806000815260200160008152602001600081526020016000815260200160608152602001600073ffffffffffffffffffffffffffffffffffffffff1681525090565b5b80821115614599576000816000905550600101614581565b5090565b5b808211156145bd57600081816145b4919061423d565b5060010161459e565b5090565b60006145d46145cf846158ef565b6158be565b905080838252602082019050828560208602820111156145f357600080fd5b60005b85811015614623578161460988826147c7565b8452602084019350602083019250506001810190506145f6565b5050509392505050565b600061464061463b8461591b565b6158be565b9050808382526020820190508260005b85811015614680578135850161466688826147dc565b845260208401935060208301925050600181019050614650565b5050509392505050565b600061469d61469884615947565b6158be565b905080838252602082019050828560208602820111156146bc57600080fd5b60005b858110156146ec57816146d28882614806565b8452602084019350602083019250506001810190506146bf565b5050509392505050565b600061470961470484615973565b6158be565b90508281526020810184848401111561472157600080fd5b61472c848285615bf8565b509392505050565b60008135905061474381615d7d565b92915050565b600082601f83011261475a57600080fd5b813561476a8482602086016145c1565b91505092915050565b600082601f83011261478457600080fd5b813561479484826020860161462d565b91505092915050565b600082601f8301126147ae57600080fd5b81356147be84826020860161468a565b91505092915050565b6000813590506147d681615d94565b92915050565b600082601f8301126147ed57600080fd5b81356147fd8482602086016146f6565b91505092915050565b60008135905061481581615dab565b92915050565b60006020828403121561482d57600080fd5b600061483b84828501614734565b91505092915050565b60008060006060848603121561485957600080fd5b600061486786828701614734565b935050602061487886828701614734565b925050604061488986828701614806565b9150509250925092565b600080604083850312156148a657600080fd5b600083013567ffffffffffffffff8111156148c057600080fd5b6148cc8582860161479d565b925050602083013567ffffffffffffffff8111156148e957600080fd5b6148f585828601614749565b9150509250929050565b6000806040838503121561491257600080fd5b600083013567ffffffffffffffff81111561492c57600080fd5b614938858286016147dc565b925050602083013567ffffffffffffffff81111561495557600080fd5b614961858286016147dc565b9150509250929050565b6000806000806080858703121561498157600080fd5b600085013567ffffffffffffffff81111561499b57600080fd5b6149a7878288016147dc565b945050602085013567ffffffffffffffff8111156149c457600080fd5b6149d0878288016147dc565b935050604085013567ffffffffffffffff8111156149ed57600080fd5b6149f9878288016147dc565b925050606085013567ffffffffffffffff811115614a1657600080fd5b614a2287828801614773565b91505092959194509250565b600080600080600060a08688031215614a4657600080fd5b600086013567ffffffffffffffff811115614a6057600080fd5b614a6c888289016147dc565b955050602086013567ffffffffffffffff811115614a8957600080fd5b614a95888289016147dc565b945050604086013567ffffffffffffffff811115614ab257600080fd5b614abe888289016147dc565b935050606086013567ffffffffffffffff811115614adb57600080fd5b614ae788828901614773565b9250506080614af888828901614806565b9150509295509295909350565b60008060008060808587031215614b1b57600080fd5b600085013567ffffffffffffffff811115614b3557600080fd5b614b41878288016147dc565b945050602085013567ffffffffffffffff811115614b5e57600080fd5b614b6a878288016147dc565b9350506040614b7b87828801614806565b9250506060614b8c87828801614806565b91505092959194509250565b600060208284031215614baa57600080fd5b6000614bb884828501614806565b91505092915050565b60008060408385031215614bd457600080fd5b6000614be285828601614806565b9250506020614bf3858286016147c7565b9150509250929050565b600080600060608486031215614c1257600080fd5b6000614c2086828701614806565b9350506020614c31868287016147c7565b925050604084013567ffffffffffffffff811115614c4e57600080fd5b614c5a868287016147dc565b9150509250925092565b600080600060608486031215614c7957600080fd5b6000614c8786828701614806565b9350506020614c9886828701614806565b925050604084013567ffffffffffffffff811115614cb557600080fd5b614cc1868287016147dc565b9150509250925092565b6000614cd7838361502e565b905092915050565b6000614ceb83836151a7565b905092915050565b6000614cff83836152ab565b905092915050565b6000614d138383615328565b905092915050565b6000614d27838361543a565b905092915050565b6000614d3b8383615553565b905092915050565b614d4c81615bb0565b82525050565b6000614d5d82615a03565b614d678185615a9e565b935083602082028501614d79856159a3565b8060005b85811015614db55784840389528151614d968582614ccb565b9450614da183615a50565b925060208a01995050600181019050614d7d565b50829750879550505050505092915050565b6000614dd282615a0e565b614ddc8185615aaf565b935083602082028501614dee856159b3565b8060005b85811015614e2a5784840389528151614e0b8582614cdf565b9450614e1683615a5d565b925060208a01995050600181019050614df2565b50829750879550505050505092915050565b6000614e4782615a19565b614e518185615ac0565b935083602082028501614e63856159c3565b8060005b85811015614e9f5784840389528151614e808582614cf3565b9450614e8b83615a6a565b925060208a01995050600181019050614e67565b50829750879550505050505092915050565b6000614ebc82615a24565b614ec68185615ad1565b935083602082028501614ed8856159d3565b8060005b85811015614f145784840389528151614ef58582614d07565b9450614f0083615a77565b925060208a01995050600181019050614edc565b50829750879550505050505092915050565b6000614f3182615a2f565b614f3b8185615ae2565b935083602082028501614f4d856159e3565b8060005b85811015614f895784840389528151614f6a8582614d1b565b9450614f7583615a84565b925060208a01995050600181019050614f51565b50829750879550505050505092915050565b6000614fa682615a3a565b614fb08185615af3565b935083602082028501614fc2856159f3565b8060005b85811015614ffe5784840389528151614fdf8582614d2f565b9450614fea83615a91565b925060208a01995050600181019050614fc6565b50829750879550505050505092915050565b61501981615bc2565b82525050565b61502881615bc2565b82525050565b600061503982615a45565b6150438185615b04565b9350615053818560208601615c07565b61505c81615d6c565b840191505092915050565b6000615074601a83615b15565b91507f4372656469742062616c616e6365206e6f7420656e6f756768210000000000006000830152602082019050919050565b60006150b4601583615b15565b91507f496e76656e746f7279206e6f7420656e6f7567682100000000000000000000006000830152602082019050919050565b60006150f4601283615b15565b91507f496e76616c6964206361736520696e64657800000000000000000000000000006000830152602082019050919050565b6000615134601283615b15565b91507f437265646974206e6f7420656e6f7567682100000000000000000000000000006000830152602082019050919050565b6000615174600f83615b15565b91507f43617365204e6f742045786973747300000000000000000000000000000000006000830152602082019050919050565b6000610160830160008301516151c06000860182615697565b50602083015184820360208601526151d8828261502e565b915050604083015184820360408601526151f2828261502e565b9150506060830151848203606086015261520c828261502e565b91505060808301516152216080860182615697565b5060a083015184820360a08601526152398282614d52565b91505060c083015161524e60c0860182614d43565b5060e083015161526160e0860182614d43565b50610100830151615276610100860182615010565b5061012083015161528b610120860182615010565b506101408301516152a0610140860182615010565b508091505092915050565b600060a0830160008301516152c36000860182615697565b50602083015184820360208601526152db828261502e565b915050604083015184820360408601526152f5828261502e565b915050606083015161530a6060860182615697565b50608083015161531d6080860182615697565b508091505092915050565b600060c0830160008301516153406000860182615697565b5060208301516153536020860182615697565b5060408301516153666040860182615697565b5060608301516153796060860182615697565b5060808301518482036080860152615391828261502e565b91505060a08301516153a660a0860182614d43565b508091505092915050565b600060c0830160008301516153c96000860182615697565b5060208301516153dc6020860182615697565b5060408301516153ef6040860182615697565b5060608301516154026060860182615697565b506080830151848203608086015261541a828261502e565b91505060a083015161542f60a0860182614d43565b508091505092915050565b6000610180830160008301516154536000860182615697565b506020830151848203602086015261546b828261502e565b91505060408301518482036040860152615485828261502e565b9150506060830151848203606086015261549f828261502e565b91505060808301516154b46080860182615697565b5060a08301516154c760a0860182615697565b5060c083015184820360c08601526154df8282614d52565b91505060e08301516154f460e0860182614d43565b50610100830151615509610100860182614d43565b5061012083015161551e610120860182615010565b50610140830151615533610140860182615010565b50610160830151615548610160860182615010565b508091505092915050565b60006101208301600083015161556c6000860182615697565b50602083015161557f6020860182615697565b5060408301518482036040860152615597828261502e565b915050606083015184820360608601526155b1828261502e565b915050608083015184820360808601526155cb828261502e565b91505060a083015184820360a08601526155e58282614d52565b91505060c08301516155fa60c0860182615697565b5060e083015161560d60e0860182614d43565b50610100830151615622610100860182615697565b508091505092915050565b60006080830160008301516156456000860182615697565b506020830151848203602086015261565d828261502e565b91505060408301518482036040860152615677828261502e565b915050606083015161568c6060860182614d43565b508091505092915050565b6156a081615bee565b82525050565b6156af81615bee565b82525050565b600060208201905081810360008301526156cf8184614dc7565b905092915050565b600060208201905081810360008301526156f18184614e3c565b905092915050565b600060208201905081810360008301526157138184614eb1565b905092915050565b600060208201905081810360008301526157358184614f26565b905092915050565b600060208201905081810360008301526157578184614f9b565b905092915050565b6000602082019050615774600083018461501f565b92915050565b600060408201905061578f600083018561501f565b81810360208301526157a181846153b1565b90509392505050565b600060208201905081810360008301526157c381615067565b9050919050565b600060208201905081810360008301526157e3816150a7565b9050919050565b60006020820190508181036000830152615803816150e7565b9050919050565b6000602082019050818103600083015261582381615127565b9050919050565b6000602082019050818103600083015261584381615167565b9050919050565b60006020820190508181036000830152615864818461562d565b905092915050565b600060208201905061588160008301846156a6565b92915050565b600060608201905061589c60008301866156a6565b6158a960208301856156a6565b6158b660408301846156a6565b949350505050565b6000604051905081810181811067ffffffffffffffff821117156158e5576158e4615d3d565b5b8060405250919050565b600067ffffffffffffffff82111561590a57615909615d3d565b5b602082029050602081019050919050565b600067ffffffffffffffff82111561593657615935615d3d565b5b602082029050602081019050919050565b600067ffffffffffffffff82111561596257615961615d3d565b5b602082029050602081019050919050565b600067ffffffffffffffff82111561598e5761598d615d3d565b5b601f19601f8301169050602081019050919050565b6000819050602082019050919050565b6000819050602082019050919050565b6000819050602082019050919050565b6000819050602082019050919050565b6000819050602082019050919050565b6000819050602082019050919050565b600081519050919050565b600081519050919050565b600081519050919050565b600081519050919050565b600081519050919050565b600081519050919050565b600081519050919050565b6000602082019050919050565b6000602082019050919050565b6000602082019050919050565b6000602082019050919050565b6000602082019050919050565b6000602082019050919050565b600082825260208201905092915050565b600082825260208201905092915050565b600082825260208201905092915050565b600082825260208201905092915050565b600082825260208201905092915050565b600082825260208201905092915050565b600082825260208201905092915050565b600082825260208201905092915050565b6000615b3182615bee565b9150615b3c83615bee565b9250827fffffffffffffffffffffffffffffffffffffffffffffffffffffffffffffffff03821115615b7157615b70615cdf565b5b828201905092915050565b6000615b8782615bee565b9150615b9283615bee565b925082821015615ba557615ba4615cdf565b5b828203905092915050565b6000615bbb82615bce565b9050919050565b60008115159050919050565b600073ffffffffffffffffffffffffffffffffffffffff82169050919050565b6000819050919050565b82818337600083830152505050565b60005b83811015615c25578082015181840152602081019050615c0a565b83811115615c34576000848401525b50505050565b6000615c4582615bee565b91506000821415615c5957615c58615cdf565b5b600182039050919050565b60006002820490506001821680615c7c57607f821691505b60208210811415615c9057615c8f615d0e565b5b50919050565b6000615ca182615bee565b91507fffffffffffffffffffffffffffffffffffffffffffffffffffffffffffffffff821415615cd457615cd3615cdf565b5b600182019050919050565b7f4e487b7100000000000000000000000000000000000000000000000000000000600052601160045260246000fd5b7f4e487b7100000000000000000000000000000000000000000000000000000000600052602260045260246000fd5b7f4e487b7100000000000000000000000000000000000000000000000000000000600052604160045260246000fd5b6000601f19601f8301169050919050565b615d8681615bb0565b8114615d9157600080fd5b50565b615d9d81615bc2565b8114615da857600080fd5b50565b615db481615bee565b8114615dbf57600080fd5b5056fea2646970667358221220359705f70bd311b1afcfb69d99626645804ee087beea6b8b7e83007aad6048d764736f6c63430008000033",
  "immutableReferences": {},
  "source": "// SPDX-License-Identifier: MIT\r\npragma solidity >=0.7.0 <0.9.0;\r\n\r\n// \r\ncontract Main {\r\n    // \r\n    uint256 totalCredit;\r\n    // \r\n    address administrator;\r\n    // \r\n    mapping(address => uint) balanceOf;\r\n\r\n    // \r\n    uint policeIndex;\r\n    uint civilIndex;\r\n    uint caseIndex;\r\n    uint taskIndex;\r\n    uint productIndex;\r\n    uint transactionPostIndex;\r\n\r\n    constructor() {\r\n        totalCredit = 1000;\r\n        administrator = msg.sender;\r\n        // \r\n        balanceOf[msg.sender] = totalCredit;\r\n        \r\n        policeIndex = 0;\r\n        civilIndex = 0;\r\n        caseIndex = 0;\r\n        taskIndex = 0;\r\n        productIndex = 0;\r\n        transactionPostIndex = 0;\r\n    }\r\n\r\n    // \r\n    function _getBalanceOf(address _userAdd) internal view returns (uint) {\r\n        return (balanceOf[_userAdd]);\r\n    }\r\n\r\n    function getBalanceOf(address _userAdd) external view returns (uint) {\r\n        return _getBalanceOf(_userAdd);\r\n    }\r\n\r\n    // \r\n    // \r\n    function _transfer(address _from, address _to, uint _val) internal returns (bool) {\r\n        bool success = false;\r\n        if (balanceOf[_from] >= _val) {\r\n            balanceOf[_from] -= _val;\r\n            balanceOf[_to] += _val;\r\n            success = true;\r\n        }\r\n        return success;\r\n    }\r\n\r\n    function transfer(address _from, address _to, uint _val) external returns (bool) {\r\n        return _transfer(_from, _to, _val);\r\n    }\r\n\r\n    // \r\n    struct User {\r\n        // id\r\n        uint id;\r\n        // \r\n        string name;\r\n        // \r\n        string avatarLink;\r\n        // \r\n        address userAdd;\r\n    }\r\n\r\n    // \r\n    mapping(address => User) policeList;\r\n\r\n    // \r\n    function createPoliceUser(string memory _name, string memory _avatarLink) external {\r\n        User memory _police;\r\n        _police.id = ++policeIndex;\r\n        _police.name = _name;\r\n        _police.avatarLink = _avatarLink;\r\n        _police.userAdd = msg.sender;\r\n        policeList[msg.sender] = _police;\r\n    }\r\n\r\n    // \r\n    function getPoliceUser(address _userAdd) external view returns (User memory) {\r\n        return policeList[_userAdd];\r\n    }\r\n\r\n    // \r\n    mapping(address => User) civilList;\r\n\r\n    // \r\n    function createCivilUser(string memory _name, string memory _avatarLink) external {\r\n        User memory _civil;\r\n        _civil.id = ++civilIndex;\r\n        _civil.name = _name;\r\n        _civil.avatarLink = _avatarLink;\r\n        _civil.userAdd = msg.sender;\r\n        civilList[msg.sender] = _civil;\r\n    }\r\n\r\n    // \r\n    function getCivilUser(address _userAdd) external view returns (User memory) {\r\n        return civilList[_userAdd]; \r\n    }\r\n\r\n    // \r\n    struct Reply {\r\n        // id\r\n        uint repoId;\r\n        // \r\n        uint floor;\r\n        // \r\n        //  = 1  = 2...\r\n        uint level;\r\n        uint postTime;\r\n        // \r\n        string details;\r\n        // \r\n        address userAdd;\r\n    }\r\n\r\n    // \r\n    struct Case {\r\n        uint id;\r\n        string title;\r\n        // \r\n        string tag;\r\n        string description;\r\n        uint postTime;\r\n        string[] imageLinks;\r\n        // \r\n        address userAdd;\r\n        // \r\n        address validitySetUserAdd;\r\n        // \r\n        bool isSetValidity;\r\n        // \r\n        bool isValid;\r\n        // \r\n        bool isFraud;\r\n    }\r\n\r\n    // \r\n    mapping(uint => Case) caseList;\r\n\r\n    //  -> \r\n    function postCase(string memory _title, string memory _tag, string memory _description, string[] memory _imageLinks) external {\r\n        Case memory _case;\r\n        _case.id = ++caseIndex;\r\n        _case.title = _title;\r\n        _case.tag = _tag;\r\n        _case.description = _description;\r\n        _case.postTime = block.timestamp;\r\n        _case.imageLinks = _imageLinks;\r\n        _case.userAdd = msg.sender;\r\n        _case.validitySetUserAdd = address(0);\r\n        _case.isSetValidity = false;\r\n        _case.isValid = false;\r\n        _case.isFraud = false;\r\n        // \r\n        caseList[caseIndex] = _case;\r\n    } \r\n\r\n    // \r\n    function getCaseList() external view returns (Case[] memory) {\r\n        Case[] memory _List = new Case[](caseIndex);\r\n        for (uint i = 0; i < caseIndex; i++) {\r\n            _List[i] = caseList[i + 1];\r\n        }\r\n        return (_List);\r\n    }\r\n\r\n    // \r\n    function setCaseValidity(uint[] memory _caseIndex, bool[] memory _isValid) external {\r\n        for (uint i = 0; i < _caseIndex.length; i++) {\r\n            require(caseList[_caseIndex[i]].id != 0, \"Invalid case index\");\r\n            caseList[_caseIndex[i]].validitySetUserAdd = msg.sender;\r\n            caseList[_caseIndex[i]].isSetValidity = true;\r\n            caseList[_caseIndex[i]].isValid = _isValid[i];\r\n            // +1\r\n            _transfer(administrator, msg.sender, 1);\r\n            if (_isValid[i]) {\r\n                //  +5\r\n                _transfer(administrator, caseList[_caseIndex[i]].userAdd, 5);\r\n            } else {\r\n                //  \r\n                delete caseList[_caseIndex[i]];\r\n            }\r\n        }\r\n    }\r\n\r\n    // \r\n    function getMyHistoryCaseValiditySet() external view returns (Case[] memory) {\r\n        uint siz = 0; \r\n        for (uint i = 1; i <= caseIndex; i++) {\r\n            if (caseList[i].validitySetUserAdd == msg.sender) {\r\n                ++siz;\r\n            }\r\n        }\r\n        Case[] memory _List = new Case[](siz);\r\n        for (uint i = 1; i <= caseIndex; i++) {\r\n            if (caseList[i].validitySetUserAdd == msg.sender) {\r\n                _List[i - 1] = caseList[i];\r\n            }\r\n        }\r\n        return _List;\r\n    }\r\n\r\n    // \r\n    function setIsFraudCase(uint _caseIndex, bool _isFraud) external {\r\n        require(caseList[_caseIndex].id != 0, \"Invalid case index\");\r\n        caseList[_caseIndex].isFraud = _isFraud;\r\n        // +2\r\n        _transfer(administrator, msg.sender, 2);\r\n    } \r\n\r\n    // \r\n    function getCaseState(uint _caseIndex) external view returns (uint) {\r\n        if (!caseList[_caseIndex].isSetValidity) {\r\n            // \r\n            return 1;\r\n        } else {\r\n            if (caseList[_caseIndex].isValid) {\r\n                //\r\n                return 2;\r\n            } else {\r\n                // \r\n                return 3;\r\n            }\r\n        }\r\n    }  \r\n\r\n    // \r\n    //  \r\n    mapping(uint => uint) voteYesCount;\r\n    \r\n    // \r\n    mapping(uint => uint) voteNoCount;\r\n\r\n    //  \r\n    mapping(uint => mapping(address => bool)) isVotedThisAddress;\r\n\r\n    // \r\n    function getIsVoted(uint _caseIndex) external view returns (bool) {\r\n        require(_caseIndex <= caseIndex, \"Case Not Exists\");\r\n        return isVotedThisAddress[_caseIndex][msg.sender];\r\n    }\r\n\r\n    // \r\n    //    \r\n    function getVoteCountOf(uint _caseIndex) external view returns (uint, uint, uint) {\r\n        require(_caseIndex <= caseIndex, \"Case Not Exists\");\r\n        uint _yes = voteYesCount[_caseIndex];\r\n        uint _no = voteNoCount[_caseIndex];\r\n        return (_yes, _no, _yes + _no);\r\n    }\r\n    \r\n    // \r\n    function vote(uint _caseIndex, bool _isFraud) external {\r\n        require(_caseIndex <= caseIndex, \"Case Not Exists\");\r\n        isVotedThisAddress[_caseIndex][msg.sender] = true;\r\n        if (_isFraud) {\r\n            ++voteYesCount[_caseIndex];\r\n        } else {\r\n            --voteNoCount[_caseIndex];\r\n        }\r\n        // +1\r\n        _transfer(administrator, msg.sender, 1);\r\n    }\r\n\r\n    // \r\n    //  => \r\n    struct Task {\r\n        uint id;\r\n        string title;\r\n        string tag;\r\n        string description;\r\n        uint postTime;\r\n        // \r\n        uint acceptTime;\r\n        string[] imageLinks;\r\n        // \r\n        address userAdd;\r\n        // \r\n        address acceptAdd;\r\n        // \r\n        bool isAccept;\r\n        // \r\n        bool isFraud;\r\n        // \r\n        bool isFinished;\r\n    }\r\n\r\n    // \r\n    mapping(uint => Task) taskList;\r\n\r\n    // \r\n    function _postTask(string memory _title, string memory _tag, string memory _description, string[] memory _imageLinks) internal {\r\n        Task memory _task;\r\n        _task.id = ++taskIndex;\r\n        _task.title = _title;\r\n        _task.tag = _tag;\r\n        _task.description = _description;\r\n        _task.postTime = block.timestamp;\r\n        _task.acceptTime = 0;\r\n        _task.imageLinks = _imageLinks;\r\n        _task.userAdd = msg.sender;\r\n        _task.acceptAdd = address(0);\r\n        _task.isAccept = false;\r\n        _task.isFraud = false;\r\n        _task.isFinished = false;\r\n        taskList[taskIndex] = _task;\r\n    }\r\n\r\n    function postTask(string memory _title, string memory _tag, string memory _description, string[] memory _imageLinks) external {\r\n        _postTask(_title, _tag, _description, _imageLinks);\r\n    }\r\n\r\n    // \r\n    function postTaskFromCase(uint _caseIndex) external {\r\n        Case memory _case = caseList[_caseIndex];\r\n        _postTask(_case.title, _case.tag, _case.description, _case.imageLinks);\r\n    }\r\n\r\n    // \r\n    function getTaskList() external view returns (Task[] memory) {\r\n        Task[] memory _List = new Task[](taskIndex);\r\n        for (uint i = 0; i < taskIndex; i++) {\r\n            _List[i] = taskList[i + 1];\r\n        }\r\n        return (_List);\r\n    }\r\n\r\n    // \r\n    function setCaseAccept(uint _taskIndex) external {\r\n        taskList[_taskIndex].isAccept = true;\r\n        taskList[_taskIndex].acceptAdd = msg.sender;\r\n        taskList[_taskIndex].acceptTime = block.timestamp;\r\n        // \r\n        require(balanceOf[msg.sender] >= 2, \"Credit not enough!\");\r\n        _transfer(msg.sender, administrator, 2);\r\n    }\r\n\r\n    // \r\n    mapping(uint => Reply) taskReply;\r\n\r\n    // \r\n    function postReply2Task(uint _taskIndex, bool _isFraud, string memory _details) external {\r\n        taskList[_taskIndex].isFraud = _isFraud;\r\n        Reply memory _reply;\r\n        _reply.repoId = _taskIndex;\r\n        _reply.details = _details;\r\n        _reply.postTime = block.timestamp;\r\n        _reply.floor = 1;\r\n        _reply.level = 1;\r\n        _reply.userAdd = msg.sender;\r\n        taskReply[_taskIndex] = _reply;\r\n    }\r\n\r\n    // \r\n    function getTaskReply(uint _taskIndex) external view returns (bool, Reply memory) {\r\n        return (taskList[_taskIndex].isFraud, taskReply[_taskIndex]);\r\n    }\r\n\r\n    // \r\n    function setCaseFinished(uint _taskIndex) external {\r\n        taskList[_taskIndex].isFinished = true;\r\n        _transfer(administrator, taskList[_taskIndex].acceptAdd, 5+2);\r\n    }\r\n\r\n    //  \r\n    function setCaseFailed(uint _taskIndex) external {\r\n        taskList[_taskIndex].isAccept = false;\r\n        taskList[_taskIndex].acceptAdd = address(0);\r\n        taskList[_taskIndex].acceptTime = 0;\r\n    }\r\n\r\n    // \r\n    // \r\n    struct Product {\r\n        uint id;\r\n        string name;\r\n        string details;\r\n        uint price;\r\n        // \r\n        uint inventory;\r\n    }\r\n\r\n    // \r\n    mapping(uint => Product) productList;\r\n\r\n    // \r\n    function createProduct(string memory _name, string memory _details, uint _price, uint _inventory) external {\r\n        Product memory _product;\r\n        _product.id = ++productIndex;\r\n        _product.name = _name;\r\n        _product.details = _details;\r\n        _product.price = _price;\r\n        _product.inventory = _inventory;\r\n        productList[productIndex] = _product;\r\n    }\r\n\r\n    // \r\n    function getProductList() external view returns (Product[] memory) {\r\n        Product[] memory _List = new Product[](productIndex);\r\n        for (uint i = 0; i < productIndex; i++) {\r\n            _List[i] = productList[i+1];\r\n        }\r\n        return (_List);\r\n    }\r\n\r\n    // \r\n    function purchase(uint _productIndex) external {\r\n        require(productList[_productIndex].inventory > 0, \"Inventory not enough!\");\r\n        require(balanceOf[msg.sender] >= productList[_productIndex].price, \"Credit balance not enough!\");\r\n        --productList[_productIndex].inventory;\r\n        _transfer(msg.sender, administrator, productList[_productIndex].price);\r\n    }\r\n\r\n    // \r\n    // \r\n    struct TransactionPost {\r\n        uint id;\r\n        uint postTime;\r\n        string title;\r\n        string description;\r\n        //   or \r\n        string tag;\r\n        string[] imageLink;\r\n        // \r\n        uint price;\r\n        address userAdd;\r\n        // \r\n        uint replyCounts;\r\n    }\r\n\r\n    // \r\n    mapping(uint => TransactionPost) transactionPostList;\r\n\r\n    // \r\n    function postTransactionPost(string memory _title, string memory _description, string memory _tag, string[] memory _imageLink, uint _price) external {\r\n        TransactionPost memory _post;\r\n        _post.id = ++transactionPostIndex;\r\n        _post.postTime = block.timestamp;\r\n        _post.price = _price;\r\n        _post.title = _title;\r\n        _post.description = _description;\r\n        _post.tag = _tag;\r\n        _post.imageLink = _imageLink;\r\n        _post.userAdd = msg.sender;\r\n        _post.replyCounts = 0;\r\n        // \r\n        transactionPostList[transactionPostIndex] = _post;\r\n    }\r\n\r\n    // \r\n    function getTransactionPostList() external view returns (TransactionPost[] memory) {\r\n        TransactionPost[] memory _List = new TransactionPost[](transactionPostIndex);\r\n        for (uint i = 0; i < transactionPostIndex; i++) {\r\n            _List[i] = transactionPostList[i + 1];\r\n        }\r\n        return _List;\r\n    }\r\n\r\n    // \r\n    mapping(uint => Reply[]) transactionPostReplyList;\r\n\r\n    // \r\n    function postReply2TransactionPost(uint _transactionPostIndex, uint _level, string memory _details) external {\r\n        Reply memory _reply;\r\n        _reply.repoId = _transactionPostIndex;\r\n        _reply.details = _details;\r\n        _reply.postTime = block.timestamp;\r\n        _reply.floor = ++transactionPostList[_transactionPostIndex].replyCounts;\r\n        _reply.level = _level;\r\n        _reply.userAdd = msg.sender;\r\n        transactionPostReplyList[_transactionPostIndex].push(_reply);\r\n    }\r\n\r\n    // \r\n    function getTransactionPostReplyList(uint _transactionPostIndex) external view returns (Reply[] memory) {\r\n        Reply[] memory _List = new Reply[](transactionPostReplyList[_transactionPostIndex].length);\r\n        for (uint i = 0; i < transactionPostReplyList[_transactionPostIndex].length; i++) {\r\n            _List[i] = transactionPostReplyList[_transactionPostIndex][i];\r\n        }\r\n        return _List;\r\n    }\r\n}",
  "sourcePath": "D:\\ServiceSystem\\test\\AntiFraud\\contracts\\Main.sol",
  "compiler": {
    "name": "solc",
    "version": "0.8.0+commit.c7dfd78e.Emscripten.clang"
  },
  "schemaVersion": "3.4.6",
  "updatedAt": "2022-05-10T17:23:59.481Z",
  "networkType": "ethereum",
  "devdoc": {
    "kind": "dev",
    "methods": {},
    "version": 1
  },
  "userdoc": {
    "kind": "user",
    "methods": {},
    "version": 1
  }
}