{
  "contractName": "TokenERC20",
  "abi": [
    {
      "inputs": [
        {
          "internalType": "uint256",
          "name": "initialSupply",
          "type": "uint256"
        },
        {
          "internalType": "string",
          "name": "tokenName",
          "type": "string"
        },
        {
          "internalType": "string",
          "name": "tokenSymbol",
          "type": "string"
        }
      ],
      "stateMutability": "nonpayable",
      "type": "constructor"
    },
    {
      "anonymous": false,
      "inputs": [
        {
          "indexed": true,
          "internalType": "address",
          "name": "from",
          "type": "address"
        },
        {
          "indexed": false,
          "internalType": "uint256",
          "name": "value",
          "type": "uint256"
        }
      ],
      "name": "Burn",
      "type": "event"
    },
    {
      "anonymous": false,
      "inputs": [
        {
          "indexed": true,
          "internalType": "address",
          "name": "from",
          "type": "address"
        },
        {
          "indexed": true,
          "internalType": "address",
          "name": "to",
          "type": "address"
        },
        {
          "indexed": false,
          "internalType": "uint256",
          "name": "value",
          "type": "uint256"
        }
      ],
      "name": "Transfer",
      "type": "event"
    },
    {
      "inputs": [
        {
          "internalType": "address",
          "name": "",
          "type": "address"
        },
        {
          "internalType": "address",
          "name": "",
          "type": "address"
        }
      ],
      "name": "allowance",
      "outputs": [
        {
          "internalType": "uint256",
          "name": "",
          "type": "uint256"
        }
      ],
      "stateMutability": "view",
      "type": "function",
      "constant": true
    },
    {
      "inputs": [
        {
          "internalType": "address",
          "name": "",
          "type": "address"
        }
      ],
      "name": "balanceOf",
      "outputs": [
        {
          "internalType": "uint256",
          "name": "",
          "type": "uint256"
        }
      ],
      "stateMutability": "view",
      "type": "function",
      "constant": true
    },
    {
      "inputs": [],
      "name": "decimals",
      "outputs": [
        {
          "internalType": "uint8",
          "name": "",
          "type": "uint8"
        }
      ],
      "stateMutability": "view",
      "type": "function",
      "constant": true
    },
    {
      "inputs": [],
      "name": "name",
      "outputs": [
        {
          "internalType": "string",
          "name": "",
          "type": "string"
        }
      ],
      "stateMutability": "view",
      "type": "function",
      "constant": true
    },
    {
      "inputs": [],
      "name": "symbol",
      "outputs": [
        {
          "internalType": "string",
          "name": "",
          "type": "string"
        }
      ],
      "stateMutability": "view",
      "type": "function",
      "constant": true
    },
    {
      "inputs": [],
      "name": "totalSupply",
      "outputs": [
        {
          "internalType": "uint256",
          "name": "",
          "type": "uint256"
        }
      ],
      "stateMutability": "view",
      "type": "function",
      "constant": true
    },
    {
      "inputs": [
        {
          "internalType": "address",
          "name": "_address",
          "type": "address"
        }
      ],
      "name": "_getBalance",
      "outputs": [
        {
          "internalType": "uint256",
          "name": "",
          "type": "uint256"
        }
      ],
      "stateMutability": "view",
      "type": "function",
      "constant": true
    },
    {
      "inputs": [
        {
          "internalType": "address",
          "name": "_to",
          "type": "address"
        },
        {
          "internalType": "uint256",
          "name": "_value",
          "type": "uint256"
        }
      ],
      "name": "transfer",
      "outputs": [],
      "stateMutability": "nonpayable",
      "type": "function"
    },
    {
      "inputs": [
        {
          "internalType": "address",
          "name": "_from",
          "type": "address"
        },
        {
          "internalType": "address",
          "name": "_to",
          "type": "address"
        },
        {
          "internalType": "uint256",
          "name": "_value",
          "type": "uint256"
        }
      ],
      "name": "transferFrom",
      "outputs": [
        {
          "internalType": "bool",
          "name": "success",
          "type": "bool"
        }
      ],
      "stateMutability": "nonpayable",
      "type": "function"
    },
    {
      "inputs": [
        {
          "internalType": "address",
          "name": "_spender",
          "type": "address"
        },
        {
          "internalType": "uint256",
          "name": "_value",
          "type": "uint256"
        }
      ],
      "name": "approve",
      "outputs": [
        {
          "internalType": "bool",
          "name": "success",
          "type": "bool"
        }
      ],
      "stateMutability": "nonpayable",
      "type": "function"
    },
    {
      "inputs": [
        {
          "internalType": "address",
          "name": "_spender",
          "type": "address"
        },
        {
          "internalType": "uint256",
          "name": "_value",
          "type": "uint256"
        },
        {
          "internalType": "bytes",
          "name": "_extraData",
          "type": "bytes"
        }
      ],
      "name": "approveAndCall",
      "outputs": [
        {
          "internalType": "bool",
          "name": "success",
          "type": "bool"
        }
      ],
      "stateMutability": "nonpayable",
      "type": "function"
    },
    {
      "inputs": [
        {
          "internalType": "uint256",
          "name": "_value",
          "type": "uint256"
        }
      ],
      "name": "burn",
      "outputs": [
        {
          "internalType": "bool",
          "name": "success",
          "type": "bool"
        }
      ],
      "stateMutability": "nonpayable",
      "type": "function"
    },
    {
      "inputs": [
        {
          "internalType": "address",
          "name": "_from",
          "type": "address"
        },
        {
          "internalType": "uint256",
          "name": "_value",
          "type": "uint256"
        }
      ],
      "name": "burnFrom",
      "outputs": [
        {
          "internalType": "bool",
          "name": "success",
          "type": "bool"
        }
      ],
      "stateMutability": "nonpayable",
      "type": "function"
    }
  ],
  "bytecode": "0x608060405260028060006101000a81548160ff021916908360ff1602179055503480156200002c57600080fd5b506040516200183d3803806200183d833981810160405281019062000052919062000213565b82600381905550600354600460003373ffffffffffffffffffffffffffffffffffffffff1673ffffffffffffffffffffffffffffffffffffffff168152602001908152602001600020819055508160009080519060200190620000b7929190620000da565b508060019080519060200190620000d0929190620000da565b50505050620003f0565b828054620000e89062000342565b90600052602060002090601f0160209004810192826200010c576000855562000158565b82601f106200012757805160ff191683800117855562000158565b8280016001018555821562000158579182015b82811115620001575782518255916020019190600101906200013a565b5b5090506200016791906200016b565b5090565b5b80821115620001865760008160009055506001016200016c565b5090565b6000620001a16200019b84620002cf565b6200029b565b905082815260208101848484011115620001ba57600080fd5b620001c78482856200030c565b509392505050565b600082601f830112620001e157600080fd5b8151620001f38482602086016200018a565b91505092915050565b6000815190506200020d81620003d6565b92915050565b6000806000606084860312156200022957600080fd5b60006200023986828701620001fc565b935050602084015167ffffffffffffffff8111156200025757600080fd5b6200026586828701620001cf565b925050604084015167ffffffffffffffff8111156200028357600080fd5b6200029186828701620001cf565b9150509250925092565b6000604051905081810181811067ffffffffffffffff82111715620002c557620002c4620003a7565b5b8060405250919050565b600067ffffffffffffffff821115620002ed57620002ec620003a7565b5b601f19601f8301169050602081019050919050565b6000819050919050565b60005b838110156200032c5780820151818401526020810190506200030f565b838111156200033c576000848401525b50505050565b600060028204905060018216806200035b57607f821691505b6020821081141562000372576200037162000378565b5b50919050565b7f4e487b7100000000000000000000000000000000000000000000000000000000600052602260045260246000fd5b7f4e487b7100000000000000000000000000000000000000000000000000000000600052604160045260246000fd5b620003e18162000302565b8114620003ed57600080fd5b50565b61143d80620004006000396000f3fe608060405234801561001057600080fd5b50600436106100cf5760003560e01c806370a082311161008c578063a9059cbb11610066578063a9059cbb1461023c578063cae9ca5114610258578063dd62ed3e14610288578063ee21aa64146102b8576100cf565b806370a08231146101be57806379cc6790146101ee57806395d89b411461021e576100cf565b806306fdde03146100d4578063095ea7b3146100f257806318160ddd1461012257806323b872dd14610140578063313ce5671461017057806342966c681461018e575b600080fd5b6100dc6102e8565b6040516100e991906110f7565b60405180910390f35b61010c60048036038101906101079190610f16565b610376565b60405161011991906110dc565b60405180910390f35b61012a610403565b6040516101379190611119565b60405180910390f35b61015a60048036038101906101559190610ec7565b610409565b60405161016791906110dc565b60405180910390f35b61017861053d565b6040516101859190611134565b60405180910390f35b6101a860048036038101906101a39190610fb9565b610550565b6040516101b591906110dc565b60405180910390f35b6101d860048036038101906101d39190610e62565b610664565b6040516101e59190611119565b60405180910390f35b61020860048036038101906102039190610f16565b61067c565b60405161021591906110dc565b60405180910390f35b6102266108ad565b60405161023391906110f7565b60405180910390f35b61025660048036038101906102519190610f16565b61093b565b005b610272600480360381019061026d9190610f52565b61094a565b60405161027f91906110dc565b60405180910390f35b6102a2600480360381019061029d9190610e8b565b6109e3565b6040516102af9190611119565b60405180910390f35b6102d260048036038101906102cd9190610e62565b610a08565b6040516102df9190611119565b60405180910390f35b600080546102f590611309565b80601f016020809104026020016040519081016040528092919081815260200182805461032190611309565b801561036e5780601f106103435761010080835404028352916020019161036e565b820191906000526020600020905b81548152906001019060200180831161035157829003601f168201915b505050505081565b600081600560003373ffffffffffffffffffffffffffffffffffffffff1673ffffffffffffffffffffffffffffffffffffffff16815260200190815260200160002060008573ffffffffffffffffffffffffffffffffffffffff1673ffffffffffffffffffffffffffffffffffffffff168152602001908152602001600020819055506001905092915050565b60035481565b6000600560008573ffffffffffffffffffffffffffffffffffffffff1673ffffffffffffffffffffffffffffffffffffffff16815260200190815260200160002060003373ffffffffffffffffffffffffffffffffffffffff1673ffffffffffffffffffffffffffffffffffffffff1681526020019081526020016000205482111561049457600080fd5b81600560008673ffffffffffffffffffffffffffffffffffffffff1673ffffffffffffffffffffffffffffffffffffffff16815260200190815260200160002060003373ffffffffffffffffffffffffffffffffffffffff1673ffffffffffffffffffffffffffffffffffffffff1681526020019081526020016000206000828254610520919061123e565b92505081905550610532848484610a51565b600190509392505050565b600260009054906101000a900460ff1681565b600081600460003373ffffffffffffffffffffffffffffffffffffffff1673ffffffffffffffffffffffffffffffffffffffff16815260200190815260200160002054101561059e57600080fd5b81600460003373ffffffffffffffffffffffffffffffffffffffff1673ffffffffffffffffffffffffffffffffffffffff16815260200190815260200160002060008282546105ed919061123e565b925050819055508160036000828254610606919061123e565b925050819055503373ffffffffffffffffffffffffffffffffffffffff167fcc16f5dbb4873280815c1ee09dbd06736cffcc184412cf7a71a0fdb75d397ca5836040516106539190611119565b60405180910390a260019050919050565b60046020528060005260406000206000915090505481565b600081600460008573ffffffffffffffffffffffffffffffffffffffff1673ffffffffffffffffffffffffffffffffffffffff1681526020019081526020016000205410156106ca57600080fd5b600560008473ffffffffffffffffffffffffffffffffffffffff1673ffffffffffffffffffffffffffffffffffffffff16815260200190815260200160002060003373ffffffffffffffffffffffffffffffffffffffff1673ffffffffffffffffffffffffffffffffffffffff1681526020019081526020016000205482111561075357600080fd5b81600460008573ffffffffffffffffffffffffffffffffffffffff1673ffffffffffffffffffffffffffffffffffffffff16815260200190815260200160002060008282546107a2919061123e565b9250508190555081600560008573ffffffffffffffffffffffffffffffffffffffff1673ffffffffffffffffffffffffffffffffffffffff16815260200190815260200160002060003373ffffffffffffffffffffffffffffffffffffffff1673ffffffffffffffffffffffffffffffffffffffff1681526020019081526020016000206000828254610835919061123e565b92505081905550816003600082825461084e919061123e565b925050819055508273ffffffffffffffffffffffffffffffffffffffff167fcc16f5dbb4873280815c1ee09dbd06736cffcc184412cf7a71a0fdb75d397ca58360405161089b9190611119565b60405180910390a26001905092915050565b600180546108ba90611309565b80601f01602080910402602001604051908101604052809291908181526020018280546108e690611309565b80156109335780601f1061090857610100808354040283529160200191610933565b820191906000526020600020905b81548152906001019060200180831161091657829003601f168201915b505050505081565b610946338383610a51565b5050565b60008084905061095a8585610376565b156109da578073ffffffffffffffffffffffffffffffffffffffff16638f4ffcb1338630876040518563ffffffff1660e01b815260040161099e9493929190611090565b600060405180830381600087803b1580156109b857600080fd5b505af11580156109cc573d6000803e3d6000fd5b5050505060019150506109dc565b505b9392505050565b6005602052816000526040600020602052806000526040600020600091509150505481565b6000600460008373ffffffffffffffffffffffffffffffffffffffff1673ffffffffffffffffffffffffffffffffffffffff168152602001908152602001600020549050919050565b600073ffffffffffffffffffffffffffffffffffffffff168273ffffffffffffffffffffffffffffffffffffffff161415610a8b57600080fd5b80600460008573ffffffffffffffffffffffffffffffffffffffff1673ffffffffffffffffffffffffffffffffffffffff168152602001908152602001600020541015610ad757600080fd5b600460008373ffffffffffffffffffffffffffffffffffffffff1673ffffffffffffffffffffffffffffffffffffffff1681526020019081526020016000205481600460008573ffffffffffffffffffffffffffffffffffffffff1673ffffffffffffffffffffffffffffffffffffffff16815260200190815260200160002054610b6291906111e8565b11610b6c57600080fd5b6000600460008473ffffffffffffffffffffffffffffffffffffffff1673ffffffffffffffffffffffffffffffffffffffff16815260200190815260200160002054600460008673ffffffffffffffffffffffffffffffffffffffff1673ffffffffffffffffffffffffffffffffffffffff16815260200190815260200160002054610bf891906111e8565b905081600460008673ffffffffffffffffffffffffffffffffffffffff1673ffffffffffffffffffffffffffffffffffffffff1681526020019081526020016000206000828254610c49919061123e565b9250508190555081600460008573ffffffffffffffffffffffffffffffffffffffff1673ffffffffffffffffffffffffffffffffffffffff1681526020019081526020016000206000828254610c9f91906111e8565b925050819055508273ffffffffffffffffffffffffffffffffffffffff168473ffffffffffffffffffffffffffffffffffffffff167fddf252ad1be2c89b69c2b068fc378daa952ba7f163c4a11628f55a4df523b3ef84604051610d039190611119565b60405180910390a380600460008573ffffffffffffffffffffffffffffffffffffffff1673ffffffffffffffffffffffffffffffffffffffff16815260200190815260200160002054600460008773ffffffffffffffffffffffffffffffffffffffff1673ffffffffffffffffffffffffffffffffffffffff16815260200190815260200160002054610d9691906111e8565b14610dca577f4e487b7100000000000000000000000000000000000000000000000000000000600052600160045260246000fd5b50505050565b6000610de3610dde84611180565b61114f565b905082815260208101848484011115610dfb57600080fd5b610e068482856112c7565b509392505050565b600081359050610e1d816113d9565b92915050565b600082601f830112610e3457600080fd5b8135610e44848260208601610dd0565b91505092915050565b600081359050610e5c816113f0565b92915050565b600060208284031215610e7457600080fd5b6000610e8284828501610e0e565b91505092915050565b60008060408385031215610e9e57600080fd5b6000610eac85828601610e0e565b9250506020610ebd85828601610e0e565b9150509250929050565b600080600060608486031215610edc57600080fd5b6000610eea86828701610e0e565b9350506020610efb86828701610e0e565b9250506040610f0c86828701610e4d565b9150509250925092565b60008060408385031215610f2957600080fd5b6000610f3785828601610e0e565b9250506020610f4885828601610e4d565b9150509250929050565b600080600060608486031215610f6757600080fd5b6000610f7586828701610e0e565b9350506020610f8686828701610e4d565b925050604084013567ffffffffffffffff811115610fa357600080fd5b610faf86828701610e23565b9150509250925092565b600060208284031215610fcb57600080fd5b6000610fd984828501610e4d565b91505092915050565b610feb81611272565b82525050565b610ffa81611284565b82525050565b600061100b826111b0565b61101581856111c6565b93506110258185602086016112d6565b61102e816113c8565b840191505092915050565b6000611044826111bb565b61104e81856111d7565b935061105e8185602086016112d6565b611067816113c8565b840191505092915050565b61107b816112b0565b82525050565b61108a816112ba565b82525050565b60006080820190506110a56000830187610fe2565b6110b26020830186611072565b6110bf6040830185610fe2565b81810360608301526110d18184611000565b905095945050505050565b60006020820190506110f16000830184610ff1565b92915050565b600060208201905081810360008301526111118184611039565b905092915050565b600060208201905061112e6000830184611072565b92915050565b60006020820190506111496000830184611081565b92915050565b6000604051905081810181811067ffffffffffffffff8211171561117657611175611399565b5b8060405250919050565b600067ffffffffffffffff82111561119b5761119a611399565b5b601f19601f8301169050602081019050919050565b600081519050919050565b600081519050919050565b600082825260208201905092915050565b600082825260208201905092915050565b60006111f3826112b0565b91506111fe836112b0565b9250827fffffffffffffffffffffffffffffffffffffffffffffffffffffffffffffffff038211156112335761123261133b565b5b828201905092915050565b6000611249826112b0565b9150611254836112b0565b9250828210156112675761126661133b565b5b828203905092915050565b600061127d82611290565b9050919050565b60008115159050919050565b600073ffffffffffffffffffffffffffffffffffffffff82169050919050565b6000819050919050565b600060ff82169050919050565b82818337600083830152505050565b60005b838110156112f45780820151818401526020810190506112d9565b83811115611303576000848401525b50505050565b6000600282049050600182168061132157607f821691505b602082108114156113355761133461136a565b5b50919050565b7f4e487b7100000000000000000000000000000000000000000000000000000000600052601160045260246000fd5b7f4e487b7100000000000000000000000000000000000000000000000000000000600052602260045260246000fd5b7f4e487b7100000000000000000000000000000000000000000000000000000000600052604160045260246000fd5b6000601f19601f8301169050919050565b6113e281611272565b81146113ed57600080fd5b50565b6113f9816112b0565b811461140457600080fd5b5056fea2646970667358221220b4582d7db861cbe995a0cf90b17d6ce26d41c0733b171a77ed64afeed0cedf9e64736f6c63430008000033",
  "immutableReferences": {},
  "source": "//  \r\n// \r\n\r\n// SPDX-License-Identifier: MIT\r\npragma solidity >=0.7.0 <0.9.0;\r\n\r\ninterface tokenRecipient { function receiveApproval(address _from, uint256 _value, address _token, bytes memory _extraData) external; }\r\ncontract TokenERC20 {\r\n    string public name; // ERC20\r\n    string public symbol; // ERC20\r\n    uint8 public decimals = 2;  // ERC20decimals 18 \r\n    uint256 public totalSupply; // ERC20 \r\n \r\n    // mapping ERC20\r\n    mapping (address => uint256) public balanceOf;\r\n    //  ERC20\r\n    mapping (address => mapping (address => uint256)) public allowance;\r\n    //  ERC20\r\n    event Transfer(address indexed from, address indexed to, uint256 value);\r\n \r\n    //  ERC20\r\n    event Burn(address indexed from, uint256 value);\r\n \r\n    /**\r\n     * \r\n     */\r\n    constructor(uint256 initialSupply, string memory tokenName, string memory tokenSymbol) {\r\n        totalSupply = initialSupply;  //  =  * 10 ** decimals\r\n        balanceOf[msg.sender] = totalSupply;                // \r\n        name = tokenName;                                   // \r\n        symbol = tokenSymbol;                               // \r\n    }\r\n\r\n    function _getBalance(address _address) public view returns (uint) {\r\n        return (balanceOf[_address]);\r\n    }\r\n \r\n    /**\r\n     * \r\n     */\r\n    function _transfer(address _from, address _to, uint _value) internal {\r\n        // 0x00x0\r\n        require(_to != address(0x0));\r\n        // \r\n        require(balanceOf[_from] >= _value);\r\n        // \r\n        require(balanceOf[_to] + _value > balanceOf[_to]);\r\n \r\n        // \r\n        uint previousBalances = balanceOf[_from] + balanceOf[_to];\r\n        // Subtract from the sender\r\n        balanceOf[_from] -= _value;\r\n        // Add the same to the recipient\r\n        balanceOf[_to] += _value;\r\n        emit Transfer(_from, _to, _value);\r\n \r\n        // assert\r\n        assert(balanceOf[_from] + balanceOf[_to] == previousBalances);\r\n    }\r\n \r\n    /**\r\n     *  \r\n     *  `_value` `_to`\r\n     * ERC20\r\n     * @param _to \r\n     * @param _value \r\n     */\r\n    function transfer(address _to, uint256 _value) public {\r\n        _transfer(msg.sender, _to, _value);\r\n    }\r\n \r\n    /**\r\n     * \r\n     * ERC20\r\n     * @param _from \r\n     * @param _to \r\n     * @param _value \r\n     */\r\n    function transferFrom(address _from, address _to, uint256 _value) public returns (bool success) {\r\n        require(_value <= allowance[_from][msg.sender]);     // Check allowance\r\n        allowance[_from][msg.sender] -= _value;\r\n        _transfer(_from, _to, _value);\r\n        return true;\r\n    }\r\n \r\n    /**\r\n     * \r\n     *\r\n     * `_spender`  `_value` \r\n     * ERC20\r\n     * @param _spender The address authorized to spend\r\n     * @param _value the max amount they can spend\r\n     */\r\n    function approve(address _spender, uint256 _value) public\r\n    returns (bool success) {\r\n        allowance[msg.sender][_spender] = _value;\r\n        return true;\r\n    }\r\n \r\n    /**\r\n     * \r\n     *-ERC20\r\n     * @param _spender \r\n     * @param _value \r\n     * @param _extraData \r\n     */\r\n    function approveAndCall(address _spender, uint256 _value, bytes memory _extraData)\r\n    public\r\n    returns (bool success) {\r\n        tokenRecipient spender = tokenRecipient(_spender);\r\n        if (approve(_spender, _value)) {\r\n            // \r\n            spender.receiveApproval(msg.sender, _value, address(this), _extraData);\r\n            return true;\r\n        }\r\n    }\r\n \r\n    /**\r\n     * \r\n     *-ERC20\r\n     */\r\n    function burn(uint256 _value) public returns (bool success) {\r\n        require(balanceOf[msg.sender] >= _value);   // Check if the sender has enough\r\n        balanceOf[msg.sender] -= _value;            // Subtract from the sender\r\n        totalSupply -= _value;                      // Updates totalSupply\r\n        emit Burn(msg.sender, _value);\r\n        return true;\r\n    }\r\n \r\n    /**\r\n     * \r\n     *-ERC20\r\n     * Remove `_value` tokens from the system irreversibly on behalf of `_from`.\r\n     *\r\n     * @param _from the address of the sender\r\n     * @param _value the amount of money to burn\r\n     */\r\n    function burnFrom(address _from, uint256 _value) public returns (bool success) {\r\n        require(balanceOf[_from] >= _value);                // Check if the targeted balance is enough\r\n        require(_value <= allowance[_from][msg.sender]);    // Check allowance\r\n        balanceOf[_from] -= _value;                         // Subtract from the targeted balance\r\n        allowance[_from][msg.sender] -= _value;             // Subtract from the sender's allowance\r\n        totalSupply -= _value;                              // Update totalSupply\r\n        emit Burn(_from, _value);\r\n        return true;\r\n    }\r\n}",
  "sourcePath": "D:\\ServiceSystem\\test\\AntiFraud\\contracts\\TokenERC20.sol",
  "compiler": {
    "name": "solc",
    "version": "0.8.0+commit.c7dfd78e.Emscripten.clang"
  },
  "schemaVersion": "3.4.6",
  "updatedAt": "2022-04-15T07:45:40.326Z",
  "networkType": "ethereum",
  "devdoc": {
    "kind": "dev",
    "methods": {
      "approve(address,uint256)": {
        "params": {
          "_spender": "The address authorized to spend",
          "_value": "the max amount they can spend"
        }
      },
      "approveAndCall(address,uint256,bytes)": {
        "params": {
          "_extraData": "",
          "_spender": "",
          "_value": ""
        }
      },
      "burnFrom(address,uint256)": {
        "params": {
          "_from": "the address of the sender",
          "_value": "the amount of money to burn"
        }
      },
      "transfer(address,uint256)": {
        "params": {
          "_to": "",
          "_value": ""
        }
      },
      "transferFrom(address,address,uint256)": {
        "params": {
          "_from": "",
          "_to": "",
          "_value": ""
        }
      }
    },
    "version": 1
  },
  "userdoc": {
    "kind": "user",
    "methods": {
      "approve(address,uint256)": {
        "notice": " `_spender`  `_value`  ERC20"
      },
      "approveAndCall(address,uint256,bytes)": {
        "notice": " -ERC20"
      },
      "burn(uint256)": {
        "notice": " -ERC20"
      },
      "burnFrom(address,uint256)": {
        "notice": " -ERC20 Remove `_value` tokens from the system irreversibly on behalf of `_from`."
      },
      "constructor": {
        "notice": ""
      },
      "transfer(address,uint256)": {
        "notice": "  `_value` `_to` ERC20"
      },
      "transferFrom(address,address,uint256)": {
        "notice": " ERC20"
      }
    },
    "version": 1
  }
}