{
  "contractName": "AntiFraud",
  "abi": [
    {
      "inputs": [],
      "stateMutability": "nonpayable",
      "type": "constructor"
    },
    {
      "inputs": [
        {
          "internalType": "address",
          "name": "_policeUserAddress",
          "type": "address"
        }
      ],
      "name": "getPoliceUser1",
      "outputs": [
        {
          "internalType": "uint256",
          "name": "",
          "type": "uint256"
        },
        {
          "internalType": "string",
          "name": "",
          "type": "string"
        },
        {
          "internalType": "string",
          "name": "",
          "type": "string"
        }
      ],
      "stateMutability": "view",
      "type": "function"
    },
    {
      "inputs": [
        {
          "internalType": "string",
          "name": "_name",
          "type": "string"
        },
        {
          "internalType": "string",
          "name": "_avatarLink",
          "type": "string"
        }
      ],
      "name": "createPoliceUser",
      "outputs": [],
      "stateMutability": "nonpayable",
      "type": "function"
    },
    {
      "inputs": [
        {
          "internalType": "string",
          "name": "_name",
          "type": "string"
        },
        {
          "internalType": "string",
          "name": "_avatarLink",
          "type": "string"
        }
      ],
      "name": "createCivilUser",
      "outputs": [],
      "stateMutability": "nonpayable",
      "type": "function"
    },
    {
      "inputs": [
        {
          "internalType": "string",
          "name": "_screenshotLink",
          "type": "string"
        }
      ],
      "name": "postScreenshot",
      "outputs": [],
      "stateMutability": "nonpayable",
      "type": "function"
    },
    {
      "inputs": [
        {
          "internalType": "uint256",
          "name": "_screenshotIndex",
          "type": "uint256"
        },
        {
          "internalType": "bool",
          "name": "_isVaild",
          "type": "bool"
        }
      ],
      "name": "auditScreenshot",
      "outputs": [],
      "stateMutability": "nonpayable",
      "type": "function"
    },
    {
      "inputs": [
        {
          "internalType": "string",
          "name": "_title",
          "type": "string"
        },
        {
          "internalType": "string",
          "name": "_description",
          "type": "string"
        },
        {
          "internalType": "string",
          "name": "_caseImageLink",
          "type": "string"
        }
      ],
      "name": "postCase",
      "outputs": [],
      "stateMutability": "nonpayable",
      "type": "function"
    },
    {
      "inputs": [
        {
          "internalType": "string",
          "name": "_title",
          "type": "string"
        },
        {
          "internalType": "string",
          "name": "_description",
          "type": "string"
        },
        {
          "internalType": "string",
          "name": "_taskImageLink",
          "type": "string"
        },
        {
          "internalType": "bool",
          "name": "_isAnswerInRush",
          "type": "bool"
        }
      ],
      "name": "postTask",
      "outputs": [],
      "stateMutability": "nonpayable",
      "type": "function"
    },
    {
      "inputs": [
        {
          "internalType": "uint256",
          "name": "_taskIndex",
          "type": "uint256"
        }
      ],
      "name": "acceptTask",
      "outputs": [],
      "stateMutability": "nonpayable",
      "type": "function"
    },
    {
      "inputs": [
        {
          "internalType": "uint256",
          "name": "_taskIndex",
          "type": "uint256"
        },
        {
          "internalType": "string",
          "name": "_detail",
          "type": "string"
        }
      ],
      "name": "postTaskAnswer",
      "outputs": [],
      "stateMutability": "nonpayable",
      "type": "function"
    },
    {
      "inputs": [
        {
          "internalType": "uint256",
          "name": "_taskIndex",
          "type": "uint256"
        }
      ],
      "name": "taskFailed",
      "outputs": [],
      "stateMutability": "nonpayable",
      "type": "function"
    },
    {
      "inputs": [
        {
          "internalType": "uint256",
          "name": "_taskIndex",
          "type": "uint256"
        },
        {
          "internalType": "uint256",
          "name": "_answerIndex",
          "type": "uint256"
        },
        {
          "internalType": "bool",
          "name": "_isAdopt",
          "type": "bool"
        }
      ],
      "name": "taskCompelte",
      "outputs": [],
      "stateMutability": "nonpayable",
      "type": "function"
    }
  ],
  "bytecode": "0x608060405260005460405162000015906200010c565b620000219190620001af565b604051809103906000f0801580156200003e573d6000803e3d6000fd5b50600160006101000a81548173ffffffffffffffffffffffffffffffffffffffff021916908373ffffffffffffffffffffffffffffffffffffffff1602179055503480156200008c57600080fd5b50606460008190555033600260006101000a81548173ffffffffffffffffffffffffffffffffffffffff021916908373ffffffffffffffffffffffffffffffffffffffff16021790555060006003819055506000600481905550600060058190555060006006819055506000600781905550600060088190555062000211565b6117a98062001e8a83390190565b600062000129600183620001f6565b91507f43000000000000000000000000000000000000000000000000000000000000006000830152602082019050919050565b60006200016b600683620001f6565b91507f63726564697400000000000000000000000000000000000000000000000000006000830152602082019050919050565b620001a98162000207565b82525050565b6000606082019050620001c660008301846200019e565b8181036020830152620001d9816200015c565b90508181036040830152620001ee816200011a565b905092915050565b600082825260208201905092915050565b6000819050919050565b611c6980620002216000396000f3fe608060405234801561001057600080fd5b50600436106100a95760003560e01c80635e4e6e88116100715780635e4e6e8814610150578063978b3e271461016c578063be9293c614610188578063ce2cafb0146101a4578063d2e3ada5146101c0578063f4b75ffb146101dc576100a9565b80631bca0435146100ae5780631bf6912d146100ca57806321cc9b9e146100e657806329227291146101025780635da131f714610134575b600080fd5b6100c860048036038101906100c391906116cf565b6101f8565b005b6100e460048036038101906100df919061177a565b610363565b005b61010060048036038101906100fb9190611638565b6105a9565b005b61011c60048036038101906101179190611539565b610792565b60405161012b93929190611965565b60405180910390f35b61014e6004803603810190610149919061177a565b610983565b005b61016a600480360381019061016591906115cc565b61098f565b005b610186600480360381019061018191906115cc565b610a2c565b005b6101a2600480360381019061019d91906117a3565b610ac9565b005b6101be60048036038101906101b9919061158b565b610df2565b005b6101da60048036038101906101d59190611833565b610eef565b005b6101f660048036038101906101f191906117df565b611246565b005b6007600081548092919061020b90611b07565b91905055506000600f60003373ffffffffffffffffffffffffffffffffffffffff1673ffffffffffffffffffffffffffffffffffffffff168152602001908152602001600020905060075481600001819055504281600301819055508481600101908051906020019061027f9291906113da565b50838160020190805190602001906102989291906113da565b50828160050190805190602001906102b19291906113da565b5060008160040160006101000a81548160ff021916908315150217905550818160060160006101000a81548160ff02191690831515021790555060008160060160016101000a81548160ff0219169083151502179055503360106000600754815260200190815260200160002060006101000a81548173ffffffffffffffffffffffffffffffffffffffff021916908373ffffffffffffffffffffffffffffffffffffffff1602179055505050505050565b6001600f60006010600085815260200190815260200160002060009054906101000a900473ffffffffffffffffffffffffffffffffffffffff1673ffffffffffffffffffffffffffffffffffffffff1673ffffffffffffffffffffffffffffffffffffffff16815260200190815260200160002060060160006101000a81548160ff0219169083151502179055506001600f60006010600085815260200190815260200160002060009054906101000a900473ffffffffffffffffffffffffffffffffffffffff1673ffffffffffffffffffffffffffffffffffffffff1673ffffffffffffffffffffffffffffffffffffffff16815260200190815260200160002060060160016101000a81548160ff021916908315150217905550336011600083815260200190815260200160002060006101000a81548173ffffffffffffffffffffffffffffffffffffffff021916908373ffffffffffffffffffffffffffffffffffffffff160217905550600160009054906101000a900473ffffffffffffffffffffffffffffffffffffffff1673ffffffffffffffffffffffffffffffffffffffff166323b872dd33600260009054906101000a900473ffffffffffffffffffffffffffffffffffffffff1660016040518463ffffffff1660e01b8152600401610553939291906118f7565b602060405180830381600087803b15801561056d57600080fd5b505af1158015610581573d6000803e3d6000fd5b505050506040513d601f19601f820116820180604052508101906105a59190611562565b5050565b600660008154809291906105bc90611b07565b91905055506000600d60003373ffffffffffffffffffffffffffffffffffffffff1673ffffffffffffffffffffffffffffffffffffffff16815260200190815260200160002090506006548160000181905550428160030181905550838160010190805190602001906106309291906113da565b50828160020190805190602001906106499291906113da565b50818160040190805190602001906106629291906113da565b5033600e6000600654815260200190815260200160002060006101000a81548173ffffffffffffffffffffffffffffffffffffffff021916908373ffffffffffffffffffffffffffffffffffffffff160217905550600160009054906101000a900473ffffffffffffffffffffffffffffffffffffffff1673ffffffffffffffffffffffffffffffffffffffff166323b872dd600260009054906101000a900473ffffffffffffffffffffffffffffffffffffffff163360016040518463ffffffff1660e01b8152600401610739939291906118f7565b602060405180830381600087803b15801561075357600080fd5b505af1158015610767573d6000803e3d6000fd5b505050506040513d601f19601f8201168201806040525081019061078b9190611562565b5050505050565b6000606080600960008573ffffffffffffffffffffffffffffffffffffffff1673ffffffffffffffffffffffffffffffffffffffff16815260200190815260200160002060000154600960008673ffffffffffffffffffffffffffffffffffffffff1673ffffffffffffffffffffffffffffffffffffffff168152602001908152602001600020600101600960008773ffffffffffffffffffffffffffffffffffffffff1673ffffffffffffffffffffffffffffffffffffffff16815260200190815260200160002060020181805461086a90611ad5565b80601f016020809104026020016040519081016040528092919081815260200182805461089690611ad5565b80156108e35780601f106108b8576101008083540402835291602001916108e3565b820191906000526020600020905b8154815290600101906020018083116108c657829003601f168201915b505050505091508080546108f690611ad5565b80601f016020809104026020016040519081016040528092919081815260200182805461092290611ad5565b801561096f5780601f106109445761010080835404028352916020019161096f565b820191906000526020600020905b81548152906001019060200180831161095257829003601f168201915b505050505090509250925092509193909250565b61098c81611349565b50565b600360008154809291906109a290611b07565b91905055506000600960003373ffffffffffffffffffffffffffffffffffffffff1673ffffffffffffffffffffffffffffffffffffffff1681526020019081526020016000209050600354816000018190555082816001019080519060200190610a0d9291906113da565b5081816002019080519060200190610a269291906113da565b50505050565b60046000815480929190610a3f90611b07565b91905055506000600a60003373ffffffffffffffffffffffffffffffffffffffff1673ffffffffffffffffffffffffffffffffffffffff1681526020019081526020016000209050600454816000018190555082816001019080519060200190610aaa9291906113da565b5081816002019080519060200190610ac39291906113da565b50505050565b80600b6000600c600086815260200190815260200160002060009054906101000a900473ffffffffffffffffffffffffffffffffffffffff1673ffffffffffffffffffffffffffffffffffffffff1673ffffffffffffffffffffffffffffffffffffffff16815260200190815260200160002060030160006101000a81548160ff02191690831515021790555033600b6000600c600086815260200190815260200160002060009054906101000a900473ffffffffffffffffffffffffffffffffffffffff1673ffffffffffffffffffffffffffffffffffffffff1673ffffffffffffffffffffffffffffffffffffffff16815260200190815260200160002060010160006101000a81548173ffffffffffffffffffffffffffffffffffffffff021916908373ffffffffffffffffffffffffffffffffffffffff160217905550600160009054906101000a900473ffffffffffffffffffffffffffffffffffffffff1673ffffffffffffffffffffffffffffffffffffffff166323b872dd600260009054906101000a900473ffffffffffffffffffffffffffffffffffffffff163360016040518463ffffffff1660e01b8152600401610c8c939291906118f7565b602060405180830381600087803b158015610ca657600080fd5b505af1158015610cba573d6000803e3d6000fd5b505050506040513d601f19601f82011682018060405250810190610cde9190611562565b508015610dee57600160009054906101000a900473ffffffffffffffffffffffffffffffffffffffff1673ffffffffffffffffffffffffffffffffffffffff166323b872dd600260009054906101000a900473ffffffffffffffffffffffffffffffffffffffff16600c600086815260200190815260200160002060009054906101000a900473ffffffffffffffffffffffffffffffffffffffff1660016040518463ffffffff1660e01b8152600401610d9a939291906118f7565b602060405180830381600087803b158015610db457600080fd5b505af1158015610dc8573d6000803e3d6000fd5b505050506040513d601f19601f82011682018060405250810190610dec9190611562565b505b5050565b60056000815480929190610e0590611b07565b919050555033600c6000600554815260200190815260200160002060006101000a81548173ffffffffffffffffffffffffffffffffffffffff021916908373ffffffffffffffffffffffffffffffffffffffff1602179055506000600b60003373ffffffffffffffffffffffffffffffffffffffff1673ffffffffffffffffffffffffffffffffffffffff1681526020019081526020016000209050600554816000018190555042816004018190555081816002019080519060200190610ecd9291906113da565b5060008160030160006101000a81548160ff0219169083151502179055505050565b8015611237576001600f60006010600087815260200190815260200160002060009054906101000a900473ffffffffffffffffffffffffffffffffffffffff1673ffffffffffffffffffffffffffffffffffffffff1673ffffffffffffffffffffffffffffffffffffffff16815260200190815260200160002060040160006101000a81548160ff021916908315150217905550600f60006010600086815260200190815260200160002060009054906101000a900473ffffffffffffffffffffffffffffffffffffffff1673ffffffffffffffffffffffffffffffffffffffff1673ffffffffffffffffffffffffffffffffffffffff16815260200190815260200160002060060160009054906101000a900460ff161561111857600160009054906101000a900473ffffffffffffffffffffffffffffffffffffffff1673ffffffffffffffffffffffffffffffffffffffff166323b872dd600260009054906101000a900473ffffffffffffffffffffffffffffffffffffffff166011600087815260200190815260200160002060009054906101000a900473ffffffffffffffffffffffffffffffffffffffff1660026040518463ffffffff1660e01b81526004016110c09392919061192e565b602060405180830381600087803b1580156110da57600080fd5b505af11580156110ee573d6000803e3d6000fd5b505050506040513d601f19601f820116820180604052508101906111129190611562565b50611232565b600160009054906101000a900473ffffffffffffffffffffffffffffffffffffffff1673ffffffffffffffffffffffffffffffffffffffff166323b872dd600260009054906101000a900473ffffffffffffffffffffffffffffffffffffffff1660136000878152602001908152602001600020600086815260200190815260200160002060009054906101000a900473ffffffffffffffffffffffffffffffffffffffff1660016040518463ffffffff1660e01b81526004016111de939291906118f7565b602060405180830381600087803b1580156111f857600080fd5b505af115801561120c573d6000803e3d6000fd5b505050506040513d601f19601f820116820180604052508101906112309190611562565b505b611241565b61124083611349565b5b505050565b6008600081548092919061125990611b07565b919050555060006012600084815260200190815260200160002060003373ffffffffffffffffffffffffffffffffffffffff1673ffffffffffffffffffffffffffffffffffffffff168152602001908152602001600020905033601360008581526020019081526020016000206000600854815260200190815260200160002060006101000a81548173ffffffffffffffffffffffffffffffffffffffff021916908373ffffffffffffffffffffffffffffffffffffffff16021790555060085481600001819055508181600101908051906020019061133a9291906113da565b50428160020181905550505050565b6000600f60006010600085815260200190815260200160002060009054906101000a900473ffffffffffffffffffffffffffffffffffffffff1673ffffffffffffffffffffffffffffffffffffffff1673ffffffffffffffffffffffffffffffffffffffff16815260200190815260200160002060060160016101000a81548160ff02191690831515021790555050565b8280546113e690611ad5565b90600052602060002090601f016020900481019282611408576000855561144f565b82601f1061142157805160ff191683800117855561144f565b8280016001018555821561144f579182015b8281111561144e578251825591602001919060010190611433565b5b50905061145c9190611460565b5090565b5b80821115611479576000816000905550600101611461565b5090565b600061149061148b846119db565b6119aa565b9050828152602081018484840111156114a857600080fd5b6114b3848285611a93565b509392505050565b6000813590506114ca81611bee565b92915050565b6000813590506114df81611c05565b92915050565b6000815190506114f481611c05565b92915050565b600082601f83011261150b57600080fd5b813561151b84826020860161147d565b91505092915050565b60008135905061153381611c1c565b92915050565b60006020828403121561154b57600080fd5b6000611559848285016114bb565b91505092915050565b60006020828403121561157457600080fd5b6000611582848285016114e5565b91505092915050565b60006020828403121561159d57600080fd5b600082013567ffffffffffffffff8111156115b757600080fd5b6115c3848285016114fa565b91505092915050565b600080604083850312156115df57600080fd5b600083013567ffffffffffffffff8111156115f957600080fd5b611605858286016114fa565b925050602083013567ffffffffffffffff81111561162257600080fd5b61162e858286016114fa565b9150509250929050565b60008060006060848603121561164d57600080fd5b600084013567ffffffffffffffff81111561166757600080fd5b611673868287016114fa565b935050602084013567ffffffffffffffff81111561169057600080fd5b61169c868287016114fa565b925050604084013567ffffffffffffffff8111156116b957600080fd5b6116c5868287016114fa565b9150509250925092565b600080600080608085870312156116e557600080fd5b600085013567ffffffffffffffff8111156116ff57600080fd5b61170b878288016114fa565b945050602085013567ffffffffffffffff81111561172857600080fd5b611734878288016114fa565b935050604085013567ffffffffffffffff81111561175157600080fd5b61175d878288016114fa565b925050606061176e878288016114d0565b91505092959194509250565b60006020828403121561178c57600080fd5b600061179a84828501611524565b91505092915050565b600080604083850312156117b657600080fd5b60006117c485828601611524565b92505060206117d5858286016114d0565b9150509250929050565b600080604083850312156117f257600080fd5b600061180085828601611524565b925050602083013567ffffffffffffffff81111561181d57600080fd5b611829858286016114fa565b9150509250929050565b60008060006060848603121561184857600080fd5b600061185686828701611524565b935050602061186786828701611524565b9250506040611878868287016114d0565b9150509250925092565b61188b81611a27565b82525050565b61189a81611a6f565b82525050565b6118a981611a81565b82525050565b60006118ba82611a0b565b6118c48185611a16565b93506118d4818560208601611aa2565b6118dd81611bdd565b840191505092915050565b6118f181611a65565b82525050565b600060608201905061190c6000830186611882565b6119196020830185611882565b6119266040830184611891565b949350505050565b60006060820190506119436000830186611882565b6119506020830185611882565b61195d60408301846118a0565b949350505050565b600060608201905061197a60008301866118e8565b818103602083015261198c81856118af565b905081810360408301526119a081846118af565b9050949350505050565b6000604051905081810181811067ffffffffffffffff821117156119d1576119d0611bae565b5b8060405250919050565b600067ffffffffffffffff8211156119f6576119f5611bae565b5b601f19601f8301169050602081019050919050565b600081519050919050565b600082825260208201905092915050565b6000611a3282611a45565b9050919050565b60008115159050919050565b600073ffffffffffffffffffffffffffffffffffffffff82169050919050565b6000819050919050565b6000611a7a82611a65565b9050919050565b6000611a8c82611a65565b9050919050565b82818337600083830152505050565b60005b83811015611ac0578082015181840152602081019050611aa5565b83811115611acf576000848401525b50505050565b60006002820490506001821680611aed57607f821691505b60208210811415611b0157611b00611b7f565b5b50919050565b6000611b1282611a65565b91507fffffffffffffffffffffffffffffffffffffffffffffffffffffffffffffffff821415611b4557611b44611b50565b5b600182019050919050565b7f4e487b7100000000000000000000000000000000000000000000000000000000600052601160045260246000fd5b7f4e487b7100000000000000000000000000000000000000000000000000000000600052602260045260246000fd5b7f4e487b7100000000000000000000000000000000000000000000000000000000600052604160045260246000fd5b6000601f19601f8301169050919050565b611bf781611a27565b8114611c0257600080fd5b50565b611c0e81611a39565b8114611c1957600080fd5b50565b611c2581611a65565b8114611c3057600080fd5b5056fea26469706673582212201e3923ad6a64a3002363c9311afb4c066f8ef9cdf9339667ff79379f38e4518764736f6c63430008000033608060405260028060006101000a81548160ff021916908360ff1602179055503480156200002c57600080fd5b50604051620017a9380380620017a9833981810160405281019062000052919062000213565b82600381905550600354600460003373ffffffffffffffffffffffffffffffffffffffff1673ffffffffffffffffffffffffffffffffffffffff168152602001908152602001600020819055508160009080519060200190620000b7929190620000da565b508060019080519060200190620000d0929190620000da565b50505050620003f0565b828054620000e89062000342565b90600052602060002090601f0160209004810192826200010c576000855562000158565b82601f106200012757805160ff191683800117855562000158565b8280016001018555821562000158579182015b82811115620001575782518255916020019190600101906200013a565b5b5090506200016791906200016b565b5090565b5b80821115620001865760008160009055506001016200016c565b5090565b6000620001a16200019b84620002cf565b6200029b565b905082815260208101848484011115620001ba57600080fd5b620001c78482856200030c565b509392505050565b600082601f830112620001e157600080fd5b8151620001f38482602086016200018a565b91505092915050565b6000815190506200020d81620003d6565b92915050565b6000806000606084860312156200022957600080fd5b60006200023986828701620001fc565b935050602084015167ffffffffffffffff8111156200025757600080fd5b6200026586828701620001cf565b925050604084015167ffffffffffffffff8111156200028357600080fd5b6200029186828701620001cf565b9150509250925092565b6000604051905081810181811067ffffffffffffffff82111715620002c557620002c4620003a7565b5b8060405250919050565b600067ffffffffffffffff821115620002ed57620002ec620003a7565b5b601f19601f8301169050602081019050919050565b6000819050919050565b60005b838110156200032c5780820151818401526020810190506200030f565b838111156200033c576000848401525b50505050565b600060028204905060018216806200035b57607f821691505b6020821081141562000372576200037162000378565b5b50919050565b7f4e487b7100000000000000000000000000000000000000000000000000000000600052602260045260246000fd5b7f4e487b7100000000000000000000000000000000000000000000000000000000600052604160045260246000fd5b620003e18162000302565b8114620003ed57600080fd5b50565b6113a980620004006000396000f3fe608060405234801561001057600080fd5b50600436106100b45760003560e01c806370a082311161007157806370a08231146101a357806379cc6790146101d357806395d89b4114610203578063a9059cbb14610221578063cae9ca511461023d578063dd62ed3e1461026d576100b4565b806306fdde03146100b9578063095ea7b3146100d757806318160ddd1461010757806323b872dd14610125578063313ce5671461015557806342966c6814610173575b600080fd5b6100c161029d565b6040516100ce9190611063565b60405180910390f35b6100f160048036038101906100ec9190610e82565b61032b565b6040516100fe9190611048565b60405180910390f35b61010f6103b8565b60405161011c9190611085565b60405180910390f35b61013f600480360381019061013a9190610e33565b6103be565b60405161014c9190611048565b60405180910390f35b61015d6104f2565b60405161016a91906110a0565b60405180910390f35b61018d60048036038101906101889190610f25565b610505565b60405161019a9190611048565b60405180910390f35b6101bd60048036038101906101b89190610dce565b610619565b6040516101ca9190611085565b60405180910390f35b6101ed60048036038101906101e89190610e82565b610631565b6040516101fa9190611048565b60405180910390f35b61020b610862565b6040516102189190611063565b60405180910390f35b61023b60048036038101906102369190610e82565b6108f0565b005b61025760048036038101906102529190610ebe565b6108ff565b6040516102649190611048565b60405180910390f35b61028760048036038101906102829190610df7565b610998565b6040516102949190611085565b60405180910390f35b600080546102aa90611275565b80601f01602080910402602001604051908101604052809291908181526020018280546102d690611275565b80156103235780601f106102f857610100808354040283529160200191610323565b820191906000526020600020905b81548152906001019060200180831161030657829003601f168201915b505050505081565b600081600560003373ffffffffffffffffffffffffffffffffffffffff1673ffffffffffffffffffffffffffffffffffffffff16815260200190815260200160002060008573ffffffffffffffffffffffffffffffffffffffff1673ffffffffffffffffffffffffffffffffffffffff168152602001908152602001600020819055506001905092915050565b60035481565b6000600560008573ffffffffffffffffffffffffffffffffffffffff1673ffffffffffffffffffffffffffffffffffffffff16815260200190815260200160002060003373ffffffffffffffffffffffffffffffffffffffff1673ffffffffffffffffffffffffffffffffffffffff1681526020019081526020016000205482111561044957600080fd5b81600560008673ffffffffffffffffffffffffffffffffffffffff1673ffffffffffffffffffffffffffffffffffffffff16815260200190815260200160002060003373ffffffffffffffffffffffffffffffffffffffff1673ffffffffffffffffffffffffffffffffffffffff16815260200190815260200160002060008282546104d591906111aa565b925050819055506104e78484846109bd565b600190509392505050565b600260009054906101000a900460ff1681565b600081600460003373ffffffffffffffffffffffffffffffffffffffff1673ffffffffffffffffffffffffffffffffffffffff16815260200190815260200160002054101561055357600080fd5b81600460003373ffffffffffffffffffffffffffffffffffffffff1673ffffffffffffffffffffffffffffffffffffffff16815260200190815260200160002060008282546105a291906111aa565b9250508190555081600360008282546105bb91906111aa565b925050819055503373ffffffffffffffffffffffffffffffffffffffff167fcc16f5dbb4873280815c1ee09dbd06736cffcc184412cf7a71a0fdb75d397ca5836040516106089190611085565b60405180910390a260019050919050565b60046020528060005260406000206000915090505481565b600081600460008573ffffffffffffffffffffffffffffffffffffffff1673ffffffffffffffffffffffffffffffffffffffff16815260200190815260200160002054101561067f57600080fd5b600560008473ffffffffffffffffffffffffffffffffffffffff1673ffffffffffffffffffffffffffffffffffffffff16815260200190815260200160002060003373ffffffffffffffffffffffffffffffffffffffff1673ffffffffffffffffffffffffffffffffffffffff1681526020019081526020016000205482111561070857600080fd5b81600460008573ffffffffffffffffffffffffffffffffffffffff1673ffffffffffffffffffffffffffffffffffffffff168152602001908152602001600020600082825461075791906111aa565b9250508190555081600560008573ffffffffffffffffffffffffffffffffffffffff1673ffffffffffffffffffffffffffffffffffffffff16815260200190815260200160002060003373ffffffffffffffffffffffffffffffffffffffff1673ffffffffffffffffffffffffffffffffffffffff16815260200190815260200160002060008282546107ea91906111aa565b92505081905550816003600082825461080391906111aa565b925050819055508273ffffffffffffffffffffffffffffffffffffffff167fcc16f5dbb4873280815c1ee09dbd06736cffcc184412cf7a71a0fdb75d397ca5836040516108509190611085565b60405180910390a26001905092915050565b6001805461086f90611275565b80601f016020809104026020016040519081016040528092919081815260200182805461089b90611275565b80156108e85780601f106108bd576101008083540402835291602001916108e8565b820191906000526020600020905b8154815290600101906020018083116108cb57829003601f168201915b505050505081565b6108fb3383836109bd565b5050565b60008084905061090f858561032b565b1561098f578073ffffffffffffffffffffffffffffffffffffffff16638f4ffcb1338630876040518563ffffffff1660e01b81526004016109539493929190610ffc565b600060405180830381600087803b15801561096d57600080fd5b505af1158015610981573d6000803e3d6000fd5b505050506001915050610991565b505b9392505050565b6005602052816000526040600020602052806000526040600020600091509150505481565b600073ffffffffffffffffffffffffffffffffffffffff168273ffffffffffffffffffffffffffffffffffffffff1614156109f757600080fd5b80600460008573ffffffffffffffffffffffffffffffffffffffff1673ffffffffffffffffffffffffffffffffffffffff168152602001908152602001600020541015610a4357600080fd5b600460008373ffffffffffffffffffffffffffffffffffffffff1673ffffffffffffffffffffffffffffffffffffffff1681526020019081526020016000205481600460008573ffffffffffffffffffffffffffffffffffffffff1673ffffffffffffffffffffffffffffffffffffffff16815260200190815260200160002054610ace9190611154565b11610ad857600080fd5b6000600460008473ffffffffffffffffffffffffffffffffffffffff1673ffffffffffffffffffffffffffffffffffffffff16815260200190815260200160002054600460008673ffffffffffffffffffffffffffffffffffffffff1673ffffffffffffffffffffffffffffffffffffffff16815260200190815260200160002054610b649190611154565b905081600460008673ffffffffffffffffffffffffffffffffffffffff1673ffffffffffffffffffffffffffffffffffffffff1681526020019081526020016000206000828254610bb591906111aa565b9250508190555081600460008573ffffffffffffffffffffffffffffffffffffffff1673ffffffffffffffffffffffffffffffffffffffff1681526020019081526020016000206000828254610c0b9190611154565b925050819055508273ffffffffffffffffffffffffffffffffffffffff168473ffffffffffffffffffffffffffffffffffffffff167fddf252ad1be2c89b69c2b068fc378daa952ba7f163c4a11628f55a4df523b3ef84604051610c6f9190611085565b60405180910390a380600460008573ffffffffffffffffffffffffffffffffffffffff1673ffffffffffffffffffffffffffffffffffffffff16815260200190815260200160002054600460008773ffffffffffffffffffffffffffffffffffffffff1673ffffffffffffffffffffffffffffffffffffffff16815260200190815260200160002054610d029190611154565b14610d36577f4e487b7100000000000000000000000000000000000000000000000000000000600052600160045260246000fd5b50505050565b6000610d4f610d4a846110ec565b6110bb565b905082815260208101848484011115610d6757600080fd5b610d72848285611233565b509392505050565b600081359050610d8981611345565b92915050565b600082601f830112610da057600080fd5b8135610db0848260208601610d3c565b91505092915050565b600081359050610dc88161135c565b92915050565b600060208284031215610de057600080fd5b6000610dee84828501610d7a565b91505092915050565b60008060408385031215610e0a57600080fd5b6000610e1885828601610d7a565b9250506020610e2985828601610d7a565b9150509250929050565b600080600060608486031215610e4857600080fd5b6000610e5686828701610d7a565b9350506020610e6786828701610d7a565b9250506040610e7886828701610db9565b9150509250925092565b60008060408385031215610e9557600080fd5b6000610ea385828601610d7a565b9250506020610eb485828601610db9565b9150509250929050565b600080600060608486031215610ed357600080fd5b6000610ee186828701610d7a565b9350506020610ef286828701610db9565b925050604084013567ffffffffffffffff811115610f0f57600080fd5b610f1b86828701610d8f565b9150509250925092565b600060208284031215610f3757600080fd5b6000610f4584828501610db9565b91505092915050565b610f57816111de565b82525050565b610f66816111f0565b82525050565b6000610f778261111c565b610f818185611132565b9350610f91818560208601611242565b610f9a81611334565b840191505092915050565b6000610fb082611127565b610fba8185611143565b9350610fca818560208601611242565b610fd381611334565b840191505092915050565b610fe78161121c565b82525050565b610ff681611226565b82525050565b60006080820190506110116000830187610f4e565b61101e6020830186610fde565b61102b6040830185610f4e565b818103606083015261103d8184610f6c565b905095945050505050565b600060208201905061105d6000830184610f5d565b92915050565b6000602082019050818103600083015261107d8184610fa5565b905092915050565b600060208201905061109a6000830184610fde565b92915050565b60006020820190506110b56000830184610fed565b92915050565b6000604051905081810181811067ffffffffffffffff821117156110e2576110e1611305565b5b8060405250919050565b600067ffffffffffffffff82111561110757611106611305565b5b601f19601f8301169050602081019050919050565b600081519050919050565b600081519050919050565b600082825260208201905092915050565b600082825260208201905092915050565b600061115f8261121c565b915061116a8361121c565b9250827fffffffffffffffffffffffffffffffffffffffffffffffffffffffffffffffff0382111561119f5761119e6112a7565b5b828201905092915050565b60006111b58261121c565b91506111c08361121c565b9250828210156111d3576111d26112a7565b5b828203905092915050565b60006111e9826111fc565b9050919050565b60008115159050919050565b600073ffffffffffffffffffffffffffffffffffffffff82169050919050565b6000819050919050565b600060ff82169050919050565b82818337600083830152505050565b60005b83811015611260578082015181840152602081019050611245565b8381111561126f576000848401525b50505050565b6000600282049050600182168061128d57607f821691505b602082108114156112a1576112a06112d6565b5b50919050565b7f4e487b7100000000000000000000000000000000000000000000000000000000600052601160045260246000fd5b7f4e487b7100000000000000000000000000000000000000000000000000000000600052602260045260246000fd5b7f4e487b7100000000000000000000000000000000000000000000000000000000600052604160045260246000fd5b6000601f19601f8301169050919050565b61134e816111de565b811461135957600080fd5b50565b6113658161121c565b811461137057600080fd5b5056fea264697066735822122090f614338c3c10ef3b286014cd1cdb63add0288b180533febf584c2e8e90c36764736f6c63430008000033",
  "immutableReferences": {},
  "source": "//  \r\n// \r\n\r\n// SPDX-License-Identifier: MIT\r\npragma solidity >=0.4.21 <0.9.0;\r\n\r\nimport \"./TokenERC20.sol\";\r\n\r\ncontract AntiFraud {\r\n    // ERC20\r\n    // \r\n    uint256 totalCredit;\r\n    // credit.balanceOf\r\n    // \r\n    TokenERC20 credit = new TokenERC20(totalCredit, \"credit\", \"C\");\r\n    //  -> \r\n    // \r\n    address administrator;\r\n\r\n    //  -> id\r\n    uint policeIndex;\r\n    //  -> id\r\n    uint civilIndex;\r\n    //  -> id\r\n    uint screenshotIndex;\r\n    //  -> id\r\n    uint caseIndex;\r\n    //  -> id\r\n    uint taskIndex;\r\n    //  -> id\r\n    uint taskAnswerIndex;\r\n\r\n    constructor() {\r\n        totalCredit = 100;\r\n        // Soliditymsg.sender\r\n        administrator = msg.sender;\r\n        // 0\r\n        policeIndex = 0;\r\n        civilIndex = 0;\r\n        screenshotIndex = 0;\r\n        caseIndex = 0;\r\n        taskIndex = 0;\r\n        taskAnswerIndex= 0;\r\n    }\r\n    // \r\n    struct Police {\r\n        // id\r\n        uint id;\r\n        // \r\n        string name;\r\n        // TODO \r\n        string avatarLink;\r\n    }\r\n    // \r\n    mapping(address => Police) policeList;\r\n       // get1\r\n    function getPoliceUser1(address _policeUserAddress) external view returns (uint, string memory, string memory) {\r\n        return(policeList[_policeUserAddress].id, policeList[_policeUserAddress].name, policeList[_policeUserAddress].avatarLink);\r\n    }\r\n    // \r\n    function createPoliceUser(string memory _name, string memory _avatarLink) external {\r\n        // \r\n        policeIndex++;\r\n        // \r\n        Police storage police = policeList[msg.sender];\r\n        // id\r\n        police.id = policeIndex;\r\n        // \r\n        police.name = _name;\r\n        // \r\n        police.avatarLink = _avatarLink;\r\n        // \r\n        // credit.balanceOf[msg.sender] = 0;\r\n        // \r\n        //policeList[msg.sender] = police;\r\n    }\r\n    // \r\n    struct Civil {\r\n        // id\r\n        uint id;\r\n        // \r\n        string name;\r\n        // TODO \r\n        string avatarLink;\r\n    }\r\n    // \r\n    mapping(address => Civil) civilList;\r\n    // \r\n    function createCivilUser(string memory _name, string memory _avatarLink) external {\r\n        // \r\n        civilIndex++;\r\n        // \r\n        Civil storage civil = civilList[msg.sender];\r\n        // id\r\n        civil.id = civilIndex;\r\n        // \r\n        civil.name = _name;\r\n        // \r\n        civil.avatarLink = _avatarLink;\r\n        // \r\n        // credit.balanceOf[msg.sender] = 0;\r\n        // \r\n        // civilList[msg.sender] = civil;\r\n    }\r\n    // \r\n    //  \r\n    struct FraudScreenshot {\r\n        // id\r\n        uint id;\r\n        // \r\n        address auditPoliceUser;\r\n        // ipfs\r\n        string screenshotLink;\r\n        // \r\n        bool isValid;\r\n        // \r\n        uint postTime;\r\n    }\r\n    // \r\n    // mapping(address => mapping(uint => FraudScreenshot)) screenshotList;\r\n    mapping(address => FraudScreenshot) screenshotList;\r\n    // (id)\r\n    mapping(uint => address) screenshotIdToPostCivilUser;\r\n    // \r\n    function postScreenshot(string memory _screenshotLink) external {\r\n        // \r\n        screenshotIndex++;\r\n        // \r\n        screenshotIdToPostCivilUser[screenshotIndex] = msg.sender;\r\n        // \r\n        FraudScreenshot storage fraudScreenshot = screenshotList[msg.sender];\r\n        // id\r\n        fraudScreenshot.id = screenshotIndex;           \r\n        //  \r\n        fraudScreenshot.postTime = block.timestamp;\r\n        //    \r\n        fraudScreenshot.screenshotLink = _screenshotLink; \r\n        //   \r\n        fraudScreenshot.isValid = false;\r\n        // \r\n        // screenshotList[msg.sender] = fraudScreenshot;\r\n    }\r\n    // \r\n    function auditScreenshot(uint _screenshotIndex, bool _isVaild) external {\r\n        // \r\n        screenshotList[screenshotIdToPostCivilUser[_screenshotIndex]].isValid = _isVaild;\r\n        // \r\n        screenshotList[screenshotIdToPostCivilUser[_screenshotIndex]].auditPoliceUser = msg.sender;\r\n        // \r\n        credit.transferFrom(administrator, msg.sender, 1);\r\n        //  \r\n        if (_isVaild) {\r\n            credit.transferFrom(administrator, screenshotIdToPostCivilUser[_screenshotIndex], 1);\r\n        }\r\n    }\r\n    // \r\n    //  \r\n    struct FraudCase {\r\n        // id\r\n        uint id;\r\n        // \r\n        string title;\r\n        // TODO \r\n        \r\n        // \r\n        string description;\r\n        // \r\n        uint postTime;\r\n        // ipfs\r\n        string caseImageLink;\r\n    }\r\n    // \r\n    // mapping(address => mapping(uint => FraudCase)) caseList;\r\n    mapping(address => FraudCase) caseList;\r\n    // (id)\r\n    mapping(uint => address) caseIdToPostPoliceUser;\r\n    //  -> \r\n    function postCase(string memory _title, string memory _description, string memory _caseImageLink) external {\r\n        // \r\n        caseIndex++;\r\n        // \r\n        FraudCase storage fraudCase = caseList[msg.sender];\r\n        // id\r\n        fraudCase.id = caseIndex;\r\n        // \r\n        fraudCase.postTime = block.timestamp;\r\n\r\n        fraudCase.title = _title;\r\n        fraudCase.description = _description;\r\n        // \r\n        fraudCase.caseImageLink = _caseImageLink;\r\n        // \r\n        caseIdToPostPoliceUser[caseIndex] = msg.sender;\r\n        // \r\n        // caseList[msg.sender] = fraudCase;\r\n        // \r\n        credit.transferFrom(administrator, msg.sender, 1);\r\n    } \r\n    // \r\n    //  \r\n    struct Task {\r\n        // id\r\n        uint id;\r\n        // \r\n        string title;\r\n        // \r\n        string description;\r\n        // \r\n        uint postTime;\r\n        // \r\n        bool isSolved;\r\n        // ipfs\r\n        string taskImageLink;\r\n        // true false\r\n        bool isAnswerInRush;\r\n        // \r\n        bool isAccept;\r\n    }\r\n    // \r\n    // mapping(address => mapping(uint => Task)) taskList;\r\n    mapping(address => Task) taskList;\r\n    // (id)\r\n    mapping(uint => address) taskIdToPostPoliceUser;\r\n    //  -> \r\n    // 1.  \r\n    // 2.  \r\n    function postTask(string memory _title, string memory _description, string memory _taskImageLink, bool _isAnswerInRush) external {\r\n        // \r\n        taskIndex++;\r\n        // \r\n        Task storage task = taskList[msg.sender];\r\n        // \r\n        task.id = taskIndex;\r\n        // \r\n        task.postTime = block.timestamp;\r\n\r\n        task.title = _title;\r\n        task.description = _description;\r\n        // \r\n        task.taskImageLink = _taskImageLink;\r\n        // \r\n        task.isSolved = false;\r\n        // \r\n        task.isAnswerInRush = _isAnswerInRush;\r\n        // \r\n        task.isAccept = false;\r\n        // \r\n        taskIdToPostPoliceUser[taskIndex] = msg.sender;\r\n        // \r\n        // taskList[msg.sender] = task;\r\n    }\r\n    // id\r\n    mapping(uint => address) taskIdToAnswerRusher;\r\n    // \r\n    function acceptTask(uint _taskIndex) external {\r\n        taskList[taskIdToPostPoliceUser[_taskIndex]].isAnswerInRush = true;\r\n        taskList[taskIdToPostPoliceUser[_taskIndex]].isAccept = true;\r\n        // \r\n        taskIdToAnswerRusher[_taskIndex] = msg.sender;\r\n        // \r\n        credit.transferFrom(msg.sender, administrator, 1);\r\n    }\r\n    // \r\n    struct TaskAnswer {\r\n        // id\r\n        uint id;\r\n        // \r\n        string detail;\r\n        // \r\n        uint postTime;\r\n    }\r\n    // id\r\n    mapping (uint => mapping (address => TaskAnswer)) answerList; \r\n    // \r\n    mapping (uint => mapping (uint => address)) answerAdressList; \r\n    // \r\n    function postTaskAnswer(uint _taskIndex, string memory _detail) external {\r\n        // \r\n        taskAnswerIndex++;\r\n        // \r\n        TaskAnswer storage answer = answerList[_taskIndex][msg.sender];\r\n        // \r\n        answerAdressList[_taskIndex][taskAnswerIndex] = msg.sender;\r\n        // id\r\n        answer.id = taskAnswerIndex;\r\n        // \r\n        answer.detail = _detail;\r\n        // \r\n        answer.postTime = block.timestamp;\r\n    }\r\n    // \r\n    // \r\n    function _taskFailed(uint _taskIndex) internal {\r\n        // \r\n        taskList[taskIdToPostPoliceUser[_taskIndex]].isAccept = false;\r\n    }\r\n    // \r\n    function taskFailed(uint _taskIndex) external {\r\n        _taskFailed(_taskIndex);\r\n    }\r\n    //  \r\n    function taskCompelte(uint _taskIndex, uint _answerIndex, bool _isAdopt) external {\r\n        if (_isAdopt) {\r\n            taskList[taskIdToPostPoliceUser[_taskIndex]].isSolved = true;\r\n            if (taskList[taskIdToPostPoliceUser[_taskIndex]].isAnswerInRush) {\r\n                // +\r\n                credit.transferFrom(administrator, taskIdToAnswerRusher[_taskIndex], 2);\r\n            } else {\r\n                // \r\n                credit.transferFrom(administrator, answerAdressList[_taskIndex][_answerIndex], 1);\r\n            }\r\n        } else {\r\n            _taskFailed(_taskIndex);\r\n        }\r\n    }\r\n}\r\n",
  "sourcePath": "D:\\ServiceSystem\\test\\AntiFraud\\contracts\\AntiFraud.sol",
  "compiler": {
    "name": "solc",
    "version": "0.8.0+commit.c7dfd78e.Emscripten.clang"
  },
  "schemaVersion": "3.4.6",
  "updatedAt": "2022-04-07T10:38:55.257Z",
  "devdoc": {
    "kind": "dev",
    "methods": {},
    "version": 1
  },
  "userdoc": {
    "kind": "user",
    "methods": {},
    "version": 1
  }
}