{
  "contractName": "AntiFraud",
  "abi": [
    {
      "inputs": [],
      "stateMutability": "nonpayable",
      "type": "constructor"
    },
    {
      "inputs": [
        {
          "internalType": "address",
          "name": "_policeUserAddress",
          "type": "address"
        }
      ],
      "name": "getPoliceUser1",
      "outputs": [
        {
          "internalType": "uint256",
          "name": "",
          "type": "uint256"
        },
        {
          "internalType": "string",
          "name": "",
          "type": "string"
        },
        {
          "internalType": "string",
          "name": "",
          "type": "string"
        }
      ],
      "stateMutability": "view",
      "type": "function",
      "constant": true
    },
    {
      "inputs": [
        {
          "internalType": "string",
          "name": "_name",
          "type": "string"
        },
        {
          "internalType": "string",
          "name": "_avatarLink",
          "type": "string"
        }
      ],
      "name": "createPoliceUser",
      "outputs": [],
      "stateMutability": "nonpayable",
      "type": "function"
    },
    {
      "inputs": [
        {
          "internalType": "address",
          "name": "_civilUserAddress",
          "type": "address"
        }
      ],
      "name": "getCivilUser",
      "outputs": [
        {
          "internalType": "uint256",
          "name": "",
          "type": "uint256"
        },
        {
          "internalType": "string",
          "name": "",
          "type": "string"
        },
        {
          "internalType": "string",
          "name": "",
          "type": "string"
        }
      ],
      "stateMutability": "view",
      "type": "function",
      "constant": true
    },
    {
      "inputs": [
        {
          "internalType": "string",
          "name": "_name",
          "type": "string"
        },
        {
          "internalType": "string",
          "name": "_avatarLink",
          "type": "string"
        }
      ],
      "name": "createCivilUser",
      "outputs": [],
      "stateMutability": "nonpayable",
      "type": "function"
    },
    {
      "inputs": [
        {
          "internalType": "address",
          "name": "_address",
          "type": "address"
        }
      ],
      "name": "getBalanceOf",
      "outputs": [
        {
          "internalType": "uint256",
          "name": "",
          "type": "uint256"
        }
      ],
      "stateMutability": "view",
      "type": "function",
      "constant": true
    },
    {
      "inputs": [
        {
          "internalType": "string",
          "name": "_screenshotLink",
          "type": "string"
        }
      ],
      "name": "postScreenshot",
      "outputs": [],
      "stateMutability": "nonpayable",
      "type": "function"
    },
    {
      "inputs": [],
      "name": "getScreenshot",
      "outputs": [
        {
          "internalType": "uint256[]",
          "name": "",
          "type": "uint256[]"
        },
        {
          "internalType": "address[]",
          "name": "",
          "type": "address[]"
        },
        {
          "internalType": "string[]",
          "name": "",
          "type": "string[]"
        },
        {
          "internalType": "bool[]",
          "name": "",
          "type": "bool[]"
        },
        {
          "internalType": "uint256[]",
          "name": "",
          "type": "uint256[]"
        }
      ],
      "stateMutability": "view",
      "type": "function",
      "constant": true
    },
    {
      "inputs": [
        {
          "internalType": "uint256",
          "name": "_screenshotIndex",
          "type": "uint256"
        },
        {
          "internalType": "bool",
          "name": "_isVaild",
          "type": "bool"
        }
      ],
      "name": "auditScreenshot",
      "outputs": [],
      "stateMutability": "nonpayable",
      "type": "function"
    },
    {
      "inputs": [],
      "name": "getCase",
      "outputs": [
        {
          "internalType": "uint256[]",
          "name": "",
          "type": "uint256[]"
        },
        {
          "internalType": "string[]",
          "name": "",
          "type": "string[]"
        },
        {
          "internalType": "string[]",
          "name": "",
          "type": "string[]"
        },
        {
          "internalType": "uint256[]",
          "name": "",
          "type": "uint256[]"
        },
        {
          "internalType": "string[]",
          "name": "",
          "type": "string[]"
        }
      ],
      "stateMutability": "view",
      "type": "function",
      "constant": true
    },
    {
      "inputs": [
        {
          "internalType": "string",
          "name": "_title",
          "type": "string"
        },
        {
          "internalType": "string",
          "name": "_description",
          "type": "string"
        },
        {
          "internalType": "string",
          "name": "_caseImageLink",
          "type": "string"
        }
      ],
      "name": "postCase",
      "outputs": [],
      "stateMutability": "nonpayable",
      "type": "function"
    },
    {
      "inputs": [],
      "name": "getTask",
      "outputs": [
        {
          "internalType": "uint256[]",
          "name": "",
          "type": "uint256[]"
        },
        {
          "internalType": "string[]",
          "name": "",
          "type": "string[]"
        },
        {
          "internalType": "string[]",
          "name": "",
          "type": "string[]"
        },
        {
          "internalType": "uint256[]",
          "name": "",
          "type": "uint256[]"
        },
        {
          "internalType": "bool[]",
          "name": "",
          "type": "bool[]"
        },
        {
          "internalType": "string[]",
          "name": "",
          "type": "string[]"
        },
        {
          "internalType": "bool[]",
          "name": "",
          "type": "bool[]"
        },
        {
          "internalType": "bool[]",
          "name": "",
          "type": "bool[]"
        }
      ],
      "stateMutability": "view",
      "type": "function",
      "constant": true
    },
    {
      "inputs": [
        {
          "internalType": "string",
          "name": "_title",
          "type": "string"
        },
        {
          "internalType": "string",
          "name": "_description",
          "type": "string"
        },
        {
          "internalType": "string",
          "name": "_taskImageLink",
          "type": "string"
        },
        {
          "internalType": "bool",
          "name": "_isAnswerInRush",
          "type": "bool"
        }
      ],
      "name": "postTask",
      "outputs": [],
      "stateMutability": "nonpayable",
      "type": "function"
    },
    {
      "inputs": [
        {
          "internalType": "uint256",
          "name": "_taskIndex",
          "type": "uint256"
        }
      ],
      "name": "acceptTask",
      "outputs": [],
      "stateMutability": "nonpayable",
      "type": "function"
    },
    {
      "inputs": [
        {
          "internalType": "uint256",
          "name": "_taskIndex",
          "type": "uint256"
        },
        {
          "internalType": "string",
          "name": "_detail",
          "type": "string"
        }
      ],
      "name": "postTaskAnswer",
      "outputs": [],
      "stateMutability": "nonpayable",
      "type": "function"
    },
    {
      "inputs": [
        {
          "internalType": "uint256",
          "name": "_taskIndex",
          "type": "uint256"
        }
      ],
      "name": "taskFailed",
      "outputs": [],
      "stateMutability": "nonpayable",
      "type": "function"
    },
    {
      "inputs": [
        {
          "internalType": "uint256",
          "name": "_taskIndex",
          "type": "uint256"
        },
        {
          "internalType": "uint256",
          "name": "_answerIndex",
          "type": "uint256"
        },
        {
          "internalType": "bool",
          "name": "_isAdopt",
          "type": "bool"
        }
      ],
      "name": "taskCompelte",
      "outputs": [],
      "stateMutability": "nonpayable",
      "type": "function"
    }
  ],
  "bytecode": "0x608060405260005460405162000015906200010c565b620000219190620001af565b604051809103906000f0801580156200003e573d6000803e3d6000fd5b50600160006101000a81548173ffffffffffffffffffffffffffffffffffffffff021916908373ffffffffffffffffffffffffffffffffffffffff1602179055503480156200008c57600080fd5b50606460008190555033600260006101000a81548173ffffffffffffffffffffffffffffffffffffffff021916908373ffffffffffffffffffffffffffffffffffffffff16021790555060006003819055506000600481905550600060058190555060006006819055506000600781905550600060088190555062000211565b61183d806200344683390190565b600062000129600183620001f6565b91507f43000000000000000000000000000000000000000000000000000000000000006000830152602082019050919050565b60006200016b600683620001f6565b91507f63726564697400000000000000000000000000000000000000000000000000006000830152602082019050919050565b620001a98162000207565b82525050565b6000606082019050620001c660008301846200019e565b8181036020830152620001d9816200015c565b90508181036040830152620001ee816200011a565b905092915050565b600082825260208201905092915050565b6000819050919050565b61322580620002216000396000f3fe608060405234801561001057600080fd5b50600436106101005760003560e01c80639b414a0511610097578063ce2cafb011610066578063ce2cafb014610294578063d2e3ada5146102b0578063e6ba4be9146102cc578063f4b75ffb146102fe57610100565b80639b414a05146102015780639b96eece14610223578063a31662d214610253578063be9293c61461027857610100565b8063480daedd116100d3578063480daedd1461018b5780635da131f7146101ad5780635e4e6e88146101c9578063978b3e27146101e557610100565b80631bca0435146101055780631bf6912d1461012157806321cc9b9e1461013d5780632922729114610159575b600080fd5b61011f600480360381019061011a9190612744565b61031a565b005b61013b600480360381019061013691906127ef565b610485565b005b610157600480360381019061015291906126ad565b6106cb565b005b610173600480360381019061016e91906125ae565b6108b4565b60405161018293929190612e2c565b60405180910390f35b610193610aa5565b6040516101a4959493929190612d9b565b60405180910390f35b6101c760048036038101906101c291906127ef565b610eaa565b005b6101e360048036038101906101de9190612641565b610eb6565b005b6101ff60048036038101906101fa9190612641565b610f53565b005b610209610ff0565b60405161021a959493929190612c6f565b60405180910390f35b61023d600480360381019061023891906125ae565b611378565b60405161024a9190612e11565b60405180910390f35b61025b61142c565b60405161026f989796959493929190612ce5565b60405180910390f35b610292600480360381019061028d9190612841565b61198b565b005b6102ae60048036038101906102a99190612600565b611cb4565b005b6102ca60048036038101906102c591906128d1565b611db1565b005b6102e660048036038101906102e191906125ae565b612108565b6040516102f593929190612e2c565b60405180910390f35b6103186004803603810190610313919061287d565b6122a6565b005b6007600081548092919061032d906130c3565b91905055506000600f60003373ffffffffffffffffffffffffffffffffffffffff1673ffffffffffffffffffffffffffffffffffffffff16815260200190815260200160002090506007548160000181905550428160030181905550848160010190805190602001906103a192919061243a565b50838160020190805190602001906103ba92919061243a565b50828160050190805190602001906103d392919061243a565b5060008160040160006101000a81548160ff021916908315150217905550818160060160006101000a81548160ff02191690831515021790555060008160060160016101000a81548160ff0219169083151502179055503360106000600754815260200190815260200160002060006101000a81548173ffffffffffffffffffffffffffffffffffffffff021916908373ffffffffffffffffffffffffffffffffffffffff1602179055505050505050565b6001600f60006010600085815260200190815260200160002060009054906101000a900473ffffffffffffffffffffffffffffffffffffffff1673ffffffffffffffffffffffffffffffffffffffff1673ffffffffffffffffffffffffffffffffffffffff16815260200190815260200160002060060160006101000a81548160ff0219169083151502179055506001600f60006010600085815260200190815260200160002060009054906101000a900473ffffffffffffffffffffffffffffffffffffffff1673ffffffffffffffffffffffffffffffffffffffff1673ffffffffffffffffffffffffffffffffffffffff16815260200190815260200160002060060160016101000a81548160ff021916908315150217905550336011600083815260200190815260200160002060006101000a81548173ffffffffffffffffffffffffffffffffffffffff021916908373ffffffffffffffffffffffffffffffffffffffff160217905550600160009054906101000a900473ffffffffffffffffffffffffffffffffffffffff1673ffffffffffffffffffffffffffffffffffffffff166323b872dd33600260009054906101000a900473ffffffffffffffffffffffffffffffffffffffff1660016040518463ffffffff1660e01b815260040161067593929190612c01565b602060405180830381600087803b15801561068f57600080fd5b505af11580156106a3573d6000803e3d6000fd5b505050506040513d601f19601f820116820180604052508101906106c791906125d7565b5050565b600660008154809291906106de906130c3565b91905055506000600d60003373ffffffffffffffffffffffffffffffffffffffff1673ffffffffffffffffffffffffffffffffffffffff168152602001908152602001600020905060065481600001819055504281600301819055508381600101908051906020019061075292919061243a565b508281600201908051906020019061076b92919061243a565b508181600401908051906020019061078492919061243a565b5033600e6000600654815260200190815260200160002060006101000a81548173ffffffffffffffffffffffffffffffffffffffff021916908373ffffffffffffffffffffffffffffffffffffffff160217905550600160009054906101000a900473ffffffffffffffffffffffffffffffffffffffff1673ffffffffffffffffffffffffffffffffffffffff166323b872dd600260009054906101000a900473ffffffffffffffffffffffffffffffffffffffff163360016040518463ffffffff1660e01b815260040161085b93929190612c01565b602060405180830381600087803b15801561087557600080fd5b505af1158015610889573d6000803e3d6000fd5b505050506040513d601f19601f820116820180604052508101906108ad91906125d7565b5050505050565b6000606080600960008573ffffffffffffffffffffffffffffffffffffffff1673ffffffffffffffffffffffffffffffffffffffff16815260200190815260200160002060000154600960008673ffffffffffffffffffffffffffffffffffffffff1673ffffffffffffffffffffffffffffffffffffffff168152602001908152602001600020600101600960008773ffffffffffffffffffffffffffffffffffffffff1673ffffffffffffffffffffffffffffffffffffffff16815260200190815260200160002060020181805461098c90613091565b80601f01602080910402602001604051908101604052809291908181526020018280546109b890613091565b8015610a055780601f106109da57610100808354040283529160200191610a05565b820191906000526020600020905b8154815290600101906020018083116109e857829003601f168201915b50505050509150808054610a1890613091565b80601f0160208091040260200160405190810160405280929190818152602001828054610a4490613091565b8015610a915780601f10610a6657610100808354040283529160200191610a91565b820191906000526020600020905b815481529060010190602001808311610a7457829003601f168201915b505050505090509250925092509193909250565b60608060608060608060608060608060005b6006548111610e8e576000600d6000600e600085815260200190815260200160002060009054906101000a900473ffffffffffffffffffffffffffffffffffffffff1673ffffffffffffffffffffffffffffffffffffffff1673ffffffffffffffffffffffffffffffffffffffff1681526020019081526020016000206040518060a001604052908160008201548152602001600182018054610b5990613091565b80601f0160208091040260200160405190810160405280929190818152602001828054610b8590613091565b8015610bd25780601f10610ba757610100808354040283529160200191610bd2565b820191906000526020600020905b815481529060010190602001808311610bb557829003601f168201915b50505050508152602001600282018054610beb90613091565b80601f0160208091040260200160405190810160405280929190818152602001828054610c1790613091565b8015610c645780601f10610c3957610100808354040283529160200191610c64565b820191906000526020600020905b815481529060010190602001808311610c4757829003601f168201915b5050505050815260200160038201548152602001600482018054610c8790613091565b80601f0160208091040260200160405190810160405280929190818152602001828054610cb390613091565b8015610d005780601f10610cd557610100808354040283529160200191610d00565b820191906000526020600020905b815481529060010190602001808311610ce357829003601f168201915b50505050508152505090508060000151878381518110610d49577f4e487b7100000000000000000000000000000000000000000000000000000000600052603260045260246000fd5b6020026020010181815250508060200151868381518110610d93577f4e487b7100000000000000000000000000000000000000000000000000000000600052603260045260246000fd5b60200260200101819052508060400151858381518110610ddc577f4e487b7100000000000000000000000000000000000000000000000000000000600052603260045260246000fd5b60200260200101819052508060600151848381518110610e25577f4e487b7100000000000000000000000000000000000000000000000000000000600052603260045260246000fd5b6020026020010181815250508060800151838381518110610e6f577f4e487b7100000000000000000000000000000000000000000000000000000000600052603260045260246000fd5b6020026020010181905250508080610e86906130c3565b915050610ab7565b5084848484849950995099509950995050505050509091929394565b610eb3816123a9565b50565b60036000815480929190610ec9906130c3565b91905055506000600960003373ffffffffffffffffffffffffffffffffffffffff1673ffffffffffffffffffffffffffffffffffffffff1681526020019081526020016000209050600354816000018190555082816001019080519060200190610f3492919061243a565b5081816002019080519060200190610f4d92919061243a565b50505050565b60046000815480929190610f66906130c3565b91905055506000600a60003373ffffffffffffffffffffffffffffffffffffffff1673ffffffffffffffffffffffffffffffffffffffff1681526020019081526020016000209050600454816000018190555082816001019080519060200190610fd192919061243a565b5081816002019080519060200190610fea92919061243a565b50505050565b60608060608060608060608060608060005b600554811161135c576000600b6000600c600085815260200190815260200160002060009054906101000a900473ffffffffffffffffffffffffffffffffffffffff1673ffffffffffffffffffffffffffffffffffffffff1673ffffffffffffffffffffffffffffffffffffffff1681526020019081526020016000206040518060a0016040529081600082015481526020016001820160009054906101000a900473ffffffffffffffffffffffffffffffffffffffff1673ffffffffffffffffffffffffffffffffffffffff1673ffffffffffffffffffffffffffffffffffffffff1681526020016002820180546110fa90613091565b80601f016020809104026020016040519081016040528092919081815260200182805461112690613091565b80156111735780601f1061114857610100808354040283529160200191611173565b820191906000526020600020905b81548152906001019060200180831161115657829003601f168201915b505050505081526020016003820160009054906101000a900460ff16151515158152602001600482015481525050905080600001518783815181106111e1577f4e487b7100000000000000000000000000000000000000000000000000000000600052603260045260246000fd5b602002602001018181525050806020015186838151811061122b577f4e487b7100000000000000000000000000000000000000000000000000000000600052603260045260246000fd5b602002602001019073ffffffffffffffffffffffffffffffffffffffff16908173ffffffffffffffffffffffffffffffffffffffff168152505080604001518583815181106112a3577f4e487b7100000000000000000000000000000000000000000000000000000000600052603260045260246000fd5b602002602001018190525080606001518483815181106112ec577f4e487b7100000000000000000000000000000000000000000000000000000000600052603260045260246000fd5b602002602001019015159081151581525050806080015183838151811061133c577f4e487b7100000000000000000000000000000000000000000000000000000000600052603260045260246000fd5b602002602001018181525050508080611354906130c3565b915050611002565b5084848484849950995099509950995050505050509091929394565b6000600160009054906101000a900473ffffffffffffffffffffffffffffffffffffffff1673ffffffffffffffffffffffffffffffffffffffff1663ee21aa64836040518263ffffffff1660e01b81526004016113d59190612be6565b60206040518083038186803b1580156113ed57600080fd5b505afa158015611401573d6000803e3d6000fd5b505050506040513d601f19601f820116820180604052508101906114259190612818565b9050919050565b60608060608060608060608060608060608060608060608060005b6007548111611960576000600f60006010600085815260200190815260200160002060009054906101000a900473ffffffffffffffffffffffffffffffffffffffff1673ffffffffffffffffffffffffffffffffffffffff1673ffffffffffffffffffffffffffffffffffffffff16815260200190815260200160002060405180610100016040529081600082015481526020016001820180546114ea90613091565b80601f016020809104026020016040519081016040528092919081815260200182805461151690613091565b80156115635780601f1061153857610100808354040283529160200191611563565b820191906000526020600020905b81548152906001019060200180831161154657829003601f168201915b5050505050815260200160028201805461157c90613091565b80601f01602080910402602001604051908101604052809291908181526020018280546115a890613091565b80156115f55780601f106115ca576101008083540402835291602001916115f5565b820191906000526020600020905b8154815290600101906020018083116115d857829003601f168201915b50505050508152602001600382015481526020016004820160009054906101000a900460ff1615151515815260200160058201805461163390613091565b80601f016020809104026020016040519081016040528092919081815260200182805461165f90613091565b80156116ac5780601f10611681576101008083540402835291602001916116ac565b820191906000526020600020905b81548152906001019060200180831161168f57829003601f168201915b505050505081526020016006820160009054906101000a900460ff161515151581526020016006820160019054906101000a900460ff161515151581525050905080600001518a838151811061172b577f4e487b7100000000000000000000000000000000000000000000000000000000600052603260045260246000fd5b6020026020010181815250508060200151898381518110611775577f4e487b7100000000000000000000000000000000000000000000000000000000600052603260045260246000fd5b602002602001018190525080604001518883815181106117be577f4e487b7100000000000000000000000000000000000000000000000000000000600052603260045260246000fd5b60200260200101819052508060600151878381518110611807577f4e487b7100000000000000000000000000000000000000000000000000000000600052603260045260246000fd5b6020026020010181815250508060800151868381518110611851577f4e487b7100000000000000000000000000000000000000000000000000000000600052603260045260246000fd5b6020026020010190151590811515815250508060a001518583815181106118a1577f4e487b7100000000000000000000000000000000000000000000000000000000600052603260045260246000fd5b60200260200101819052508060c001518483815181106118ea577f4e487b7100000000000000000000000000000000000000000000000000000000600052603260045260246000fd5b6020026020010190151590811515815250508060e0015183838151811061193a577f4e487b7100000000000000000000000000000000000000000000000000000000600052603260045260246000fd5b602002602001019015159081151581525050508080611958906130c3565b915050611447565b5087878787878787879f509f509f509f509f509f509f509f5050505050505050509091929394959697565b80600b6000600c600086815260200190815260200160002060009054906101000a900473ffffffffffffffffffffffffffffffffffffffff1673ffffffffffffffffffffffffffffffffffffffff1673ffffffffffffffffffffffffffffffffffffffff16815260200190815260200160002060030160006101000a81548160ff02191690831515021790555033600b6000600c600086815260200190815260200160002060009054906101000a900473ffffffffffffffffffffffffffffffffffffffff1673ffffffffffffffffffffffffffffffffffffffff1673ffffffffffffffffffffffffffffffffffffffff16815260200190815260200160002060010160006101000a81548173ffffffffffffffffffffffffffffffffffffffff021916908373ffffffffffffffffffffffffffffffffffffffff160217905550600160009054906101000a900473ffffffffffffffffffffffffffffffffffffffff1673ffffffffffffffffffffffffffffffffffffffff166323b872dd600260009054906101000a900473ffffffffffffffffffffffffffffffffffffffff163360016040518463ffffffff1660e01b8152600401611b4e93929190612c01565b602060405180830381600087803b158015611b6857600080fd5b505af1158015611b7c573d6000803e3d6000fd5b505050506040513d601f19601f82011682018060405250810190611ba091906125d7565b508015611cb057600160009054906101000a900473ffffffffffffffffffffffffffffffffffffffff1673ffffffffffffffffffffffffffffffffffffffff166323b872dd600260009054906101000a900473ffffffffffffffffffffffffffffffffffffffff16600c600086815260200190815260200160002060009054906101000a900473ffffffffffffffffffffffffffffffffffffffff1660016040518463ffffffff1660e01b8152600401611c5c93929190612c01565b602060405180830381600087803b158015611c7657600080fd5b505af1158015611c8a573d6000803e3d6000fd5b505050506040513d601f19601f82011682018060405250810190611cae91906125d7565b505b5050565b60056000815480929190611cc7906130c3565b919050555033600c6000600554815260200190815260200160002060006101000a81548173ffffffffffffffffffffffffffffffffffffffff021916908373ffffffffffffffffffffffffffffffffffffffff1602179055506000600b60003373ffffffffffffffffffffffffffffffffffffffff1673ffffffffffffffffffffffffffffffffffffffff1681526020019081526020016000209050600554816000018190555042816004018190555081816002019080519060200190611d8f92919061243a565b5060008160030160006101000a81548160ff0219169083151502179055505050565b80156120f9576001600f60006010600087815260200190815260200160002060009054906101000a900473ffffffffffffffffffffffffffffffffffffffff1673ffffffffffffffffffffffffffffffffffffffff1673ffffffffffffffffffffffffffffffffffffffff16815260200190815260200160002060040160006101000a81548160ff021916908315150217905550600f60006010600086815260200190815260200160002060009054906101000a900473ffffffffffffffffffffffffffffffffffffffff1673ffffffffffffffffffffffffffffffffffffffff1673ffffffffffffffffffffffffffffffffffffffff16815260200190815260200160002060060160009054906101000a900460ff1615611fda57600160009054906101000a900473ffffffffffffffffffffffffffffffffffffffff1673ffffffffffffffffffffffffffffffffffffffff166323b872dd600260009054906101000a900473ffffffffffffffffffffffffffffffffffffffff166011600087815260200190815260200160002060009054906101000a900473ffffffffffffffffffffffffffffffffffffffff1660026040518463ffffffff1660e01b8152600401611f8293929190612c38565b602060405180830381600087803b158015611f9c57600080fd5b505af1158015611fb0573d6000803e3d6000fd5b505050506040513d601f19601f82011682018060405250810190611fd491906125d7565b506120f4565b600160009054906101000a900473ffffffffffffffffffffffffffffffffffffffff1673ffffffffffffffffffffffffffffffffffffffff166323b872dd600260009054906101000a900473ffffffffffffffffffffffffffffffffffffffff1660136000878152602001908152602001600020600086815260200190815260200160002060009054906101000a900473ffffffffffffffffffffffffffffffffffffffff1660016040518463ffffffff1660e01b81526004016120a093929190612c01565b602060405180830381600087803b1580156120ba57600080fd5b505af11580156120ce573d6000803e3d6000fd5b505050506040513d601f19601f820116820180604052508101906120f291906125d7565b505b612103565b612102836123a9565b5b505050565b60006060806000600a60008673ffffffffffffffffffffffffffffffffffffffff1673ffffffffffffffffffffffffffffffffffffffff1681526020019081526020016000206040518060600160405290816000820154815260200160018201805461217390613091565b80601f016020809104026020016040519081016040528092919081815260200182805461219f90613091565b80156121ec5780601f106121c1576101008083540402835291602001916121ec565b820191906000526020600020905b8154815290600101906020018083116121cf57829003601f168201915b5050505050815260200160028201805461220590613091565b80601f016020809104026020016040519081016040528092919081815260200182805461223190613091565b801561227e5780601f106122535761010080835404028352916020019161227e565b820191906000526020600020905b81548152906001019060200180831161226157829003601f168201915b5050505050815250509050806000015181602001518260400151935093509350509193909250565b600860008154809291906122b9906130c3565b919050555060006012600084815260200190815260200160002060003373ffffffffffffffffffffffffffffffffffffffff1673ffffffffffffffffffffffffffffffffffffffff168152602001908152602001600020905033601360008581526020019081526020016000206000600854815260200190815260200160002060006101000a81548173ffffffffffffffffffffffffffffffffffffffff021916908373ffffffffffffffffffffffffffffffffffffffff16021790555060085481600001819055508181600101908051906020019061239a92919061243a565b50428160020181905550505050565b6000600f60006010600085815260200190815260200160002060009054906101000a900473ffffffffffffffffffffffffffffffffffffffff1673ffffffffffffffffffffffffffffffffffffffff1673ffffffffffffffffffffffffffffffffffffffff16815260200190815260200160002060060160016101000a81548160ff02191690831515021790555050565b82805461244690613091565b90600052602060002090601f01602090048101928261246857600085556124af565b82601f1061248157805160ff19168380011785556124af565b828001600101855582156124af579182015b828111156124ae578251825591602001919060010190612493565b5b5090506124bc91906124c0565b5090565b5b808211156124d95760008160009055506001016124c1565b5090565b60006124f06124eb84612ea2565b612e71565b90508281526020810184848401111561250857600080fd5b61251384828561304f565b509392505050565b60008135905061252a816131aa565b92915050565b60008135905061253f816131c1565b92915050565b600081519050612554816131c1565b92915050565b600082601f83011261256b57600080fd5b813561257b8482602086016124dd565b91505092915050565b600081359050612593816131d8565b92915050565b6000815190506125a8816131d8565b92915050565b6000602082840312156125c057600080fd5b60006125ce8482850161251b565b91505092915050565b6000602082840312156125e957600080fd5b60006125f784828501612545565b91505092915050565b60006020828403121561261257600080fd5b600082013567ffffffffffffffff81111561262c57600080fd5b6126388482850161255a565b91505092915050565b6000806040838503121561265457600080fd5b600083013567ffffffffffffffff81111561266e57600080fd5b61267a8582860161255a565b925050602083013567ffffffffffffffff81111561269757600080fd5b6126a38582860161255a565b9150509250929050565b6000806000606084860312156126c257600080fd5b600084013567ffffffffffffffff8111156126dc57600080fd5b6126e88682870161255a565b935050602084013567ffffffffffffffff81111561270557600080fd5b6127118682870161255a565b925050604084013567ffffffffffffffff81111561272e57600080fd5b61273a8682870161255a565b9150509250925092565b6000806000806080858703121561275a57600080fd5b600085013567ffffffffffffffff81111561277457600080fd5b6127808782880161255a565b945050602085013567ffffffffffffffff81111561279d57600080fd5b6127a98782880161255a565b935050604085013567ffffffffffffffff8111156127c657600080fd5b6127d28782880161255a565b92505060606127e387828801612530565b91505092959194509250565b60006020828403121561280157600080fd5b600061280f84828501612584565b91505092915050565b60006020828403121561282a57600080fd5b600061283884828501612599565b91505092915050565b6000806040838503121561285457600080fd5b600061286285828601612584565b925050602061287385828601612530565b9150509250929050565b6000806040838503121561289057600080fd5b600061289e85828601612584565b925050602083013567ffffffffffffffff8111156128bb57600080fd5b6128c78582860161255a565b9150509250929050565b6000806000606084860312156128e657600080fd5b60006128f486828701612584565b935050602061290586828701612584565b925050604061291686828701612530565b9150509250925092565b600061292c838361297c565b60208301905092915050565b60006129448383612b29565b60208301905092915050565b600061295c8383612b56565b905092915050565b60006129708383612bc8565b60208301905092915050565b61298581612fe3565b82525050565b61299481612fe3565b82525050565b60006129a582612f12565b6129af8185612f7d565b93506129ba83612ed2565b8060005b838110156129eb5781516129d28882612920565b97506129dd83612f49565b9250506001810190506129be565b5085935050505092915050565b6000612a0382612f1d565b612a0d8185612f8e565b9350612a1883612ee2565b8060005b83811015612a49578151612a308882612938565b9750612a3b83612f56565b925050600181019050612a1c565b5085935050505092915050565b6000612a6182612f28565b612a6b8185612f9f565b935083602082028501612a7d85612ef2565b8060005b85811015612ab95784840389528151612a9a8582612950565b9450612aa583612f63565b925060208a01995050600181019050612a81565b50829750879550505050505092915050565b6000612ad682612f33565b612ae08185612fb0565b9350612aeb83612f02565b8060005b83811015612b1c578151612b038882612964565b9750612b0e83612f70565b925050600181019050612aef565b5085935050505092915050565b612b3281612ff5565b82525050565b612b418161302b565b82525050565b612b508161303d565b82525050565b6000612b6182612f3e565b612b6b8185612fc1565b9350612b7b81856020860161305e565b612b8481613199565b840191505092915050565b6000612b9a82612f3e565b612ba48185612fd2565b9350612bb481856020860161305e565b612bbd81613199565b840191505092915050565b612bd181613021565b82525050565b612be081613021565b82525050565b6000602082019050612bfb600083018461298b565b92915050565b6000606082019050612c16600083018661298b565b612c23602083018561298b565b612c306040830184612b38565b949350505050565b6000606082019050612c4d600083018661298b565b612c5a602083018561298b565b612c676040830184612b47565b949350505050565b600060a0820190508181036000830152612c898188612acb565b90508181036020830152612c9d818761299a565b90508181036040830152612cb18186612a56565b90508181036060830152612cc581856129f8565b90508181036080830152612cd98184612acb565b90509695505050505050565b6000610100820190508181036000830152612d00818b612acb565b90508181036020830152612d14818a612a56565b90508181036040830152612d288189612a56565b90508181036060830152612d3c8188612acb565b90508181036080830152612d5081876129f8565b905081810360a0830152612d648186612a56565b905081810360c0830152612d7881856129f8565b905081810360e0830152612d8c81846129f8565b90509998505050505050505050565b600060a0820190508181036000830152612db58188612acb565b90508181036020830152612dc98187612a56565b90508181036040830152612ddd8186612a56565b90508181036060830152612df18185612acb565b90508181036080830152612e058184612a56565b90509695505050505050565b6000602082019050612e266000830184612bd7565b92915050565b6000606082019050612e416000830186612bd7565b8181036020830152612e538185612b8f565b90508181036040830152612e678184612b8f565b9050949350505050565b6000604051905081810181811067ffffffffffffffff82111715612e9857612e9761316a565b5b8060405250919050565b600067ffffffffffffffff821115612ebd57612ebc61316a565b5b601f19601f8301169050602081019050919050565b6000819050602082019050919050565b6000819050602082019050919050565b6000819050602082019050919050565b6000819050602082019050919050565b600081519050919050565b600081519050919050565b600081519050919050565b600081519050919050565b600081519050919050565b6000602082019050919050565b6000602082019050919050565b6000602082019050919050565b6000602082019050919050565b600082825260208201905092915050565b600082825260208201905092915050565b600082825260208201905092915050565b600082825260208201905092915050565b600082825260208201905092915050565b600082825260208201905092915050565b6000612fee82613001565b9050919050565b60008115159050919050565b600073ffffffffffffffffffffffffffffffffffffffff82169050919050565b6000819050919050565b600061303682613021565b9050919050565b600061304882613021565b9050919050565b82818337600083830152505050565b60005b8381101561307c578082015181840152602081019050613061565b8381111561308b576000848401525b50505050565b600060028204905060018216806130a957607f821691505b602082108114156130bd576130bc61313b565b5b50919050565b60006130ce82613021565b91507fffffffffffffffffffffffffffffffffffffffffffffffffffffffffffffffff8214156131015761310061310c565b5b600182019050919050565b7f4e487b7100000000000000000000000000000000000000000000000000000000600052601160045260246000fd5b7f4e487b7100000000000000000000000000000000000000000000000000000000600052602260045260246000fd5b7f4e487b7100000000000000000000000000000000000000000000000000000000600052604160045260246000fd5b6000601f19601f8301169050919050565b6131b381612fe3565b81146131be57600080fd5b50565b6131ca81612ff5565b81146131d557600080fd5b50565b6131e181613021565b81146131ec57600080fd5b5056fea2646970667358221220603f37cc79af4dbc95629636b60cdab4360ae114af9988b6432991e8fd862bfb64736f6c63430008000033608060405260028060006101000a81548160ff021916908360ff1602179055503480156200002c57600080fd5b506040516200183d3803806200183d833981810160405281019062000052919062000213565b82600381905550600354600460003373ffffffffffffffffffffffffffffffffffffffff1673ffffffffffffffffffffffffffffffffffffffff168152602001908152602001600020819055508160009080519060200190620000b7929190620000da565b508060019080519060200190620000d0929190620000da565b50505050620003f0565b828054620000e89062000342565b90600052602060002090601f0160209004810192826200010c576000855562000158565b82601f106200012757805160ff191683800117855562000158565b8280016001018555821562000158579182015b82811115620001575782518255916020019190600101906200013a565b5b5090506200016791906200016b565b5090565b5b80821115620001865760008160009055506001016200016c565b5090565b6000620001a16200019b84620002cf565b6200029b565b905082815260208101848484011115620001ba57600080fd5b620001c78482856200030c565b509392505050565b600082601f830112620001e157600080fd5b8151620001f38482602086016200018a565b91505092915050565b6000815190506200020d81620003d6565b92915050565b6000806000606084860312156200022957600080fd5b60006200023986828701620001fc565b935050602084015167ffffffffffffffff8111156200025757600080fd5b6200026586828701620001cf565b925050604084015167ffffffffffffffff8111156200028357600080fd5b6200029186828701620001cf565b9150509250925092565b6000604051905081810181811067ffffffffffffffff82111715620002c557620002c4620003a7565b5b8060405250919050565b600067ffffffffffffffff821115620002ed57620002ec620003a7565b5b601f19601f8301169050602081019050919050565b6000819050919050565b60005b838110156200032c5780820151818401526020810190506200030f565b838111156200033c576000848401525b50505050565b600060028204905060018216806200035b57607f821691505b6020821081141562000372576200037162000378565b5b50919050565b7f4e487b7100000000000000000000000000000000000000000000000000000000600052602260045260246000fd5b7f4e487b7100000000000000000000000000000000000000000000000000000000600052604160045260246000fd5b620003e18162000302565b8114620003ed57600080fd5b50565b61143d80620004006000396000f3fe608060405234801561001057600080fd5b50600436106100cf5760003560e01c806370a082311161008c578063a9059cbb11610066578063a9059cbb1461023c578063cae9ca5114610258578063dd62ed3e14610288578063ee21aa64146102b8576100cf565b806370a08231146101be57806379cc6790146101ee57806395d89b411461021e576100cf565b806306fdde03146100d4578063095ea7b3146100f257806318160ddd1461012257806323b872dd14610140578063313ce5671461017057806342966c681461018e575b600080fd5b6100dc6102e8565b6040516100e991906110f7565b60405180910390f35b61010c60048036038101906101079190610f16565b610376565b60405161011991906110dc565b60405180910390f35b61012a610403565b6040516101379190611119565b60405180910390f35b61015a60048036038101906101559190610ec7565b610409565b60405161016791906110dc565b60405180910390f35b61017861053d565b6040516101859190611134565b60405180910390f35b6101a860048036038101906101a39190610fb9565b610550565b6040516101b591906110dc565b60405180910390f35b6101d860048036038101906101d39190610e62565b610664565b6040516101e59190611119565b60405180910390f35b61020860048036038101906102039190610f16565b61067c565b60405161021591906110dc565b60405180910390f35b6102266108ad565b60405161023391906110f7565b60405180910390f35b61025660048036038101906102519190610f16565b61093b565b005b610272600480360381019061026d9190610f52565b61094a565b60405161027f91906110dc565b60405180910390f35b6102a2600480360381019061029d9190610e8b565b6109e3565b6040516102af9190611119565b60405180910390f35b6102d260048036038101906102cd9190610e62565b610a08565b6040516102df9190611119565b60405180910390f35b600080546102f590611309565b80601f016020809104026020016040519081016040528092919081815260200182805461032190611309565b801561036e5780601f106103435761010080835404028352916020019161036e565b820191906000526020600020905b81548152906001019060200180831161035157829003601f168201915b505050505081565b600081600560003373ffffffffffffffffffffffffffffffffffffffff1673ffffffffffffffffffffffffffffffffffffffff16815260200190815260200160002060008573ffffffffffffffffffffffffffffffffffffffff1673ffffffffffffffffffffffffffffffffffffffff168152602001908152602001600020819055506001905092915050565b60035481565b6000600560008573ffffffffffffffffffffffffffffffffffffffff1673ffffffffffffffffffffffffffffffffffffffff16815260200190815260200160002060003373ffffffffffffffffffffffffffffffffffffffff1673ffffffffffffffffffffffffffffffffffffffff1681526020019081526020016000205482111561049457600080fd5b81600560008673ffffffffffffffffffffffffffffffffffffffff1673ffffffffffffffffffffffffffffffffffffffff16815260200190815260200160002060003373ffffffffffffffffffffffffffffffffffffffff1673ffffffffffffffffffffffffffffffffffffffff1681526020019081526020016000206000828254610520919061123e565b92505081905550610532848484610a51565b600190509392505050565b600260009054906101000a900460ff1681565b600081600460003373ffffffffffffffffffffffffffffffffffffffff1673ffffffffffffffffffffffffffffffffffffffff16815260200190815260200160002054101561059e57600080fd5b81600460003373ffffffffffffffffffffffffffffffffffffffff1673ffffffffffffffffffffffffffffffffffffffff16815260200190815260200160002060008282546105ed919061123e565b925050819055508160036000828254610606919061123e565b925050819055503373ffffffffffffffffffffffffffffffffffffffff167fcc16f5dbb4873280815c1ee09dbd06736cffcc184412cf7a71a0fdb75d397ca5836040516106539190611119565b60405180910390a260019050919050565b60046020528060005260406000206000915090505481565b600081600460008573ffffffffffffffffffffffffffffffffffffffff1673ffffffffffffffffffffffffffffffffffffffff1681526020019081526020016000205410156106ca57600080fd5b600560008473ffffffffffffffffffffffffffffffffffffffff1673ffffffffffffffffffffffffffffffffffffffff16815260200190815260200160002060003373ffffffffffffffffffffffffffffffffffffffff1673ffffffffffffffffffffffffffffffffffffffff1681526020019081526020016000205482111561075357600080fd5b81600460008573ffffffffffffffffffffffffffffffffffffffff1673ffffffffffffffffffffffffffffffffffffffff16815260200190815260200160002060008282546107a2919061123e565b9250508190555081600560008573ffffffffffffffffffffffffffffffffffffffff1673ffffffffffffffffffffffffffffffffffffffff16815260200190815260200160002060003373ffffffffffffffffffffffffffffffffffffffff1673ffffffffffffffffffffffffffffffffffffffff1681526020019081526020016000206000828254610835919061123e565b92505081905550816003600082825461084e919061123e565b925050819055508273ffffffffffffffffffffffffffffffffffffffff167fcc16f5dbb4873280815c1ee09dbd06736cffcc184412cf7a71a0fdb75d397ca58360405161089b9190611119565b60405180910390a26001905092915050565b600180546108ba90611309565b80601f01602080910402602001604051908101604052809291908181526020018280546108e690611309565b80156109335780601f1061090857610100808354040283529160200191610933565b820191906000526020600020905b81548152906001019060200180831161091657829003601f168201915b505050505081565b610946338383610a51565b5050565b60008084905061095a8585610376565b156109da578073ffffffffffffffffffffffffffffffffffffffff16638f4ffcb1338630876040518563ffffffff1660e01b815260040161099e9493929190611090565b600060405180830381600087803b1580156109b857600080fd5b505af11580156109cc573d6000803e3d6000fd5b5050505060019150506109dc565b505b9392505050565b6005602052816000526040600020602052806000526040600020600091509150505481565b6000600460008373ffffffffffffffffffffffffffffffffffffffff1673ffffffffffffffffffffffffffffffffffffffff168152602001908152602001600020549050919050565b600073ffffffffffffffffffffffffffffffffffffffff168273ffffffffffffffffffffffffffffffffffffffff161415610a8b57600080fd5b80600460008573ffffffffffffffffffffffffffffffffffffffff1673ffffffffffffffffffffffffffffffffffffffff168152602001908152602001600020541015610ad757600080fd5b600460008373ffffffffffffffffffffffffffffffffffffffff1673ffffffffffffffffffffffffffffffffffffffff1681526020019081526020016000205481600460008573ffffffffffffffffffffffffffffffffffffffff1673ffffffffffffffffffffffffffffffffffffffff16815260200190815260200160002054610b6291906111e8565b11610b6c57600080fd5b6000600460008473ffffffffffffffffffffffffffffffffffffffff1673ffffffffffffffffffffffffffffffffffffffff16815260200190815260200160002054600460008673ffffffffffffffffffffffffffffffffffffffff1673ffffffffffffffffffffffffffffffffffffffff16815260200190815260200160002054610bf891906111e8565b905081600460008673ffffffffffffffffffffffffffffffffffffffff1673ffffffffffffffffffffffffffffffffffffffff1681526020019081526020016000206000828254610c49919061123e565b9250508190555081600460008573ffffffffffffffffffffffffffffffffffffffff1673ffffffffffffffffffffffffffffffffffffffff1681526020019081526020016000206000828254610c9f91906111e8565b925050819055508273ffffffffffffffffffffffffffffffffffffffff168473ffffffffffffffffffffffffffffffffffffffff167fddf252ad1be2c89b69c2b068fc378daa952ba7f163c4a11628f55a4df523b3ef84604051610d039190611119565b60405180910390a380600460008573ffffffffffffffffffffffffffffffffffffffff1673ffffffffffffffffffffffffffffffffffffffff16815260200190815260200160002054600460008773ffffffffffffffffffffffffffffffffffffffff1673ffffffffffffffffffffffffffffffffffffffff16815260200190815260200160002054610d9691906111e8565b14610dca577f4e487b7100000000000000000000000000000000000000000000000000000000600052600160045260246000fd5b50505050565b6000610de3610dde84611180565b61114f565b905082815260208101848484011115610dfb57600080fd5b610e068482856112c7565b509392505050565b600081359050610e1d816113d9565b92915050565b600082601f830112610e3457600080fd5b8135610e44848260208601610dd0565b91505092915050565b600081359050610e5c816113f0565b92915050565b600060208284031215610e7457600080fd5b6000610e8284828501610e0e565b91505092915050565b60008060408385031215610e9e57600080fd5b6000610eac85828601610e0e565b9250506020610ebd85828601610e0e565b9150509250929050565b600080600060608486031215610edc57600080fd5b6000610eea86828701610e0e565b9350506020610efb86828701610e0e565b9250506040610f0c86828701610e4d565b9150509250925092565b60008060408385031215610f2957600080fd5b6000610f3785828601610e0e565b9250506020610f4885828601610e4d565b9150509250929050565b600080600060608486031215610f6757600080fd5b6000610f7586828701610e0e565b9350506020610f8686828701610e4d565b925050604084013567ffffffffffffffff811115610fa357600080fd5b610faf86828701610e23565b9150509250925092565b600060208284031215610fcb57600080fd5b6000610fd984828501610e4d565b91505092915050565b610feb81611272565b82525050565b610ffa81611284565b82525050565b600061100b826111b0565b61101581856111c6565b93506110258185602086016112d6565b61102e816113c8565b840191505092915050565b6000611044826111bb565b61104e81856111d7565b935061105e8185602086016112d6565b611067816113c8565b840191505092915050565b61107b816112b0565b82525050565b61108a816112ba565b82525050565b60006080820190506110a56000830187610fe2565b6110b26020830186611072565b6110bf6040830185610fe2565b81810360608301526110d18184611000565b905095945050505050565b60006020820190506110f16000830184610ff1565b92915050565b600060208201905081810360008301526111118184611039565b905092915050565b600060208201905061112e6000830184611072565b92915050565b60006020820190506111496000830184611081565b92915050565b6000604051905081810181811067ffffffffffffffff8211171561117657611175611399565b5b8060405250919050565b600067ffffffffffffffff82111561119b5761119a611399565b5b601f19601f8301169050602081019050919050565b600081519050919050565b600081519050919050565b600082825260208201905092915050565b600082825260208201905092915050565b60006111f3826112b0565b91506111fe836112b0565b9250827fffffffffffffffffffffffffffffffffffffffffffffffffffffffffffffffff038211156112335761123261133b565b5b828201905092915050565b6000611249826112b0565b9150611254836112b0565b9250828210156112675761126661133b565b5b828203905092915050565b600061127d82611290565b9050919050565b60008115159050919050565b600073ffffffffffffffffffffffffffffffffffffffff82169050919050565b6000819050919050565b600060ff82169050919050565b82818337600083830152505050565b60005b838110156112f45780820151818401526020810190506112d9565b83811115611303576000848401525b50505050565b6000600282049050600182168061132157607f821691505b602082108114156113355761133461136a565b5b50919050565b7f4e487b7100000000000000000000000000000000000000000000000000000000600052601160045260246000fd5b7f4e487b7100000000000000000000000000000000000000000000000000000000600052602260045260246000fd5b7f4e487b7100000000000000000000000000000000000000000000000000000000600052604160045260246000fd5b6000601f19601f8301169050919050565b6113e281611272565b81146113ed57600080fd5b50565b6113f9816112b0565b811461140457600080fd5b5056fea2646970667358221220b4582d7db861cbe995a0cf90b17d6ce26d41c0733b171a77ed64afeed0cedf9e64736f6c63430008000033",
  "immutableReferences": {},
  "source": "//  \r\n// \r\n\r\n// SPDX-License-Identifier: MIT\r\npragma solidity >=0.4.21 <0.9.0;\r\n\r\nimport \"./TokenERC20.sol\";\r\n\r\ncontract AntiFraud {\r\n    // ERC20\r\n    // \r\n    uint256 totalCredit;\r\n    // credit.balanceOf\r\n    // \r\n    TokenERC20 credit = new TokenERC20(totalCredit, \"credit\", \"C\");\r\n    //  -> \r\n    // \r\n    address administrator;\r\n\r\n    //  -> id\r\n    uint policeIndex;\r\n    //  -> id\r\n    uint civilIndex;\r\n    //  -> id\r\n    uint screenshotIndex;\r\n    //  -> id\r\n    uint caseIndex;\r\n    //  -> id\r\n    uint taskIndex;\r\n    //  -> id\r\n    uint taskAnswerIndex;\r\n\r\n    constructor() {\r\n        totalCredit = 100;\r\n        // Soliditymsg.sender\r\n        administrator = msg.sender;\r\n        // 0\r\n        policeIndex = 0;\r\n        civilIndex = 0;\r\n        screenshotIndex = 0;\r\n        caseIndex = 0;\r\n        taskIndex = 0;\r\n        taskAnswerIndex= 0;\r\n    }\r\n    // \r\n    struct Police {\r\n        // id\r\n        uint id;\r\n        // \r\n        string name;\r\n        // TODO \r\n        string avatarLink;\r\n    }\r\n    // \r\n    // mapping(uint => address) policeIdToAddress;\r\n    // \r\n    mapping(address => Police) policeList;\r\n       // get1\r\n    function getPoliceUser1(address _policeUserAddress) external view returns (uint, string memory, string memory) {\r\n        return(policeList[_policeUserAddress].id, policeList[_policeUserAddress].name, policeList[_policeUserAddress].avatarLink);\r\n    }\r\n    // \r\n    function createPoliceUser(string memory _name, string memory _avatarLink) external {\r\n        // \r\n        policeIndex++;\r\n        // \r\n        Police storage police = policeList[msg.sender];\r\n        // id\r\n        police.id = policeIndex;\r\n        // \r\n        police.name = _name;\r\n        // \r\n        police.avatarLink = _avatarLink;\r\n        // \r\n        // credit.balanceOf[msg.sender] = 0;\r\n        // \r\n        //policeList[msg.sender] = police;\r\n    }\r\n    // \r\n    struct Civil {\r\n        // id\r\n        uint id;\r\n        // \r\n        string name;\r\n        // TODO \r\n        string avatarLink;\r\n    }\r\n    // \r\n    mapping(address => Civil) civilList;\r\n    // get\r\n    function getCivilUser(address _civilUserAddress) external view returns (uint, string memory, string memory) {\r\n        Civil memory civil = civilList[_civilUserAddress];\r\n        return(civil.id, civil.name, civil.avatarLink); \r\n    }\r\n    // \r\n    function createCivilUser(string memory _name, string memory _avatarLink) external {\r\n        // \r\n        civilIndex++;\r\n        // \r\n        Civil storage civil = civilList[msg.sender];\r\n        // id\r\n        civil.id = civilIndex;\r\n        // \r\n        civil.name = _name;\r\n        // \r\n        civil.avatarLink = _avatarLink;\r\n        // \r\n        // credit.balanceOf[msg.sender] = 0;\r\n        // \r\n        // civilList[msg.sender] = civil;\r\n    }\r\n    // get\r\n    function getBalanceOf(address _address) external view returns (uint256) {\r\n        return credit._getBalance(_address);\r\n    }\r\n    // \r\n    //  \r\n    struct FraudScreenshot {\r\n        // id\r\n        uint id;\r\n        // \r\n        address auditPoliceUser;\r\n        // ipfs\r\n        string screenshotLink;\r\n        // \r\n        bool isValid;\r\n        // \r\n        uint postTime;\r\n    }\r\n    // \r\n    // mapping(address => mapping(uint => FraudScreenshot)) screenshotList;\r\n    mapping(address => FraudScreenshot) screenshotList;\r\n    // (id)\r\n    mapping(uint => address) screenshotIdToPostCivilUser;\r\n    // \r\n    function postScreenshot(string memory _screenshotLink) external {\r\n        // \r\n        screenshotIndex++;\r\n        // \r\n        screenshotIdToPostCivilUser[screenshotIndex] = msg.sender;\r\n        // \r\n        FraudScreenshot storage fraudScreenshot = screenshotList[msg.sender];\r\n        // id\r\n        fraudScreenshot.id = screenshotIndex;           \r\n        //  \r\n        fraudScreenshot.postTime = block.timestamp;\r\n        //    \r\n        fraudScreenshot.screenshotLink = _screenshotLink; \r\n        //   \r\n        fraudScreenshot.isValid = false;\r\n        // \r\n        // screenshotList[msg.sender] = fraudScreenshot;\r\n    }\r\n    // get\r\n    function getScreenshot() external view \r\n        returns (uint[] memory, address[] memory, string[] memory, bool[] memory, uint[] memory) {\r\n        uint[] memory ids;\r\n        address[] memory auditPoliceUsers;\r\n        string[] memory screenshotLinks;\r\n        bool[] memory valids;\r\n        uint[] memory postTimes; \r\n        for (uint i = 0; i <= screenshotIndex; i++) {\r\n            FraudScreenshot memory screenshot = screenshotList[screenshotIdToPostCivilUser[i]];\r\n            ids[i] = screenshot.id;\r\n            auditPoliceUsers[i] = screenshot.auditPoliceUser;\r\n            screenshotLinks[i] = screenshot.screenshotLink;\r\n            valids[i] = screenshot.isValid;\r\n            postTimes[i] = screenshot.postTime;\r\n        }\r\n        return(ids, auditPoliceUsers, screenshotLinks, valids, postTimes);\r\n    }\r\n    // \r\n    function auditScreenshot(uint _screenshotIndex, bool _isVaild) external {\r\n        // \r\n        screenshotList[screenshotIdToPostCivilUser[_screenshotIndex]].isValid = _isVaild;\r\n        // \r\n        screenshotList[screenshotIdToPostCivilUser[_screenshotIndex]].auditPoliceUser = msg.sender;\r\n        // \r\n        credit.transferFrom(administrator, msg.sender, 1);\r\n        //  \r\n        if (_isVaild) {\r\n            credit.transferFrom(administrator, screenshotIdToPostCivilUser[_screenshotIndex], 1);\r\n        }\r\n    }\r\n    // \r\n    //  \r\n    struct FraudCase {\r\n        // id\r\n        uint id;\r\n        // \r\n        string title;\r\n        // TODO \r\n        \r\n        // \r\n        string description;\r\n        // \r\n        uint postTime;\r\n        // ipfs\r\n        string caseImageLink;\r\n    }\r\n    // \r\n    // mapping(address => mapping(uint => FraudCase)) caseList;\r\n    mapping(address => FraudCase) caseList;\r\n    // (id)\r\n    mapping(uint => address) caseIdToPostPoliceUser;\r\n    // get\r\n    function getCase() external view \r\n        returns (uint[] memory, string[] memory, string[] memory, uint[] memory, string[] memory) {\r\n            uint[] memory ids;\r\n            string[] memory titles;\r\n            string[] memory descriptions;\r\n            uint[] memory postTimes;\r\n            string[] memory caseImageLinks;\r\n            for (uint i = 0; i <= caseIndex; i++) {\r\n                FraudCase memory fraudCase = caseList[caseIdToPostPoliceUser[i]];\r\n                ids[i] = fraudCase.id;\r\n                titles[i] = fraudCase.title;\r\n                descriptions[i] = fraudCase.description;\r\n                postTimes[i] = fraudCase.postTime;\r\n                caseImageLinks[i] = fraudCase.caseImageLink; \r\n            }\r\n            return(ids, titles, descriptions, postTimes, caseImageLinks);\r\n    }\r\n    //  -> \r\n    function postCase(string memory _title, string memory _description, string memory _caseImageLink) external {\r\n        // \r\n        caseIndex++;\r\n        // \r\n        FraudCase storage fraudCase = caseList[msg.sender];\r\n        // id\r\n        fraudCase.id = caseIndex;\r\n        // \r\n        fraudCase.postTime = block.timestamp;\r\n\r\n        fraudCase.title = _title;\r\n        fraudCase.description = _description;\r\n        // \r\n        fraudCase.caseImageLink = _caseImageLink;\r\n        // \r\n        caseIdToPostPoliceUser[caseIndex] = msg.sender;\r\n        // \r\n        // caseList[msg.sender] = fraudCase;\r\n        // \r\n        credit.transferFrom(administrator, msg.sender, 1);\r\n    } \r\n    // \r\n    //  \r\n    struct Task {\r\n        // id\r\n        uint id;\r\n        // \r\n        string title;\r\n        // \r\n        string description;\r\n        // \r\n        uint postTime;\r\n        // \r\n        bool isSolved;\r\n        // ipfs\r\n        string taskImageLink;\r\n        // true false\r\n        bool isAnswerInRush;\r\n        // \r\n        bool isAccept;\r\n    }\r\n    // \r\n    // mapping(address => mapping(uint => Task)) taskList;\r\n    mapping(address => Task) taskList;\r\n    // (id)\r\n    mapping(uint => address) taskIdToPostPoliceUser;\r\n    // get\r\n    function getTask() external view \r\n        returns (uint[] memory, string[] memory, string[] memory, uint[] memory, bool[] memory, string[] memory, bool[] memory, bool[] memory) {\r\n            uint[] memory ids;\r\n            string[] memory titles;\r\n            string[] memory descriptions;\r\n            uint[] memory postTimes;\r\n            bool[] memory isSolveds;\r\n            string[] memory taskImageLinks;\r\n            bool[] memory isAnswerInRushs;\r\n            bool[] memory isAccpets;\r\n            for (uint i = 0; i <= taskIndex; i++) {\r\n                Task memory task = taskList[taskIdToPostPoliceUser[i]];\r\n                ids[i] = task.id;\r\n                titles[i] = task.title;\r\n                descriptions[i] = task.description;\r\n                postTimes[i] = task.postTime;\r\n                isSolveds[i] = task.isSolved;\r\n                taskImageLinks[i] = task.taskImageLink;\r\n                isAnswerInRushs[i] = task.isAnswerInRush;\r\n                isAccpets[i] = task.isAccept; \r\n            }\r\n            return(ids, titles, descriptions, postTimes, isSolveds, taskImageLinks, isAnswerInRushs, isAccpets);\r\n    }  \r\n    //  -> \r\n    // 1.  \r\n    // 2.  \r\n    function postTask(string memory _title, string memory _description, string memory _taskImageLink, bool _isAnswerInRush) external {\r\n        // \r\n        taskIndex++;\r\n        // \r\n        Task storage task = taskList[msg.sender];\r\n        // \r\n        task.id = taskIndex;\r\n        // \r\n        task.postTime = block.timestamp;\r\n\r\n        task.title = _title;\r\n        task.description = _description;\r\n        // \r\n        task.taskImageLink = _taskImageLink;\r\n        // \r\n        task.isSolved = false;\r\n        // \r\n        task.isAnswerInRush = _isAnswerInRush;\r\n        // \r\n        task.isAccept = false;\r\n        // \r\n        taskIdToPostPoliceUser[taskIndex] = msg.sender;\r\n        // \r\n        // taskList[msg.sender] = task;\r\n    }\r\n    // id\r\n    mapping(uint => address) taskIdToAnswerRusher;\r\n    // \r\n    function acceptTask(uint _taskIndex) external {\r\n        taskList[taskIdToPostPoliceUser[_taskIndex]].isAnswerInRush = true;\r\n        taskList[taskIdToPostPoliceUser[_taskIndex]].isAccept = true;\r\n        // \r\n        taskIdToAnswerRusher[_taskIndex] = msg.sender;\r\n        // \r\n        credit.transferFrom(msg.sender, administrator, 1);\r\n    }\r\n    // \r\n    struct TaskAnswer {\r\n        // id\r\n        uint id;\r\n        // \r\n        string detail;\r\n        // \r\n        uint postTime;\r\n    }\r\n    // id\r\n    mapping (uint => mapping (address => TaskAnswer)) answerList; \r\n    // \r\n    mapping (uint => mapping (uint => address)) answerAdressList; \r\n    // \r\n    function postTaskAnswer(uint _taskIndex, string memory _detail) external {\r\n        // \r\n        taskAnswerIndex++;\r\n        // \r\n        TaskAnswer storage answer = answerList[_taskIndex][msg.sender];\r\n        // \r\n        answerAdressList[_taskIndex][taskAnswerIndex] = msg.sender;\r\n        // id\r\n        answer.id = taskAnswerIndex;\r\n        // \r\n        answer.detail = _detail;\r\n        // \r\n        answer.postTime = block.timestamp;\r\n    }\r\n    // \r\n    // \r\n    function _taskFailed(uint _taskIndex) internal {\r\n        // \r\n        taskList[taskIdToPostPoliceUser[_taskIndex]].isAccept = false;\r\n    }\r\n    // \r\n    function taskFailed(uint _taskIndex) external {\r\n        _taskFailed(_taskIndex);\r\n    }\r\n    //  \r\n    function taskCompelte(uint _taskIndex, uint _answerIndex, bool _isAdopt) external {\r\n        if (_isAdopt) {\r\n            taskList[taskIdToPostPoliceUser[_taskIndex]].isSolved = true;\r\n            if (taskList[taskIdToPostPoliceUser[_taskIndex]].isAnswerInRush) {\r\n                // +\r\n                credit.transferFrom(administrator, taskIdToAnswerRusher[_taskIndex], 2);\r\n            } else {\r\n                // \r\n                credit.transferFrom(administrator, answerAdressList[_taskIndex][_answerIndex], 1);\r\n            }\r\n        } else {\r\n            _taskFailed(_taskIndex);\r\n        }\r\n    }\r\n}\r\n",
  "sourcePath": "D:\\ServiceSystem\\test\\AntiFraud\\contracts\\AntiFraud.sol",
  "compiler": {
    "name": "solc",
    "version": "0.8.0+commit.c7dfd78e.Emscripten.clang"
  },
  "schemaVersion": "3.4.6",
  "updatedAt": "2022-04-08T08:00:33.894Z",
  "networkType": "ethereum",
  "devdoc": {
    "kind": "dev",
    "methods": {},
    "version": 1
  },
  "userdoc": {
    "kind": "user",
    "methods": {},
    "version": 1
  }
}